:020000040800F2
:10000000002000209D2C0008312C0008332C000813
:1000100000000000000000000000000000000000E0
:10002000000000000000000000000000352C000867
:100030000000000000000000372C0008392C0008E8
:10004000ED2C0008ED2C0008ED2C0008ED2C00082C
:10005000ED2C0008ED2C0008ED2C0008ED2C00081C
:10006000ED2C0008ED2C0008ED2C0008ED2C00080C
:10007000ED2C0008ED2C000800000000ED2C00081D
:1000800000000000ED2C000800000000000000004F
:10009000ED2C000800000000ED2C0008ED2C0008FD
:1000A000ED2C0008ED2C0008ED2C0008ED2C0008CC
:1000B000ED2C0008ED2C0008ED2C0008ED2C0008BC
:1000C00010B5064C2378002B07D1054B002B02D02E
:1000D000044800E000BF0123237010BD040000208D
:1000E000000000005C2D0008044B10B5002B03D06D
:1000F0000349044800E000BF10BDC04600000000F6
:10010000080000205C2D0008002243088B4274D3B5
:1001100003098B425FD3030A8B4244D3030B8B4208
:1001200028D3030C8B420DD3FF22090212BA030C11
:100130008B4202D31212090265D0030B8B4219D3F2
:1001400000E0090AC30B8B4201D3CB03C01A524112
:10015000830B8B4201D38B03C01A5241430B8B425A
:1001600001D34B03C01A5241030B8B4201D30B0343
:10017000C01A5241C30A8B4201D3CB02C01A52416A
:10018000830A8B4201D38B02C01A5241430A8B422D
:1001900001D34B02C01A5241030A8B4201D30B0216
:1001A000C01A5241CDD2C3098B4201D3CB01C01A30
:1001B000524183098B4201D38B01C01A524143093A
:1001C0008B4201D34B01C01A524103098B4201D328
:1001D0000B01C01A5241C3088B4201D3CB00C01A95
:1001E000524183088B4201D38B00C01A524143080D
:1001F0008B4201D34B00C01A5241411A00D2014632
:10020000524110467047FFE701B5002000F006F8A4
:1002100002BDC0460029F7D076E770477047C04658
:10022000002B11D1002A0FD1002900D1002802D0C3
:100230000021C943081C07B4024802A140180290DB
:1002400003BDC046D9FFFFFF03B4684601B502985D
:1002500000F006F8019B9E4602B00CBC7047C046F9
:10026000F0B54F464646D646C0B5040082B00D00F4
:10027000914698468B422FD82CD04146484600F0F4
:10028000B1F829000600200000F0ACF8331A9C46B3
:10029000203B9A4600D576E04B46524693401F00DD
:1002A0004B46624693401E00AF4228D825D05346A5
:1002B000A41BBD41002B00DA7BE00022002300924A
:1002C00001930123524693400193012362469340D8
:1002D000009318E08242D0D90022002300920193BB
:1002E0000A9B002B01D01C605D600098019902B050
:1002F0001CBC90469946A246F0BDA342D7D9002225
:100300000023009201936346002BE9D0FB07984637
:10031000414672080A437B0866460EE0AB4201D1B3
:10032000A2420CD8A41A9D41012024196D4100213C
:10033000013E24184D41002E06D0AB42EED9013EBD
:1003400024196D41002EF8D10098019953460019E7
:100350006941002B23DB2B005246D3402A00644620
:10036000E2401C0053461500002B2DDB26005746AB
:10037000BE40330026006746BE403200801A9941D5
:1003800000900191ACE7624620239B1A4A46DA406E
:100390006146130042468A4017001F4380E76246C9
:1003A00020239B1A2A0066469A402300F3401343F9
:1003B000D4E76246202300219B1A0022009101927B
:1003C0000122DA40019280E72023624626009B1A30
:1003D000DE402F00B0466646B74046463B003343FA
:1003E000C8E7C04610B5002903D100F007F8203057
:1003F00002E0081C00F002F810BDC0461C210123D9
:100400001B04984201D3000C10391B0A984201D3F7
:10041000000A08391B09984201D30009043902A2D5
:10042000105C40187047C04604030202010101013C
:1004300000000000000000000023C25C0133002A1D
:10044000FBD1581E7047000010B50400094B186816
:10045000FA218900FFF758FE00F06EF8002801D05D
:10046000012010BD013000222100404200F034F88C
:100470000020F6E70000002010B5084A136840216C
:100480000B4313600020FFF7DFFF041E02D001249E
:10049000200010BD02F09EFAFAE7C046002002409C
:1004A000024A1368013313607047C04620000020E1
:1004B000014B18687047C0462000002070B504004A
:1004C000FFF7F6FF0500631C00D00134FFF7F0FFD3
:1004D000401BA042FAD370BD70B5002811DB840820
:1004E000134DC034A400625903231840C000FC33EC
:1004F0001E008640B24389010B4083401343635181
:1005000070BDC0B20F220240083A92080632920033
:10051000084BD3185D6803242040C000FF2214005C
:100520008440A54389010A4082402A435A60E7E794
:1005300000E100E000ED00E001380A4B98420FD8DE
:10054000094A50600948036A1B021B0AC0210906B8
:100550000B4303620023936007331360002070474E
:100560000120FCE7FFFFFF0010E000E000ED00E0ED
:10057000F0B5C64600B5002338E0052600E00026A9
:10058000AE4035003D430234A400554EA551554CB4
:1005900025684246D4432E0026404A68D20302D53D
:1005A000424615432E004F4D2E606D682E002640AA
:1005B0004A68920302D5424615432E00494D6E60AB
:1005C000AD682E0026404A68D20202D54246154345
:1005D0002E00444DAE60ED682C404A68920202D570
:1005E00042462A4314003F4AD46001330A6814008B
:1005F000DC4072D001249C4022409046F5D04D68EA
:10060000022D01D0122D0ED1DD080835AD002F5876
:1006100007261E40B6000F22B24097430A69B24037
:1006200016003E432E504D686E1E012E03D9112D2B
:1006300001D0122D12D185685F000326BE40B5435C
:100640002E00CD68BD40354385604568A5434A68A6
:100650001609012434409C402C43446007685E0026
:1006600003242500B540ED432F404A681440B440B0
:100670003C430460C46825408C68B4402C43C4608B
:100680004A68D200B1D5184D6C6B012634436C63B7
:100690009C08A51CAD00124EAF5903261E40B500A4
:1006A0000F26AE40B743A026F605B04200D166E75C
:1006B0000E4EB0420BD00E4EB0420AD00D4EB0429C
:1006C00009D00D4EB04200D157E7062658E7012663
:1006D00056E7022654E7032652E704BC9046F0BDD5
:1006E00000000140000401400010024000040050DE
:1006F00000080050000C0050001C0050002A01D1DE
:10070000816270478161FCE710B5041E59D0412316
:10071000C35C002B43D041232422E2542268136897
:1007200001218B4313602268274B61680B401361E2
:100730002268936825490B409360E368012B34D00D
:10074000226884231B02A1680B439360E368022B99
:1007500032D0226851681E4B0B4353602268D36825
:100760001A490B40D360236962691343A2691202DC
:1007700021681343CB602268E369216A0B4313604D
:100780002268136801210B43136000236364412234
:100790001F31A15423630132A354002010BD403304
:1007A0000022C25402F024F9B5E7226880231B021C
:1007B000A1680B439360C9E72368802212015A6045
:1007C000C7E70120EAE7C046FFFFFFF0FF7FFFFF1A
:1007D00000800002F0B54123C35C202B20D12033E0
:1007E000C35C012B1ED04024012202554125242345
:1007F00043550668336893433360066833680A4F8D
:100800003B403360066833681943316001680B6808
:1008100013430B602023435500230355002000E0C1
:100820000220F0BD0220FCE7FFEFFFFFF0B54123FF
:10083000C35C202B1ED12033C35C012B1CD0402471
:10084000012202554125242343550668336893430A
:10085000336006683368094F3B4009021943316031
:1008600001680B6813430B60202343550023035595
:10087000002000E00220F0BD0220FCE7FFF0FFFFB7
:1008800010B5264BD9680C230B40082B42D00C2BFB
:1008900011D0042B09D0214B5A68520B0723134067
:1008A000013380200002984010BD1C4B1B68DB0602
:1008B00032D51B48F8E78A0C0F231340194AD05C45
:1008C000890D032211400131144BDB68DB030DD489
:1008D000124B1B68DB0613D54201121A93019B1AB7
:1008E000DB001B181802FFF70FFCDDE74201121AAC
:1008F00093019B1ADB001B185802FFF705FCD3E796
:100900004201121A93019B1ADB001B189802FFF791
:10091000FBFBC9E70448C7E70448C5E700100240ED
:1009200000093D00BC2D000800127A000024F400EC
:10093000F0B583B0041E00D197E2CA4BDA680C25EB
:100940001540DA688026760216400368DB0736D544
:10095000082D2CD00C2D28D063688022520293429F
:100960004DD0A022D202934250D0BE4B1A68BE494D
:100970000A401A601A68802149020A400192019ACD
:100980001A68BA490A401A606368002B4AD0FFF718
:100990008FFD0700B34B1B689B0310D4FFF788FD46
:1009A000C01B6428F6D9032060E2002ED4D0AD4BE2
:1009B0001B689B0303D56368002B00D158E22368B2
:1009C0009B0764D5E368042D3CD00C2D38D0002B58
:1009D00000D1AEE0A3490A680920824313430B60AB
:1009E000FFF766FD06009F4B1B685B0700D597E08D
:1009F000FFF75EFD801B0228F5D9032036E2994AF5
:100A0000116880235B020B431360BDE7954B1968A7
:100A10008022D2020A431A601968802252020A43D5
:100A20001A60B1E7FFF744FD07008E4B1B689B037C
:100A3000C5D5FFF73DFDC01B6428F6D9032015E29C
:100A4000002EC4D1874A1268520702D5002B00D16C
:100A500010E2844E726886490A40216909020A43FD
:100A60007260326809218A4313433360FFF708FF3D
:100A7000F26812090F2313407E4AD35CD8407E4BA4
:100A800018600020FFF7E0FC002800D0EEE12368AA
:100A9000DB062CD5002D5FD1724B1B689B0503D55F
:100AA000E369002B00D1E7E16E4A536873490B40BC
:100AB000616A0B43536053681B021B0A216A0906D3
:100AC0000B435360636A590B013180231B028B4037
:100AD000D16809090F220A4066498A5CD340664AF8
:100AE00013600020FFF7B0FC002800D0BEE12368AF
:100AF0001B077DD56369002B67D05A4A136D01210E
:100B00000B431365FFF7D4FC0600564B1B6D9B0788
:100B10006ED4FFF7CDFC801B0228F6D90320A5E197
:100B200050494B68524A13402269120213434B60EA
:100B3000ADE74C4A136801218B431360FFF7B8FC03
:100B40000600484B1B685B07A1D5FFF7B1FC801B73
:100B50000228F6D9032089E1E369002B22D0414A1B
:100B6000116880235B000B431360FFF7A1FC0600B4
:100B70003C4B1B689B0506D4FFF79AFC801B0228A0
:100B8000F6D9032072E1374A53683C490B40616A49
:100B90000B43536053681B021B0A216A09060B436F
:100BA0005360A4E72F4A136835490B401360FFF7E1
:100BB0007FFC06002B4B1B689B0598D5FFF778FC44
:100BC000801B0228F6D9032050E1264A136D01212B
:100BD0008B431365FFF76CFC0600224B1B6D9B07D4
:100BE00006D5FFF765FC801B0228F6D903203DE1FE
:100BF00023685B0700D48CE01A4B9B6BDB001BD493
:100C0000184A916B80235B050B43936301261D4BB0
:100C10001B68DB0512D5A36880225200934235D0B1
:100C2000002B4BD10F4B1A6D15490A401A651A6DEE
:100C300015490A401A652FE00026E8E7114A1168B5
:100C400080235B000B431360FFF732FC07000D4B62
:100C50001B68DB05DFD4FFF72BFCC01B6428F6D92B
:100C6000032003E100100240FFFFFEFFFFFFFBFF38
:100C7000FFE0FFFFC82D000800000020FF1FFFFF5E
:100C8000FFFEFFFF00700040FFFBFFFF7E4A116D7B
:100C900080235B000B431365A368002B28D0FFF76C
:100CA00007FC0700784B1B6D9B0530D4FFF700FC59
:100CB000C01B764B9842F5D90320D7E0A022D20082
:100CC000934209D0704B1A6D71490A401A651A6D2A
:100CD00070490A401A65DFE76B4B196D013AFF3A1C
:100CE0000A431A65196D802252000A431A65D3E738
:100CF000FFF7DEFB0700644B1B6D9B0507D5FFF775
:100D0000D7FBC01B614B9842F5D90320AEE0012E02
:100D100021D023689B063CD5A369002B21D05A4BD8
:100D200099680120014399605A6B02435A635A4AF9
:100D3000116A80239B010B431362FFF7B9FB060086
:100D4000514B9B689B0724D4FFF7B2FB801B022802
:100D5000F6D903208AE04C4A936B50490B409363C9
:100D6000D7E7494A936801218B4393604A4A136A43
:100D70004B490B401362FFF79BFB0600424B9B68FD
:100D80009B0706D5FFF794FB801B0228F6D90320AA
:100D90006CE0A36A002B00D170E00C2D49D0022B2F
:100DA00012D0394A13683F490B401360FFF780FBAC
:100DB0000400354B1B689B0139D5FFF779FB001BFD
:100DC0000228F6D9032051E02F4A136835490B4019
:100DD0001360FFF76DFB05002B4B1B689B0106D5CD
:100DE000FFF766FB401B0228F6D903203EE02649A8
:100DF000CB682D4A1340E26A206B0243606B0243CA
:100E00001343CB600A6880235B0413430B60FFF736
:100E10004FFB04001C4B1B689B0106D4FFF748FBEB
:100E2000001B0228F6D9032020E000201EE000204D
:100E30001CE0012B24D0144BDA6880235B021340A2
:100E4000E16A8B4201D0012010E0F0239B031340A4
:100E5000216B8B4201D0012008E0C0231B041A4003
:100E6000636B9A420ED0012000E0012003B0F0BD78
:100E70000120FBE70120F9E70120F7E70020F5E773
:100E80000120F3E70020F1E7001002408813000082
:100E9000FFFEFFFFFFFBFFFF00000140FFFFFFEF32
:100EA000FFDFFFFFFFFFFFFEFFFF02FF70B5040043
:100EB0000D00002800D1BAE05F4B1A6801231340EF
:100EC0008B420BD25C490B68012293432B430B608E
:100ED0000B681A40AA4201D00120A9E023689B07B1
:100EE00006D5564AD368F0218B43A1680B43D360E3
:100EF0002368DB0764D56368022B09D0032B29D054
:100F0000012B2DD04D4A1268920506D401208FE0A6
:100F10004A4A1268920300D48BE04849CA68032009
:100F200082431343CB60FFF7C3FA06006368022BCA
:100F30001CD0032B28D0012B34D0404BDB680C2273
:100F40001A423DD0FFF7B4FA801B3D4B9842F4D9CA
:100F500003206DE0394A12689201DED4012067E077
:100F6000364A12685207D8D4012061E0334BDA6860
:100F70000C231340082B23D0FFF79AFA801B304B29
:100F80009842F3D9032053E02C4BDA680C2313402A
:100F90000C2B15D0FFF78CFA801B294B9842F3D904
:100FA000032045E0254BDA680C231340042B07D0BF
:100FB000FFF77EFA801B224B9842F3D9032037E0DB
:100FC0001D4B1A6801231340AB420BD91A490B6819
:100FD000012293432B430B600B681A40AA4201D0B5
:100FE000012025E023685B0706D5144AD36815491C
:100FF0000B40E1680B43D36023681B0707D50F49FB
:10100000CB68114A13402269D2001343CB60FFF72B
:1010100037FC0A4BDA6812090F2313400B4AD35CE2
:10102000D8400B4B18600020FFF70EFA00E00120BB
:1010300070BD0120FCE7C0460020024000100240C5
:1010400088130000FFF8FFFFFFC7FFFFC82D00084F
:1010500000000020014B18687047C04600000020C7
:1010600010B5FFF7F7FF044BDA68120A07231340A5
:10107000024AD35CD84010BD00100240D82D0008B1
:1010800010B5FFF7E7FF044BDA68D20A07231340D5
:10109000024AD35CD84010BD00100240D82D000891
:1010A00070B5040082231B0102681A425AD0704BAB
:1010B0009B6BDB0000D593E06D4A916B80235B0551
:1010C0000B43936301256B4B1B68DB0500D489E060
:1010D000674B1A68C0239B031A4061680B40934218
:1010E00000D194E0C0239B020A001A409A4200D12A
:1010F00095E05F4B1B6DC022920213401FD0114040
:10110000994202D02268920608D4C0229202A168B5
:101110000A409A4213D023681B0510D5544B186D12
:10112000554A02401E6D8021090331431965196D2E
:10113000524E314019651A65C30500D576E06368E3
:10114000C022920219001140914200D17EE048492C
:101150000B6DC02292026068024013430B65012DA3
:1011600000D17DE02368DB0706D5414AD36C03211B
:101170008B43E1680B43D36423689B0706D53C4A45
:10118000D36C0C218B4321690B43D36423685B0729
:1011900006D5374AD36C3A490B4061690B43D36497
:1011A00023681B0706D5324AD36C36490B40A16928
:1011B0000B43D36423685B0606D52D4AD36C3249B2
:1011C0000B40216A0B43D36423681B064ED5284A83
:1011D000D36C2E490B40E1690B43D364002070BDF2
:1011E000002570E7234A116880235B000B431360DE
:1011F000FFF75EF906001F4B1B68DB0500D567E7AC
:10120000FFF756F9801B6428F5D90320E7E7C023D0
:101210009B03A0680340934200D063E769E7144B47
:101220001B689B0300D464E70120D8E7FFF740F96F
:1012300006000F4B1B6D9B0500D580E7FFF738F9C3
:10124000801B134B9842F4D90320C8E708490A6869
:1012500010480240C0208003034013430B6076E730
:101260000A008B6B0C490B4093637BE70020B6E7C9
:101270000010024000700040FFFFFCFFFFFFF7FF7F
:10128000FFF3FFFFFFCFFFFFFFFFFFFBFFFFF3FFBA
:1012900088130000FFFFCFFFFFFFFFEFF8B5060048
:1012A0000C0017001D0033689B6823401B1B5A422B
:1012B0005341BB423BD06B1CF5D0FFF7F9F8069BBE
:1012C000C01AA84201D2002DEDD132685368E02146
:1012D0008B43536082235B0072689A420CD0802358
:1012E0009B01B26A9A4216D051230122F254013B6B
:1012F0000022F25403201BE0B368802212029342C2
:1013000003D08022D2009342E9D132681368402191
:101310008B431360E3E73268136806490B401360A0
:101320003268116880239B010B431360DCE70020C7
:10133000F8BDC046FFDFFFFF10B582B00400822079
:1013400040006368834206D05120205C052811D0FC
:10135000002002B010BD00920B000022802120006E
:10136000FFF79CFF0028F4D0636D202213436365D0
:101370000320EEE700920B00002201212000FFF77E
:101380008DFF0028E5D0636D2022134363650320A1
:10139000DFE730B583B004008220400063688342F9
:1013A00018D0822040006368834231D18023DB0063
:1013B000A06898421DD000920B00002280212000DE
:1013C000FFF76CFF00282CD0636D20221343636568
:1013D000032026E0A36880200002834203D08020FF
:1013E000C0008342DDD1206803684025AB43036021
:1013F000D7E700920B00002201212000FFF74EFFEB
:1014000000280ED0636D202213436365032008E09B
:1014100000920B00002201212000FFF73FFF00286F
:1014200001D103B030BD636D2022134363650320F7
:10143000F7E7000010B5041E3BD000238362513350
:10144000C35C002B2FD051220223A35421680B68C8
:10145000402083430B606368A1680B43E1680B4342
:1014600021690B4361690B4380218900A069014018
:101470000B43E1690B43216A0B432168A06A0343D4
:101480000B60618B04230B402168606A03434B604F
:101490002168CB6908480340CB61002363650133B1
:1014A000A354002010BD50330022C25401F0D2FAE0
:1014B000C9E70120F6E7C046FFF7FFFFF0B585B0AA
:1014C0000400019116001F005023C35C012B00D1C2
:1014D000BFE050230122C254FEF7EAFF050051236A
:1014E000E35C012B08D0022051230122E254013B8E
:1014F0000022E25405B0F0BD0199002900D19AE024
:10150000002E00D199E050330322E254002363659A
:101510002163A686E686A363A387E38763642364C7
:1015200080231B02A2689A421DD023681A685206C3
:1015300003D41A6840210A431A6080231B01E26821
:101540009A4217D06368002B01D0012E48D1236B3B
:101550001B7822681373236B01332363E38E013BF3
:101560009BB2E3863CE0226811688023DB010B43D9
:101570001360DAE76368002B01D0012E14D12368D1
:10158000226B1288DA60236B02332363E38E013B04
:101590009BB2E38608E0FEF78BFF401BB84201D305
:1015A0007B1C4CD1002F4CD0E38E9BB2002B2AD059
:1015B00023689A689207EED5226B1288DA60236B53
:1015C00002332363E38E013B9BB2E386ECE7FEF735
:1015D0006FFF401BB84201D37B1C34D1002F34D0A5
:1015E000E38E9BB2002B0ED023689A689207EED54B
:1015F000226B12781A73236B01332363E38E013B52
:101600009BB2E386ECE72A0039002000FFF794FE46
:10161000002801D020236365A368002B06D1039323
:101620002368DA6803929B680393039B636D002B26
:101630000DD1002058E7012056E7012054E7032090
:1016400052E7032050E703204EE703204CE7012038
:101650004AE702204EE7F0B585B004000E00019283
:101660001D005023C35C012B00D108E1502301224F
:10167000C254FEF71DFF07005123E35CDBB2626832
:10168000012B14D0822149008A4208D00220512324
:101690000122E254013B0022E25405B0F0BDA268F1
:1016A000002A00D0DDE0042B01D00220EFE7002E5D
:1016B00000D1D8E0019B002B00D1D6E0002D00D155
:1016C000D5E05123E35C042B02D051230522E254E0
:1016D00000236365019AA263E587A5872663E586F3
:1016E000A5862364636423681A68520603D41A68C3
:1016F00040210A431A6080231B01E2689A4211D0FC
:101700006368002B01D0012D0AD1236B1B7822685E
:101710001373236B01332363E38E013B9BB2E38698
:10172000012569E06368002B01D0012D0AD12368EF
:10173000226B1288DA60236B02332363E38E013B52
:101740009BB2E38601251BE023689A68D2070ED579
:10175000E28F92B2002A0AD0DB68A26B1380A36BDF
:101760000233A363E38F013B9BB2E3870125FEF7BE
:101770009FFEC01B0A9B984202D3013300D078E041
:10178000E38E9BB2002B03D1E38F9BB2002B51D091
:1017900023689A689207D7D5E28E92B2002AD3D0F6
:1017A000012DD1D1226B1288DA60236B02332363BF
:1017B000E38E013B9BB2E3860025C5E723689A6868
:1017C000D2070ED5E28F92B2002A0AD0DB68A26B54
:1017D0001370A36B0133A363E38F013B9BB2E387D9
:1017E0000125FEF765FEC01B0A9B984201D3013319
:1017F00041D10A9B002B40D0E38E9BB2002B03D13A
:10180000E38F9BB2002B15D023689A689207D5D539
:10181000E28E92B2002AD1D0012DCFD1226B127864
:101820001A73236B01332363E38E013B9BB2E38680
:101830000025C3E73A000A992000FFF77DFD002844
:1018400003D020236365012021E7A368002B00D08B
:101850001DE703932368DA6803929B680393039B55
:1018600015E7022013E7012011E701200FE701200F
:101870000DE703200BE7032009E7032007E7022019
:101880000BE70000F0B585B004000D0016001F0046
:1018900082235B0042689A4217D05023E35C012BFD
:1018A00000D19CE050230122E254FEF701FE039098
:1018B0005123E35C012B14D0022051230122E25476
:1018C000013B0022E25405B0F0BD8368002BE4D157
:1018D00051330422C254009733000A00FFF7BBFEC5
:1018E000F1E7002D6DD0002E6DD050330422E2546C
:1018F00000236365A563A687E6872363A386E38643
:101900002364636480231B02A2689A420BD023687D
:101910001A68520603D41A6840210A431A60E36821
:10192000002B10D02CE0226813682E490B40136066
:10193000EDE7FEF7BDFD039BC01AB84201D37B1C47
:1019400043D1002F43D0E38F9BB2002B2BD02368D1
:101950009A68D207EDD51B7BA26B1370A36B013382
:10196000A363E38F013B9BB2E387ECE7FEF7A0FDA7
:10197000039BC01AB84201D37B1C2AD1002F2AD066
:10198000E38F9BB2002B0ED023689A68D207EDD567
:10199000DB68A26B1380A36B0233A363E38F013B6D
:1019A0009BB2E387ECE7039A39002000FFF7F1FCD4
:1019B000002801D020236365636D002B0DD100202A
:1019C0007BE7012079E7012077E7032075E7032013
:1019D00073E7032071E703206FE701206DE7022022
:1019E00071E7C046FFBFFFFF10B5040000230020D1
:1019F00000E00133072B08D899000F228A401442D7
:101A0000F7D001229A401043F3E710BD70B5041ED1
:101A10004ED03C23C35C002B3DD03C230222E25439
:101A20002368013A1A60206802686368A1680B4362
:101A3000216949040B4361690B43A1690B43E169C7
:101A40000B43616A0B43A16A0B4313430360237B7F
:101A5000012B26D0236B626B1343A26B13432268C6
:101A6000DB4313612268236B616B0B439362236832
:101A7000A26B1A622568206BFFF7B6FF2863216806
:101A80004B68032293434B6023689A603C23023ADD
:101A9000E254002070BD3D330022C25401F038F8FA
:101AA000BBE72268116880235B020B431360D1E718
:101AB0000120EFE7D0B50400016883680269134391
:101AC00042691343C26913430A68C0480240134382
:101AD0000B6022685368BE490B40E1680B435360BA
:101AE000A1692268BB4B9A4201D0236A19439368CB
:101AF000B94803400B4393602268B84B9A4216D012
:101B0000B74B9A4227D0B34B9A4239D01023B149F0
:101B10008A4257D080221202E169914200D18CE0C2
:101B2000082B00D949E19B00AE4AD3589F46AE4BE3
:101B3000D96C03230B40012B09D0002B05D0022BBD
:101B40003AD0032B05D01023E1E70123DFE704237C
:101B5000DDE70823DBE7A44BD96C0C230B40042BF7
:101B60000AD005D9082B29D00C2B07D10823CEE7A2
:101B7000002B03D10023CAE70423C8E71023C6E7DC
:101B8000994BDB6CC02109010B408021C9008B42BD
:101B90000ED009D9802109018B4211D0C021090141
:101BA0008B4207D10823B2E7002B03D10023AEE715
:101BB0000423ACE71023AAE70223A8E70223A6E741
:101BC0000223A4E7022B2DD007D9042B30D0082BF9
:101BD00000D0F5E08020000207E0002B00D0EFE00D
:101BE000FFF73EFA002800D1ECE0626853009B1832
:101BF000834200D9E8E01303834200D206E1070ED6
:101C0000060250080021801979410023FEF708FBE5
:101C1000764BC218764B9A4200D9F9E02368D86017
:101C2000002085E0704B1B68DB0604D47148DCE7BC
:101C3000FEF726FED6E77048D7E7082B62D89B0050
:101C40006E4AD3589F46FFF70BFA400063685B0863
:101C5000C0186168FEF758FA03041B0C002068499D
:101C60001A00103A8A4200D9D4E00F221900914399
:101C70005B08083A13400B432268D36058E0FFF733
:101C8000FFF9400063685B08C0186168FEF73CFA22
:101C900003041B0C0020E2E7534B1B68DB060BD54B
:101CA00063685808574B9C4660446168FEF72CFAFD
:101CB00003041B0C0020D2E763685808524B9C4673
:101CC00060446168FEF720FA03041B0C0020C6E79D
:101CD000FEF7D6FD400063685B08C0186168FEF738
:101CE00013FA03041B0C0020B9E76368580880232B
:101CF0005B029C4660446168FEF706FA03041B0C15
:101D00000020ACE701200023A9E7FFF7A9F96368E9
:101D10005B08C0186168FEF7F7F903041B0C00208C
:101D200037491A00103A8A4200D975E02268D36018
:101D3000002323666366D0BDFFF7A2F963685B08E2
:101D4000C0186168FEF7E0F903041B0C0020E7E708
:101D5000254B1B68DB060BD563685808264B9C4651
:101D600060446168FEF7D0F903041B0C0020D7E73C
:101D7000636858081F4B9C4660446168FEF7C4F9CD
:101D800003041B0C0020CBE7FEF77AFD63685B08B9
:101D9000C0186168FEF7B8F903041B0C0020BFE708
:101DA0006368580880231B029C4660446168FEF704
:101DB000ABF903041B0C0020B2E701200023AFE7BE
:101DC0000120B5E70020B3E70120B1E7F369FFEF99
:101DD000FFCFFFFF00480040FFF4FFFF0038014045
:101DE00000440040742D00080010024000FDFFFF79
:101DF000FFFC0F000024F40000093D00982D0008AE
:101E0000EFFF000000127A000048E80101208FE790
:101E100001208DE701208BE7012089E7436ADB077A
:101E200006D5026853682C490B40816A0B43536006
:101E3000436A9B0706D50268536828490B40C16A6C
:101E40000B435360436A5B0706D502685368244915
:101E50000B40016B0B435360436A1B0706D50268B6
:101E6000536820490B40416B0B435360436ADB06C8
:101E700006D5026893681C490B40816B0B43936045
:101E8000436A9B0606D50268936818490B40C16BEC
:101E90000B439360436A5B060BD502685368144991
:101EA0000B40016C0B43536080235B03026C9A422E
:101EB0000AD0436A1B0606D5026853680D490B40D9
:101EC000816C0B4353607047026853680A490B40AA
:101ED000416C0B435360ECE7FFFFFDFFFFFFFEFF8C
:101EE000FFFFFBFFFF7FFFFFFFEFFFFFFFDFFFFFB6
:101EF000FFFFEFFFFFFFF7FFFFFF9FFFF0B5C646B5
:101F000000B506000C0017009846069D3368DB6993
:101F100023401B1B5A425341BB421CD16B1CF5D0C2
:101F2000FEF7C6FA4346C01AA84201D8002DEDD1EB
:101F3000326813680A490B40136032689368A33112
:101F4000FF318B43936020237367B36750330022C4
:101F5000F254032000E0002004BC9046F0BDC046CF
:101F60005FFEFFFF30B583B004000023C367FEF7B8
:101F70009FFA050023681B681B070CD423681B68A5
:101F80005B0715D420236367A36750330022E25414
:101F9000002003B030BD80210C4B009303000022D1
:101FA00089032000FFF7AAFF0028E7D00320F0E70D
:101FB0008021064B00932B000022C9032000FFF76D
:101FC0009DFF0028DED00320E3E7C046FFFFFF01AE
:101FD00010B5041E2ED0436F002B21D0242363673D
:101FE0002268136801218B4313602000FFF762FD14
:101FF000012814D0636A002B18D1226853680E4957
:102000000B405360226893682A218B4393602268B7
:10201000136829390B4313602000FFF7A3FF10BD9D
:1020200070330022C25400F0D3FDD7E72000FFF741
:10203000F5FEE2E70120F2E7FFB7FFFF84B030B51D
:1020400083B006900791089209931DAB1A786B46EE
:10205000DD1D80235B4213432B708024640100222A
:1020600021001C98FEF74AFB1E230122290006A826
:10207000FFF724FA1E2301221EA906A8FFF71EFA65
:10208000012221001C98FEF739FB03B030BC08BCCC
:1020900004B0184784B000B597B0189019911A92FF
:1020A0001B9305231493043B13932E9B12934822F6
:1020B0001CA9684600F040FE189819991A9A1B9BB3
:1020C000FFF7BCFF17B008BC04B0184784B000B5D8
:1020D00097B0189019911A921B9303231493023B03
:1020E00013932E9B129348221CA9684600F024FEED
:1020F000189819991A9A1B9BFFF7A0FF17B008BCF4
:1021000004B0184784B030B583B0069007910892A8
:1021100009931DAB1A786B46DD1D80235B42134388
:102120002B7080246401002221001C98FEF7E6FA3F
:102130001E230122290006A8FFF7C0F91E98FEF70A
:102140007BF982B21E231E9906A8FFF7B7F9012278
:1021500021001C98FEF7D2FA03B030BC08BC04B0D2
:10216000184784B030B597B01A901B911C921D93FC
:10217000309C002514950D231393129448221EA918
:10218000684600F0D9FD1A981B991C9A1D9BFFF711
:1021900055FF319B14931395129448221EA968464B
:1021A00000F0CAFD1A981B991C9A1D9BFFF7AAFF05
:1021B0003198FEF741F9C0B2149022231393129480
:1021C00048221EA9684600F0B7FD1A981B991C9A70
:1021D0001D9BFFF733FF129448221EA9684600F0AA
:1021E000ABFD1A981B991C9A1D9BFFF76FFF0120EE
:1021F00017B030BC08BC04B0184784B030B583B009
:10220000069007910892099380256D01002229000C
:102210001C98FEF773FA1E2301221DA906A8FFF7DA
:102220004DF96B46DC1D1E230122210006A8FFF795
:1022300029FB012229001C98FEF760FA207803B0E0
:1022400030BC08BC04B0184784B070B596B01A9082
:102250001B911C921D93309C802314930125139590
:10226000129448221EA9684600F066FD1A981B9930
:102270001C9A1D9BFFF7E2FE0A20FEF71FF913953B
:10228000129448221EA9684600F056FD1A981B9920
:102290001C9A1D9BFFF7B1FF802805D0002016B0C7
:1022A00070BC08BC04B01847002514950E23139386
:1022B000129448221EA9684600F03EFD1A981B9908
:1022C0001C9A1D9BFFF7BAFE14950F2313931294CB
:1022D00048221EA9684600F02FFD1A981B991C9AE7
:1022E0001D9BFFF7ABFE0123149313931294482216
:1022F0001EA9684600F020FD1A981B991C9A1D9B88
:10230000FFF79CFE72231493553B139312944822BB
:102310001EA9684600F010FD1A981B991C9A1D9B77
:10232000FFF78CFE74231493563B139312944822A8
:102330001EA9684600F000FD1A981B991C9A1D9B67
:10234000FFF77CFE149526231393129448221EA9AE
:10235000684600F0F1FC1A981B991C9A1D9BFFF728
:102360006DFE149520231393129448221EA96846EB
:1023700000F0E2FC1A981B991C9A1D9BFFF75EFE69
:102380000826149621231393129448221EA9684606
:1023900000F0D2FC1A981B991C9A1D9BFFF74EFE69
:1023A000E4231493DE3B1393129448221EA968463B
:1023B00000F0C2FC1A981B991C9A1D9BFFF73EFE69
:1023C000C0231493B93B1393129448221EA9684664
:1023D00000F0B2FC1A981B991C9A1D9BFFF72EFE69
:1023E00014951396129448221EA9684600F0A4FC86
:1023F0001A981B991C9A1D9BFFF720FE9223149399
:10240000893B1393129448221EA9684600F094FC5D
:102410001A981B991C9A1D9BFFF710FE01203EE79E
:10242000F0B5C64600B58AB01422002105A800F018
:102430008CFC314BD96A04221143D962D96A0A4013
:102440000192019AD96A80221143D962D96A0A405D
:102450000292029ADA6A01252A43DA62DA6A2A408B
:102460000392039ADA6A02263243DA62DB6A334065
:102470000493049B90235B00984600221900A0203F
:10248000C005FEF73BF91D4F002239001C48FEF73E
:1024900035F980239B0105931A4B0693002407947A
:1024A00005A91948FEF764F80595184B069307949B
:1024B00005A9A020C005FEF75BF8059606940794D1
:1024C00005A9A020C005FEF753F8434605930695DD
:1024D0000794089405A9A020C005FEF749F80597C0
:1024E00006950794089405A90548FEF741F80AB037
:1024F00004BC9046F0BDC04600100240141C000011
:1025000000040050000011100008005000001210DC
:1025100010B50D4C0D4B23600D4B63600023A36081
:102520000122E26023616361A361E3612362200011
:10253000FEF7EAF800212000FEF74CF90021200008
:10254000FEF774F910BDC0467C0000200054004026
:10255000BB7C700010B50B480B4B036082235B0003
:10256000436080231B0283600023C36003614361D7
:102570008361C3610362436283620733C362FEF710
:1025800059FF10BD480100200030014010B50C4833
:102590000C4B036082235B00436000238360C360B5
:1025A00003614361802292008261C93AFF3AC261AD
:1025B0000362436283620733C362FEF73BFF10BDD1
:1025C000240000200038004010B51048104B036074
:1025D00080235B05436080235B0483600023C3602A
:1025E000012202614361802292018261A022C261C4
:1025F000036243628362C362A532FF3202634363B4
:102600009123DB008363FFF701FA10BDA0010020D6
:102610000040024010B50948094B0360E1235B020A
:10262000436000238360C36003610C2242618361C5
:10263000C36103624362FFF7CBFC10BDC8000020FA
:102640000038014010B59CB0382200210EA800F0DF
:102650007CFB1422002109A800F077FB2422002132
:10266000684600F072FB18490B68184A1A4080232C
:102670001B0113430B6001230E93A023DB020F9376
:102680000223189380235B02199380235B031A9320
:1026900080231B041B930EA8FEF74AF90F2309930E
:1026A0000C3B0A9300240B940C940D94012109A86F
:1026B000FEF7FCFB09230093039406946846FEF79B
:1026C000EFFC1CB010BDC04600700040FFE7FFFFEC
:1026D000F0B5DE4657464E464546E0B59DB0FDF79F
:1026E000CBFEFFF7AFFFFFF79BFEFFF711FFFFF7F2
:1026F00031FFFFF74BFFFFF767FFFFF78BFF8021ED
:10270000B04D012249012800FDF7F8FF8021A020EB
:1027100001224900C005FDF7F1FFAB4C12952100E5
:1027200010314822684600F007FB20686168A26803
:10273000E368FFF789FD002855D0A34CA34B139302
:10274000A04E12962500103548222900684600F058
:10275000F3FA20686168A268E368FFF702FD1227B8
:102760001397129648222900684600F0E5FA20687F
:102770006168A268E368FFF740FD6420FDF79EFEF4
:102780001397129648222900684600F0D5FA20686F
:102790006168A268E368FFF730FDC3B2984608237A
:1027A000149309331393129648222900684600F0C7
:1027B000C3FA20686168A268E368FFF73FFC642001
:1027C000FDF77CFE1397129648222900684600F018
:1027D000B3FA20686168A268E368FFF70EFDC3B230
:1027E0009A4600265DE0A03001222021C005FDF7B9
:1027F00085FFA2E7744C734B1293210010314822DD
:10280000684600F099FA20686168A268E368FFF7FB
:1028100041FC6D4C122313936A4B1293210010312B
:102820004822684600F088FA20686168A268E36878
:10283000FFF7E3FC0028ECD0634C12231393614FA5
:1028400012972500103548222900684600F074FAD6
:1028500020686168A268E368FFF7CFFC0300C2B29A
:102860009046FF201840149011231393129748228A
:102870002900684600F060FA20686168A268E36891
:10288000FFF7DCFB132313931297482229006846B5
:1028900000F052FA20686168A268E368FFF7ADFCB7
:1028A0000136012EA6DD484C13231393454F129792
:1028B0002600103648223100684600F03DFA2068B4
:1028C0006168A268E368FFF798FC179014231393DC
:1028D000129748223100684600F02EFA206861689D
:1028E000A268E368FFF789FCC5B21523139312971A
:1028F00048223100684600F01FFA20686168A2682B
:10290000E368FFF77AFCC3B2994616231393129734
:1029100048223100684600F00FFA20686168A2681A
:10292000E368FFF76AFCC3B29B4617231393129721
:1029300048223100684600F0FFF920686168A2680B
:10294000E368FFF75AFCC7B2002318930B2200215B
:1029500019A800F0FAF9002613E01B4C002313938A
:10296000184B1293210010314822684600F0E4F918
:1029700020686168A268E368FFF73FFC18AB9855D0
:102980000136FF24179B1C40A642E6DB01221021E2
:102990000C48FDF7B3FED04500D0FEE7484628437B
:1029A0005B4603431F437B1E9F41A742F5D118AAF4
:1029B000074B9A42F1D1A02001222021C005FDF74A
:1029C0009DFEEAE70004005024000020E02D0008EE
:1029D000F02D0008054B5A6B01210A435A63996B8D
:1029E000802252050A439A637047C0460010024095
:1029F00010B586B004001422002101A800F0A5F94A
:102A00002268114B9A4201D006B010BD0F4CE26A09
:102A100002231A43E262E26A13400093009BC02340
:102A20009B00019312230293113B039302330493FF
:102A30000133059301A90648FDF79AFDA26B802397
:102A40009B031343A363DFE70054004000100240E0
:102A50000004005010B588B004001422002103A81F
:102A600000F073F92368264A934204D0254A934222
:102A70002CD008B010BD244B596B802252010A4360
:102A80005A63D96A01221143D962D96A0A40009275
:102A9000009ADA6A02242243DA62DB6A2340019355
:102AA000019B80231B0203930494A02003A9C0056B
:102AB000FDF75EFD282303930494002305930693FA
:102AC000079303A91148FDF753FDD2E70E4B996B0D
:102AD0008022D2010A439A63D96A02221143D96241
:102AE000DB6A13400293029BE0231B0203930492D0
:102AF0000323069303A90548FDF73AFDB9E7C0464D
:102B00000030014000380040001002400004005036
:102B1000F0B5CE4600B588B004001422002103A809
:102B200000F013F92268274B9A4203D008B004BC86
:102B30009146F0BD244B196B80204002014319637C
:102B40001A6B02400092009ADA6A01273A43DA626D
:102B5000DA6A3A400192019ADA6A02252A43DA6275
:102B6000DB6A2B400293029B4423039304950326C4
:102B7000079603A9A020C005FDF7FAFC882303935C
:102B8000763B99460493002405940694079603A97E
:102B9000A020C005FDF7ECFC03970495059406946E
:102BA00007960A4F03A93800FDF7E2FC03954B4650
:102BB000049305940694079603A93800FDF7D8FC02
:102BC000B4E7C0460040024000100240000400503C
:102BD00010B586B004001422002101A800F0B5F859
:102BE0002268114B9A4201D006B010BD0F4B596BB1
:102BF0008022D2010A435A63D96A01221143D96261
:102C0000DB6A1A400092009BF0235B0101930223D0
:102C100002930133049301330593A02001A9C00559
:102C2000FDF7A6FCE0E7C046003801400010024076
:102C30007047FEE77047704710B5FDF731FC10BDD7
:102C4000104B1968802252000A431A60DA680E4954
:102C50000A40DA601A680D490A401A609A68012130
:102C60008A439A601A680A490A401A60DA68094970
:102C70000A40DA6000221A61074B802212059A602E
:102C80007047C046001002400C40FF88F6FFF6FE79
:102C9000FFFFFBFFFFFF02FF00ED00E00D48854650
:102CA000002103E00C4B5B58435004310B480C4BA4
:102CB00042189A42F6D30B4A02E000231360043212
:102CC000094B9A42F9D3FFF7BBFF00F011F8FFF769
:102CD000FFFCFEE700200020042E0008000000207A
:102CE0000400002004000020E4010020FEE70000B2
:102CF00070B500260C4D0D4C641BA410A64209D1E2
:102D0000002600F02BF80A4D0A4C641BA410A642C2
:102D100005D170BDB300EB5898470136EEE7B3001C
:102D2000EB5898470136F2E7FC2D0008FC2D00080F
:102D3000FC2D0008002E0008002310B59A4200D197
:102D400010BDCC5CC4540133F8E703001218934261
:102D500000D1704719700133F9E70000F8B5C0469B
:102D6000F8BC08BC9E467047F8B5C046F8BC08BC25
:042D70009E467047C4
:102D74000A1D0008381D0008501D0008BA1D00086F
:102D8400881D0008BA1D0008BA1D0008BA1D0008F5
:102D9400A01D0008461C00087E1C0008981C0008A2
:102DA400041D0008D01C0008041D0008041D0008B0
:102DB400041D0008EA1C0008030406080C1018206F
:102DC40030000000000000000000000001020304C5
:102DD400060708090000000001020304546869732F
:102DE4002069732061207465737400000000000082
:082DF4006CD4FF7F0100000018
:042DFC00E9000008E2
:042E0000C100000805
:042E040000002000AA
:0400000508002C9D26
:00000001FF
