:020000040800F2
:10000000002000205D290008E1280008E3280008FE
:1000100000000000000000000000000000000000E0
:10002000000000000000000000000000E5280008BB
:100030000000000000000000E7280008E928000890
:10004000AD290008AD290008AD290008AD29000838
:10005000AD290008AD290008AD290008AD29000828
:10006000AD290008AD290008F1280008AD290008D5
:10007000AD290008AD29000800000000AD290008E6
:1000800000000000AD290008000000000000000092
:10009000AD29000800000000AD290008AD290008C6
:1000A000AD290008AD290008AD290008AD290008D8
:1000B000AD290008AD290008AD290008AD290008C8
:1000C00010B5064C2378002B07D1054B002B02D02E
:1000D000044800E000BF0123237010BD040000208D
:1000E00000000000482A0008044B10B5002B03D084
:1000F0000349044800E000BF10BDC04600000000F6
:1001000008000020482A0008002243088B4274D3CC
:1001100003098B425FD3030A8B4244D3030B8B4208
:1001200028D3030C8B420DD3FF22090212BA030C11
:100130008B4202D31212090265D0030B8B4219D3F2
:1001400000E0090AC30B8B4201D3CB03C01A524112
:10015000830B8B4201D38B03C01A5241430B8B425A
:1001600001D34B03C01A5241030B8B4201D30B0343
:10017000C01A5241C30A8B4201D3CB02C01A52416A
:10018000830A8B4201D38B02C01A5241430A8B422D
:1001900001D34B02C01A5241030A8B4201D30B0216
:1001A000C01A5241CDD2C3098B4201D3CB01C01A30
:1001B000524183098B4201D38B01C01A524143093A
:1001C0008B4201D34B01C01A524103098B4201D328
:1001D0000B01C01A5241C3088B4201D3CB00C01A95
:1001E000524183088B4201D38B00C01A524143080D
:1001F0008B4201D34B00C01A5241411A00D2014632
:10020000524110467047FFE701B5002000F006F8A4
:1002100002BDC0460029F7D076E770477047C04658
:10022000002B11D1002A0FD1002900D1002802D0C3
:100230000021C943081C07B4024802A140180290DB
:1002400003BDC046D9FFFFFF03B4684601B502985D
:1002500000F006F8019B9E4602B00CBC7047C046F9
:10026000F0B54F464646D646C0B5040082B00D00F4
:10027000914698468B422FD82CD04146484600F0F4
:10028000B1F829000600200000F0ACF8331A9C46B3
:10029000203B9A4600D576E04B46524693401F00DD
:1002A0004B46624693401E00AF4228D825D05346A5
:1002B000A41BBD41002B00DA7BE00022002300924A
:1002C00001930123524693400193012362469340D8
:1002D000009318E08242D0D90022002300920193BB
:1002E0000A9B002B01D01C605D600098019902B050
:1002F0001CBC90469946A246F0BDA342D7D9002225
:100300000023009201936346002BE9D0FB07984637
:10031000414672080A437B0866460EE0AB4201D1B3
:10032000A2420CD8A41A9D41012024196D4100213C
:10033000013E24184D41002E06D0AB42EED9013EBD
:1003400024196D41002EF8D10098019953460019E7
:100350006941002B23DB2B005246D3402A00644620
:10036000E2401C0053461500002B2DDB26005746AB
:10037000BE40330026006746BE403200801A9941D5
:1003800000900191ACE7624620239B1A4A46DA406E
:100390006146130042468A4017001F4380E76246C9
:1003A00020239B1A2A0066469A402300F3401343F9
:1003B000D4E76246202300219B1A0022009101927B
:1003C0000122DA40019280E72023624626009B1A30
:1003D000DE402F00B0466646B74046463B003343FA
:1003E000C8E7C04610B5002903D100F007F8203057
:1003F00002E0081C00F002F810BDC0461C210123D9
:100400001B04984201D3000C10391B0A984201D3F7
:10041000000A08391B09984201D30009043902A2D5
:10042000105C40187047C04604030202010101013C
:1004300000000000000000000023C25C0133002A1D
:10044000FBD1581E7047000010B50400094B186816
:10045000FA218900FFF758FE00F078F8002801D053
:10046000012010BD013000222100404200F034F88C
:100470000020F6E70000002010B5084A136840216C
:100480000B4313600020FFF7DFFF041E02D001249E
:10049000200010BD02F0DCF8FAE7C0460020024060
:1004A000024A1368013313607047C04620000020E1
:1004B000014B18687047C0462000002070B504004A
:1004C000FFF7F6FF0500631C00D00134FFF7F0FFD3
:1004D000401BA042FAD370BD70B5002811DB840820
:1004E000134DC034A400625903231840C000FC33EC
:1004F0001E008640B24389010B4083401343635181
:1005000070BDC0B20F220240083A92080632920033
:10051000084BD3185D6803242040C000FF2214005C
:100520008440A54389010A4082402A435A60E7E794
:1005300000E100E000ED00E01F2318401E3B834077
:10054000014A13607047C04600E100E001380A4BE1
:1005500098420FD8094A50600948036A1B021B0AD7
:10056000C02109060B430362002393600733136025
:10057000002070470120FCE7FFFFFF0010E000E0D3
:1005800000ED00E070B51C25446C2540066C01248C
:10059000AC407460046863608368102B04D0036807
:1005A00099600368DA6070BD03689A600368D96077
:1005B000F9E7000070B5041E3DD005681F4BE81830
:1005C0001421FFF7A1FD800060641D4B23642523E7
:1005D0000222E2542B681B4A1A40A368E1680B43CD
:1005E00021690B4361690B43A1690B43E1690B432B
:1005F000216A0B4313432B608023DB01A2689A42DC
:1006000010D0114B19681C22656C15400F20A840B2
:10061000814319601968606C024060689040020074
:100620000A431A600023E36325220121A154013A01
:10063000A354002070BD0120FCE7C046F8FFFDBFB9
:10064000000002400F80FFFFA800024070B50400C8
:100650002420205C012832D024200125255401309B
:10066000205C012804D024230022E254022070BD23
:100670002430013525540020E063256828680126D0
:10068000B04328602000FFF77DFF236B002B0BD0C9
:10069000226813680E210B4313602268136801213E
:1006A0000B4313600020E2E72268136804218B43A8
:1006B00013602268136806310B431360EDE70220D4
:1006C000D5E710B52523C35C022B06D00423C363F2
:1006D00020330022C254012010BD026813680E218D
:1006E0008B43136001680A6801239A430A601C2245
:1006F000416C0A40016C1C0094404C6025228354DC
:1007000023330022C2540020E6E770B5036C196859
:10071000046825681C23426C134004229A4011424D
:1007200014D06A0712D523689B0603D423680422D9
:10073000934323601C22436C1A40016C04239340B2
:100740004B60036B002B00D0984770BD02229A408B
:1007500011421AD0AA0718D523689B0606D423682D
:100760000A22934323602523093AC2541C22436C76
:100770001A40016C022393404B6024230022C25490
:10078000C36A002BE1D09847DFE708229A40114264
:10079000DBD02B07D9D523680E22934323600E327A
:1007A000436C1A40016C01231C0094404C60C363ED
:1007B0002522835423330022C254436B002BC4D020
:1007C0009847C2E7C06B7047F0B5C64600B5002336
:1007D00038E0052600E00026AE4035003D430234F7
:1007E000A400554EA551554C25684246D4432E00D1
:1007F00026404A68D20302D5424615432E004F4D8B
:100800002E606D682E0026404A68920302D542464B
:1008100015432E00494D6E60AD682E0026404A6893
:10082000D20202D5424615432E00444DAE60ED681B
:100830002C404A68920202D542462A4314003F4A9D
:10084000D46001330A681400DC4072D001249C405B
:1008500022409046F5D04D68022D01D0122D0ED1C8
:10086000DD080835AD002F5807261E40B6000F22C0
:10087000B24097430A69B24016003E432E504D687D
:100880006E1E012E03D9112D01D0122D12D18568B3
:100890005F000326BE40B5432E00CD68BD40354302
:1008A00085604568A5434A681609012434409C4088
:1008B0002C43446007685E0003242500B540ED43E7
:1008C0002F404A681440B4403C430460C46825404B
:1008D0008C68B4402C43C4604A68D200B1D5184D2E
:1008E0006C6B012634436C639C08A51CAD00124E52
:1008F000AF5903261E40B5000F26AE40B743A026D1
:10090000F605B04200D166E70E4EB0420BD00E4E57
:10091000B0420AD00D4EB04209D00D4EB04200D1C7
:1009200057E7062658E7012656E7022654E703262E
:1009300052E704BC9046F0BD0000014000040140B5
:10094000001002400004005000080050000C00504D
:10095000001C0050002A01D1816270478161FCE7D0
:1009600010B5041E59D04123C35C002B43D0412352
:100970002422E2542268136801218B431360226809
:10098000274B61680B4013612268936825490B402F
:100990009360E368012B34D0226884231B02A16892
:1009A0000B439360E368022B32D0226851681E4BE0
:1009B0000B4353602268D3681A490B40D360236904
:1009C00062691343A269120221681343CB60226853
:1009D000E369216A0B4313602268136801210B430A
:1009E00013600023636441221F31A1542363013249
:1009F000A354002010BD40330022C25401F036FE43
:100A0000B5E7226880231B02A1680B439360C9E706
:100A10002368802212015A60C7E70120EAE7C04636
:100A2000FFFFFFF0FF7FFFFF00800002F0B54123D2
:100A3000C35C202B20D12033C35C012B1ED040246B
:100A40000122025541252423435506683368934308
:100A50003360066833680A4F3B403360066833688A
:100A60001943316001680B6813430B602023435521
:100A700000230355002000E00220F0BD0220FCE727
:100A8000FFEFFFFFF0B54123C35C202B1ED12033C5
:100A9000C35C012B1CD04024012202554125242394
:100AA0004355066833689343336006683368094FDB
:100AB0003B4009021943316001680B6813430B6026
:100AC0002023435500230355002000E00220F0BD01
:100AD0000220FCE7FFF0FFFF10B5264BD9680C237E
:100AE0000B40082B42D00C2B11D0042B09D0214BEA
:100AF0005A68520B072313400133802000029840AC
:100B000010BD1C4B1B68DB0632D51B48F8E78A0C6E
:100B10000F231340194AD05C890D03221140013183
:100B2000144BDB68DB030DD4124B1B68DB0613D5BB
:100B30004201121A93019B1ADB001B181802FFF7DF
:100B4000E3FADDE74201121A93019B1ADB001B183E
:100B50005802FFF7D9FAD3E74201121A93019B1A00
:100B6000DB001B189802FFF7CFFAC9E70448C7E774
:100B70000448C5E70010024000093D00A82A00080B
:100B800000127A000024F400F0B583B0041E00D1F6
:100B900097E2CA4BDA680C251540DA68802676029F
:100BA00016400368DB0736D5082D2CD00C2D28D035
:100BB00063688022520293424DD0A022D202934217
:100BC00050D0BE4B1A68BE490A401A601A6880218C
:100BD00049020A400192019A1A68BA490A401A6009
:100BE0006368002B4AD0FFF763FC0700B34B1B6818
:100BF0009B0310D4FFF75CFCC01B6428F6D90320CC
:100C000060E2002ED4D0AD4B1B689B0303D5636814
:100C1000002B00D158E223689B0764D5E368042DBC
:100C20003CD00C2D38D0002B00D1AEE0A3490A688F
:100C30000920824313430B60FFF73AFC06009F4BE9
:100C40001B685B0700D597E0FFF732FC801B02288A
:100C5000F5D9032036E2994A116880235B020B43E1
:100C60001360BDE7954B19688022D2020A431A60CF
:100C70001968802252020A431A60B1E7FFF718FC94
:100C800007008E4B1B689B03C5D5FFF711FCC01BEB
:100C90006428F6D9032015E2002EC4D1874A1268D1
:100CA000520702D5002B00D110E2844E72688649AB
:100CB0000A40216909020A437260326809218A43A5
:100CC00013433360FFF708FFF26812090F23134044
:100CD0007E4AD35CD8407E4B18600020FFF7B4FBFF
:100CE000002800D0EEE12368DB062CD5002D5FD173
:100CF000724B1B689B0503D5E369002B00D1E7E12C
:100D00006E4A536873490B40616A0B4353605368E2
:100D10001B021B0A216A09060B435360636A590BC5
:100D2000013180231B028B40D16809090F220A4040
:100D300066498A5CD340664A13600020FFF784FB53
:100D4000002800D0BEE123681B077DD56369002B16
:100D500067D05A4A136D01210B431365FFF7A8FBB7
:100D60000600564B1B6D9B076ED4FFF7A1FB801B43
:100D70000228F6D90320A5E150494B68524A134096
:100D80002269120213434B60ADE74C4A13680121FC
:100D90008B431360FFF78CFB0600484B1B685B0717
:100DA000A1D5FFF785FB801B0228F6D9032089E136
:100DB000E369002B22D0414A116880235B000B437A
:100DC0001360FFF775FB06003C4B1B689B0506D4C0
:100DD000FFF76EFB801B0228F6D9032072E1374A29
:100DE00053683C490B40616A0B43536053681B02D4
:100DF0001B0A216A09060B435360A4E72F4A1368B4
:100E000035490B401360FFF753FB06002B4B1B6863
:100E10009B0598D5FFF74CFB801B0228F6D90320D1
:100E200050E1264A136D01218B431365FFF740FB08
:100E30000600224B1B6D9B0706D5FFF739FB801B75
:100E40000228F6D903203DE123685B0700D48CE03B
:100E50001A4B9B6BDB001BD4184A916B80235B05FC
:100E60000B43936301261D4B1B68DB0512D5A3685A
:100E700080225200934235D0002B4BD10F4B1A6D7C
:100E800015490A401A651A6D15490A401A652FE07E
:100E90000026E8E7114A116880235B000B431360CA
:100EA000FFF706FB07000D4B1B68DB05DFD4FFF7E0
:100EB000FFFAC01B6428F6D9032003E100100240AA
:100EC000FFFFFEFFFFFFFBFFFFE0FFFFB42A00086C
:100ED00000000020FF1FFFFFFFFEFFFF007000402B
:100EE000FFFBFFFF7E4A116D80235B000B43136500
:100EF000A368002B28D0FFF7DBFA0700784B1B6DA7
:100F00009B0530D4FFF7D4FAC01B764B9842F5D935
:100F10000320D7E0A022D200934209D0704B1A6D73
:100F200071490A401A651A6D70490A401A65DFE76F
:100F30006B4B196D013AFF3A0A431A65196D80220D
:100F400052000A431A65D3E7FFF7B2FA0700644B71
:100F50001B6D9B0507D5FFF7ABFAC01B614B984291
:100F6000F5D90320AEE0012E21D023689B063CD5A5
:100F7000A369002B21D05A4B996801200143996045
:100F80005A6B02435A635A4A116A80239B010B43EE
:100F90001362FFF78DFA0600514B9B689B0724D420
:100FA000FFF786FA801B0228F6D903208AE04C4A14
:100FB000936B50490B409363D7E7494A93680121EB
:100FC0008B4393604A4A136A4B490B401362FFF705
:100FD0006FFA0600424B9B689B0706D5FFF768FA3D
:100FE000801B0228F6D903206CE0A36A002B00D1F5
:100FF00070E00C2D49D0022B12D0394A13683F49BA
:101000000B401360FFF754FA0400354B1B689B013B
:1010100039D5FFF74DFA001B0228F6D9032051E01D
:101020002F4A136835490B401360FFF741FA05005A
:101030002B4B1B689B0106D5FFF73AFA401B022891
:10104000F6D903203EE02649CB682D4A1340E26AD8
:10105000206B0243606B02431343CB600A6880231A
:101060005B0413430B60FFF723FA04001C4B1B685F
:101070009B0106D4FFF71CFA001B0228F6D90320B7
:1010800020E000201EE000201CE0012B24D0144BA7
:10109000DA6880235B021340E16A8B4201D00120B1
:1010A00010E0F0239B031340216B8B4201D0012001
:1010B00008E0C0231B041A40636B9A420ED0012043
:1010C00000E0012003B0F0BD0120FBE70120F9E7BB
:1010D0000120F7E70020F5E70120F3E70020F1E722
:1010E0000010024088130000FFFEFFFFFFFBFFFF20
:1010F00000000140FFFFFFEFFFDFFFFFFFFFFFFEEC
:10110000FFFF02FF70B504000D00002800D1BAE017
:101110005F4B1A68012313408B420BD25C490B686A
:10112000012293432B430B600B681A40AA4201D063
:101130000120A9E023689B0706D5564AD368F02111
:101140008B43A1680B43D3602368DB0764D56368D6
:10115000022B09D0032B29D0012B2DD04D4A126828
:10116000920506D401208FE04A4A1268920300D407
:101170008BE04849CA68032082431343CB60FFF7E2
:1011800097F906006368022B1CD0032B28D0012B93
:1011900034D0404BDB680C221A423DD0FFF788F96F
:1011A000801B3D4B9842F4D903206DE0394A126808
:1011B0009201DED4012067E0364A12685207D8D483
:1011C000012061E0334BDA680C231340082B23D055
:1011D000FFF76EF9801B304B9842F3D9032053E0A0
:1011E0002C4BDA680C2313400C2B15D0FFF760F959
:1011F000801B294B9842F3D9032045E0254BDA6840
:101200000C231340042B07D0FFF752F9801B224B0D
:101210009842F3D9032037E01D4B1A68012313408D
:10122000AB420BD91A490B68012293432B430B6045
:101230000B681A40AA4201D0012025E023685B0711
:1012400006D5144AD36815490B40E1680B43D360B7
:1012500023681B0707D50F49CB68114A1340226941
:10126000D2001343CB60FFF737FC0A4BDA68120950
:101270000F2313400B4AD35CD8400B4B186000205F
:10128000FFF7E2F800E0012070BD0120FCE7C04656
:10129000002002400010024088130000FFF8FFFF0A
:1012A000FFC7FFFFB42A000800000020014B1868A8
:1012B0007047C0460000002010B5FFF7F7FF044B51
:1012C000DA68120A07231340024AD35CD84010BDE3
:1012D00000100240C42A000810B5FFF7E7FF044BD6
:1012E000DA68D20A07231340024AD35CD84010BD03
:1012F00000100240C42A000870B5040082231B01BC
:1013000002681A425AD0704B9B6BDB0000D593E009
:101310006D4A916B80235B050B43936301256B4BF7
:101320001B68DB0500D489E0674B1A68C0239B0368
:101330001A4061680B40934200D194E0C0239B02A5
:101340000A001A409A4200D195E05F4B1B6DC02203
:10135000920213401FD01140994202D02268920697
:1013600008D4C0229202A1680A409A4213D023688E
:101370001B0510D5544B186D554A02401E6D802137
:10138000090331431965196D524E314019651A65CB
:10139000C30500D576E06368C022920219001140AF
:1013A000914200D17EE048490B6DC02292026068F4
:1013B000024013430B65012D00D17DE02368DB075C
:1013C00006D5414AD36C03218B43E1680B43D364B8
:1013D00023689B0706D53C4AD36C0C218B432169BB
:1013E0000B43D36423685B0706D5374AD36C3A496D
:1013F0000B4061690B43D36423681B0706D5324A4F
:10140000D36C36490B40A1690B43D36423685B0658
:1014100006D52D4AD36C32490B40216A0B43D36465
:1014200023681B064ED5284AD36C2E490B40E16930
:101430000B43D364002070BD002570E7234A116878
:1014400080235B000B431360FFF732F806001F4B4D
:101450001B68DB0500D567E7FFF72AF8801B6428C7
:10146000F5D90320E7E7C0239B03A068034093421C
:1014700000D063E769E7144B1B689B0300D464E763
:101480000120D8E7FFF714F806000F4B1B6D9B05F2
:1014900000D580E7FFF70CF8801B134B9842F4D976
:1014A0000320C8E708490A6810480240C0208003AA
:1014B000034013430B6076E70A008B6B0C490B402B
:1014C00093637BE70020B6E7001002400070004005
:1014D000FFFFFCFFFFFFF7FFFFF3FFFFFFCFFFFF63
:1014E000FFFFFFFBFFFFF3FF88130000FFFFCFFFAD
:1014F000FFFFFFEF10B5041E3BD000238362513382
:10150000C35C002B2FD051220223A35421680B6807
:10151000402083430B606368A1680B43E1680B4381
:1015200021690B4361690B4380218900A069014057
:101530000B43E1690B43216A0B432168A06A034313
:101540000B60618B04230B402168606A03434B608E
:101550002168CB6908480340CB61002363650133F0
:10156000A354002010BD50330022C25401F0B0F843
:10157000C9E70120F6E7C046FFF7FFFF10B50400FA
:101580000023002000E00133072B08D899000F2228
:101590008A401442F7D001229A401043F3E710BD6D
:1015A00070B5041E4ED03C23C35C002B3DD03C23C1
:1015B0000222E2542368013A1A60206802686368D4
:1015C000A1680B43216949040B4361690B43A1697D
:1015D0000B43E1690B43616A0B43A16A0B4313435D
:1015E0000360237B012B26D0236B626B1343A26B1A
:1015F00013432268DB4313612268236B616B0B4347
:1016000093622368A26B1A622568206BFFF7B6FF0E
:10161000286321684B68032293434B6023689A60D8
:101620003C23023AE254002070BD3D330022C254F4
:1016300001F0ACF8BBE72268116880235B020B4322
:101640001360D1E70120EFE702681368C0218B43E4
:1016500013602023436770470268136806490B40F4
:101660001360026893682331FF318B43936020231A
:101670008367002303667047DFFEFFFF10B5040099
:10168000806F202851D1002951D0002A51D08023C9
:101690005B01A068984238D07023E35C012B4AD0EC
:1016A00070230120E0546165183BE2520023E36798
:1016B0002233A367E36E002B13D02049D962E36E77
:1016C0001F491963E36E1F495963E36E0021996353
:1016D000216824311300626DE06EFEF7B7FF002829
:1016E0001AD170230022E2542268116890330B4310
:1016F00013602268936801210B439360226893680A
:101700003F310B439360002010E02369002BC3D1CD
:10171000CB07C1D5012009E01023E3676033002225
:10172000E254503B6367012000E0022010BD01201D
:10173000FCE70120FAE70220F8E7C046D5170008C9
:101740001B1800082718000870B50400416F856F4A
:1017500003689A68120601D5212907D023689A6880
:10176000520634D5222D19D0002031E09A685F311D
:101770008A439A60806E002803D0FEF7A2FF0028FB
:1017800003D12000FFF760FFE8E7A06EFFF71AF82B
:101790002028F6D11023E3671D3819E09A6840210C
:1017A0008A439A60E06E002803D0FEF78AFF002883
:1017B00004D12000FFF750FF002009E0E06EFFF7A2
:1017C00001F82028F5D11023E3671D3800E0002040
:1017D00070BD704710B5836A02681268920614D40F
:1017E0005A220021995219680A680A4802400A6080
:1017F00019688A680330FF3082438A6019688A68F2
:101800003F3082438A6020229A671800FFF7E1FF89
:1018100010BDC046FFFEFFFF704710B5806AFFF79E
:10182000FBFF10BD704770B5846A626FA56F2368B7
:101830009B681B0601D5212A0DD023689B685B0697
:1018400001D5222D0ED0E36F10221343E367200051
:10185000FFF7E8FF70BD52230022E2522000FFF79D
:10186000F3FEEAE75A230022E2522000FFF7F4FEDB
:10187000E9E70000D0B504000168836802691343FA
:1018800042691343C26913430A68C04802401343C4
:101890000B6022685368BE490B40E1680B435360FC
:1018A000A1692268BB4B9A4201D0236A194393680D
:1018B000B94803400B4393602268B84B9A4216D054
:1018C000B74B9A4227D0B34B9A4239D01023B14933
:1018D0008A4257D080221202E169914200D18CE005
:1018E000082B00D949E19B00AE4AD3589F46AE4B26
:1018F000D96C03230B40012B09D0002B05D0022B00
:101900003AD0032B05D01023E1E70123DFE70423BE
:10191000DDE70823DBE7A44BD96C0C230B40042B39
:101920000AD005D9082B29D00C2B07D10823CEE7E4
:10193000002B03D10023CAE70423C8E71023C6E71E
:10194000994BDB6CC02109010B408021C9008B42FF
:101950000ED009D9802109018B4211D0C021090183
:101960008B4207D10823B2E7002B03D10023AEE757
:101970000423ACE71023AAE70223A8E70223A6E783
:101980000223A4E7022B2DD007D9042B30D0082B3B
:1019900000D0F5E08020000207E0002B00D0EFE04F
:1019A000FFF78AFC002800D1ECE0626853009B1826
:1019B000834200D9E8E01303834200D206E1070E18
:1019C000060250080021801979410023FEF728FC07
:1019D000764BC218764B9A4200D9F9E02368D8605A
:1019E000002085E0704B1B68DB0604D47148DCE7FF
:1019F000FFF772F8D6E77048D7E7082B62D89B004C
:101A00006E4AD3589F46FFF757FC400063685B0857
:101A1000C0186168FEF778FB03041B0C00206849BE
:101A20001A00103A8A4200D9D4E00F2219009143DB
:101A30005B08083A13400B432268D36058E0FFF775
:101A40004BFC400063685B08C0186168FEF75CFBF4
:101A500003041B0C0020E2E7534B1B68DB060BD58D
:101A600063685808574B9C4660446168FEF74CFB1E
:101A700003041B0C0020D2E763685808524B9C46B5
:101A800060446168FEF740FB03041B0C0020C6E7BE
:101A9000FFF722F8400063685B08C0186168FEF732
:101AA00033FB03041B0C0020B9E76368580880234C
:101AB0005B029C4660446168FEF726FB03041B0C36
:101AC0000020ACE701200023A9E7FFF7F5FB6368DE
:101AD0005B08C0186168FEF717FB03041B0C0020AD
:101AE00037491A00103A8A4200D975E02268D3605B
:101AF000002323666366D0BDFFF7EEFB63685B08D7
:101B0000C0186168FEF700FB03041B0C0020E7E728
:101B1000254B1B68DB060BD563685808264B9C4693
:101B200060446168FEF7F0FA03041B0C0020D7E75D
:101B3000636858081F4B9C4660446168FEF7E4FAEE
:101B400003041B0C0020CBE7FEF7C6FF63685B08AD
:101B5000C0186168FEF7D8FA03041B0C0020BFE729
:101B60006368580880231B029C4660446168FEF746
:101B7000CBFA03041B0C0020B2E701200023AFE7DF
:101B80000120B5E70020B3E70120B1E7F369FFEFDB
:101B9000FFCFFFFF00480040FFF4FFFF0038014087
:101BA00000440040602A00080010024000FDFFFFD2
:101BB000FFFC0F000024F40000093D00842A000807
:101BC000EFFF000000127A000048E80101208FE7D3
:101BD00001208DE701208BE7012089E7436ADB07BD
:101BE00006D5026853682C490B40816A0B43536049
:101BF000436A9B0706D50268536828490B40C16AAF
:101C00000B435360436A5B0706D502685368244957
:101C10000B40016B0B435360436A1B0706D50268F8
:101C2000536820490B40416B0B435360436ADB060A
:101C300006D5026893681C490B40816B0B43936087
:101C4000436A9B0606D50268936818490B40C16B2E
:101C50000B439360436A5B060BD5026853681449D3
:101C60000B40016C0B43536080235B03026C9A4270
:101C70000AD0436A1B0606D5026853680D490B401B
:101C8000816C0B4353607047026853680A490B40EC
:101C9000416C0B435360ECE7FFFFFDFFFFFFFEFFCE
:101CA000FFFFFBFFFF7FFFFFFFEFFFFFFFDFFFFFF8
:101CB000FFFFEFFFFFFFF7FFFFFF9FFFF0B5C646F7
:101CC00000B506000C0017009846069D3368DB69D6
:101CD00023401B1B5A425341BB421CD16B1CF5D005
:101CE000FEF7E6FB4346C01AA84201D8002DEDD10D
:101CF000326813680A490B40136032689368A33155
:101D0000FF318B43936020237367B3675033002206
:101D1000F254032000E0002004BC9046F0BDC04611
:101D20005FFEFFFFF0B585B004000E0017001D0038
:101D3000436F202B5FD1002960D0002A60D0802320
:101D40005B0182689A4218D07023E35C012B59D062
:101D500070230122E2540023E36721336367FEF717
:101D6000A7FB03905023E7520233E75280235B0125
:101D7000A2689A4208D0002716E00369002BE3D13D
:101D8000CB07E1D5012037E02369002B21D00027C4
:101D90000AE03B882268DB05DB0D936202375222A2
:101DA000A35A013B9BB2A3525223E35A9BB2002B8E
:101DB00012D00095039B002280212000FFF77EFFB8
:101DC000002821D1002EE4D0327823689A620136AF
:101DD000E5E737000026E7E70095039B0022402156
:101DE0002000FFF76BFF002810D1202363675033DA
:101DF0000022E25400E0022005B0F0BD0120FBE724
:101E00000120F9E70220F7E70320F5E70320F3E7D5
:101E100030B583B004000023C367FEF749FB05001B
:101E200023681B681B070CD423681B685B0715D449
:101E300020236367A36750330022E254002003B0DD
:101E400030BD80210C4B0093030000228903200049
:101E5000FFF734FF0028E7D00320F0E78021064B8E
:101E600000932B000022C9032000FFF727FF002862
:101E7000DED00320E3E7C046FFFFFF0110B5041EDC
:101E80002ED0436F002B21D0242363672268136870
:101E900001218B4313602000FFF7ECFC012814D0D4
:101EA000636A002B18D1226853680E490B405360B7
:101EB000226893682A218B4393602268136829392A
:101EC0000B4313602000FFF7A3FF10BD7033002207
:101ED000C25400F0BBFCD7E72000FFF77FFEE2E72B
:101EE0000120F2E7FFB7FFFF10B50400FEF7A4FAE8
:101EF000002300E00133421E9A4208DDE25C4F2AD3
:101F0000F8D1E21852784B2AF4D1012000E00020E9
:101F100010BD0000F0B593B000AF04000D00BA6032
:101F20007B600800FEF788FA461C0830C008C00035
:101F30006B461B1A9D46FB602900684600F07BFD3E
:101F40006846FEF779FA68440222194900F054FD08
:101F500000237B612E220021083310203818C0187E
:101F600000F053FD32221423F9182000FFF786FBFE
:101F7000002803D00020BD4613B0F0BDB2B21E232E
:101F8000F9682000FFF7CEFE002801D00020F2E71C
:101F90007868FEF793FA2000FFF7D6FBBB68012BA9
:101FA00001D00120E7E71333F818FFF79DFFE2E7C0
:101FB000CC2A0008F0B583B007000E00150001938D
:101FC0000024042C09DC019B2A0031003800FFF7B3
:101FD000A1FF012802D00134F3E7002003B0F0BDD7
:101FE00010B50400C82301225349FFF7E3FF01287D
:101FF00001D0002010BDC823012250492000FFF766
:10200000D9FF012801D00020F4E7C82301224C4960
:102010002000FFF7CFFF012801D00020EAE7C82306
:10202000012248492000FFF7C5FF012801D0002008
:10203000E0E7C823012244492000FFF7BBFF012845
:1020400001D00020D6E7C823012240492000FFF735
:10205000B1FF012801D00020CCE7C82301223C4970
:102060002000FFF7A7FF012801D00020C2E7C82306
:10207000012238492000FFF79DFF01284AD1C823DB
:10208000012235492000FFF795FF012844D1C823DC
:10209000012232492000FFF78DFF01283ED1C823DD
:1020A00001222F492000FFF785FF012838D1C823DE
:1020B00001222C492000FFF77DFF012832D1C823DF
:1020C000012229492000FFF775FF01282CD1C823E0
:1020D000012226492000FFF76DFF012826D1C823E1
:1020E000012223492000FFF765FF012820D1C823E2
:1020F000012220492000FFF75DFF01281AD1C823E3
:1021000001221D492000FFF755FF012800D171E78A
:1021100000206FE700206DE700206BE7002069E7F3
:10212000002067E7002065E7002063E7002061E703
:1021300000205FE700205DE7D02A0008D42A0008CD
:10214000DC2A0008E82A0008F02A0008F82A00081B
:10215000002B0008082B0008182B0008242B00086F
:10216000302B00083C2B0008442B0008502B0008A3
:102170005C2B0008682B0008742B0008F0B591B0A8
:1021800000AF78600C0016000800FEF755F9851CBA
:102190000930C008C0006B461B1A9D463B602100F9
:1021A000684600F048FC6846FEF746F9684403229A
:1021B0001A4900F021FC0023FB602E220021083385
:1021C00008203818C01800F020FC32220C23F9181F
:1021D0007868FFF753FA002803D00020BD4611B0FD
:1021E000F0BDAAB21E2339687868FFF79BFD00286E
:1021F00011D13B7B002BFCD0C820FEF75FF978683B
:10220000FFF7A2FA012E01D00120E7E70C23F8180E
:10221000FFF76AFEE2E70020E0E7C0467C2B0008FB
:10222000F0B583B000AF04000E007A600800FEF73E
:1022300003F91130C008C0006B461B1A9D466D465D
:102240000A221549684600F0D7FB3100684600F0C5
:10225000E4FB6846FEF7F0F8684402220F4900F0FC
:10226000CBFB002600E00136042E0FDCC823002241
:1022700029002000FFF79EFE01280BD1012279687A
:102280002000FFF77BFF0128EDD100E00020BD46D4
:1022900003B0F0BD0020FAE7802B0008882B00086F
:1022A00070B504000D001600C82301221149FFF784
:1022B00081FE012801D0002070BDC82301220E49F3
:1022C0002000FFF777FE012801D00020F4E7C823A3
:1022D00001220A492000FFF76DFE012801D00020ED
:1022E000EAE7320029002000FFF79AFF0128E3D037
:1022F0000020E1E78C2B0008982B0008A42B000895
:10230000F0B5CE46474680B58BB01422002105A813
:1023100000F07BFB384BDA6A04263243DA62DA6A71
:1023200032400192019AD96A80221143D962D96A56
:102330000A400292029ADA6A01252A43DA62DA6ACC
:102340002A400392039ADA6A02273A43DA62DB6A86
:102350003B400493049B90235B00994600221900A4
:10236000A020C005FEF7F6FA244B9846002219007B
:102370002348FEF7EFFA80239B010593214B069338
:102380000024079405A92048FEF71EFA05951F4B67
:102390000693079405A9A020C005FEF715FA059736
:1023A0000694079405A9A020C005FEF70DFA0C239A
:1023B000059306970794093B0893099605A9A02061
:1023C000C005FEF701FA4B4605930695079408945D
:1023D00005A9A020C005FEF7F7F943460593069529
:1023E0000794089405A90648FEF7EEF90BB00CBC5B
:1023F00090469946F0BDC04600100240141C0000F3
:1024000000040050000011100008005000001210DD
:1024100010B50D4C0D4B23600D4B63600023A36082
:102420000122E26023616361A361E3612362200012
:10243000FEF796FA00212000FEF7F8FA00212000AE
:10244000FEF720FB10BDC0467C0000200054004079
:10245000BB7C700010B50B480B4B036082235B0004
:10246000436080231B0283600023C36003614361D8
:102470008361C3610362436283620733C362FFF710
:1024800039F810BD900100200030014010B50C4813
:102490000C4B036082235B00436000238360C360B6
:1024A00003614361802292008261C93AFF3AC261AE
:1024B0000362436283620733C362FFF71BF810BDF8
:1024C000240000200038004010B51048104B036075
:1024D00080235B05436080235B0483600023C3602B
:1024E000012202614361802292018261A022C261C5
:1024F000036243628362C362A132FF3202634363B9
:102500009023DB008363FFF74BF810BDE801002048
:102510000040024000B583B0094A116B0123194302
:102520001163126B13400193019B002200210A20CA
:10253000FDF7D2FF0A20FDF7FFFF03B000BDC04644
:102540000010024010B50948094B0360E1235B020B
:10255000436000238360C36003610C224261836196
:10256000C36103624362FFF789FC10BD10010020C4
:102570000038014010B59CB0382200210EA800F0B0
:1025800044FA1422002109A800F03FFA2422002175
:10259000684600F03AFA18490B68184A1A40802336
:1025A0001B0113430B6001230E93A023DB020F9347
:1025B0000223189380235B02199380235B031A93F1
:1025C00080231B041B930EA8FEF7DEFA0F2309934A
:1025D0000C3B0A9300240B940C940D94012109A840
:1025E000FEF790FD09230093039406946846FEF7D6
:1025F00083FE1CB010BDC04600700040FFE7FFFF27
:1026000010B5FDF739FFFFF7B5FFFFF779FEFFF7CC
:10261000FFFEFFF71FFFFFF739FFFFF755FFFFF73B
:1026200079FFFFF78FFF0648FFF7DAFC012800D09B
:10263000FEE7044A04490248FFF732FEF8E7C046C5
:1026400010010020B02B0008C82B000870470000C4
:10265000054B5A6B01210A435A63996B802252053C
:102660000A439A637047C0460010024010B586B016
:1026700004001422002101A800F0C7F92268114BC0
:102680009A4201D006B010BD0F4CE26A02231A43F1
:10269000E262E26A13400093009BC0239B00019317
:1026A00012230293113B03930233049301330593E6
:1026B00001A90648FEF788F8A26B80239B03134309
:1026C000A363DFE700540040001002400004005004
:1026D00010B588B004001422002103A800F095F979
:1026E0002368264A934204D0254A93422CD008B04E
:1026F00010BD244B596B802252010A435A63D96A98
:1027000001221143D962D96A0A400092009ADA6A1A
:1027100002242243DA62DB6A23400193019B802377
:102720001B0203930494A02003A9C005FEF74CF8F4
:10273000282303930494002305930693079303A986
:102740001148FEF741F8D2E70E4B996B8022D20177
:102750000A439A63D96A02221143D962DB6A1340A1
:102760000293029BE0231B0203930492032306932C
:1027700003A90548FEF728F8B9E7C0460030014034
:10278000003800400010024000040050F0B5CE4672
:1027900000B588B004001422002103A800F035F928
:1027A0002268274B9A4203D008B004BC9146F0BD82
:1027B000244B196B80204002014319631A6B0240BD
:1027C0000092009ADA6A01273A43DA62DA6A3A40FA
:1027D0000192019ADA6A02252A43DA62DB6A2B4007
:1027E0000293029B4023039304950326079603A9B3
:1027F000A020C005FDF7E8FF802303936E3B9946B8
:102800000493002405940694079603A9A020C0050C
:10281000FDF7DAFF039704950594069407960A4F8F
:1028200003A93800FDF7D0FF03954B4604930594A8
:102830000694079603A93800FDF7C6FFB4E7C04623
:1028400000400240001002400004005030B587B044
:1028500004001422002101A800F0D7F81C4B2268C4
:102860009A4201D007B030BD1A4B596B8022D20179
:102870000A435A63D96A01221143D962DB6A1A40BA
:102880000092009BF0235B01019302230293032536
:10289000049502330593A02001A9C005FDF794FF1C
:1028A0000D480E4B0360456000238360C3608022A7
:1028B000026143618361C3610362FDF77BFE00280F
:1028C00003D1054BE3669C62CCE7FFF7BFFEF8E758
:1028D0000038014000100240C800002030000240D3
:1028E0007047FEE77047704710B5FDF7D9FD10BD82
:1028F00010B50248FDF709FF10BDC046C800002012
:10290000104B1968802252000A431A60DA680E4997
:102910000A40DA601A680D490A401A609A68012173
:102920008A439A601A680A490A401A60DA680949B3
:102930000A40DA6000221A61074B802212059A6071
:102940007047C046001002400C40FF88F6FFF6FEBC
:10295000FFFFFBFFFFFF02FF00ED00E00D48854693
:10296000002103E00C4B5B58435004310B480C4BE7
:1029700042189A42F6D30B4A02E000231360043255
:10298000094B9A42F9D3FFF7BBFF00F011F8FFF7AC
:1029900037FEFEE700200020E82B000800000020A2
:1029A00004000020040000202C020020FEE70000AC
:1029B00070B500260C4D0D4C641BA410A64209D125
:1029C000002600F041F80A4D0A4C641BA410A642F0
:1029D00005D170BDB300EB5898470136EEE7B30060
:1029E000EB5898470136F2E7E02B0008E02B00088F
:1029F000E02B0008E42B0008002310B59A4200D118
:102A000010BDCC5CC4540133F8E7030012189342A4
:102A100000D1704719700133F9E7020010B513783F
:102A2000541C002B05D1CC5CD4540133002CFAD1BA
:102A300010BD2200F3E703000A7801311A70013358
:102A4000002AF9D170470000F8B5C046F8BC08BCB0
:102A50009E467047F8B5C046F8BC08BC9E46704715
:102A6000CA1A0008F81A0008101B00087A1B000890
:102A7000481B00087A1B00087A1B00087A1B000814
:102A8000601B0008061A00083E1A0008581A0008C1
:102A9000C41A0008901A0008C41A0008C41A0008D2
:102AA000C41A0008AA1A0008030406080C1018200B
:102AB00030000000000000000000000001020304DC
:102AC0000607080900000000010203040D000000D1
:102AD00041540000415445300000000041542B4354
:102AE0004D45453D3200000041542B43474D4900C0
:102AF00041542B43474D4D0041542B43474D520009
:102B0000415449390000000041542B434C434B3D94
:102B1000225343222C32000041542B4350494E3F54
:102B20000000000041542B555053563F0000000058
:102B300041542B43434C4B3F0000000041542B4376
:102B400047534E0041542B434F50533F0000000069
:102B500041542B435245473D3200000041542B4322
:102B60005245473F0000000041542B435245473D2A
:102B70003000000041542B43535100001A0D000057
:102B800041542B434D47533D2200000041542B43F9
:102B90005343413F0000000041542B434E4D493FF9
:102BA0000000000041542B434D47463D31000000DA
:102BB00048692C20746869732069732074686520E3
:102BC00053544D33324C30002B313230363733349E
:082BD000363533380000000027
:082BD80088D6FF7F0100000018
:042BE000E900000800
:042BE400C100000824
:042BE80000002000C9
:040000050800295D69
:00000001FF
