:020000040800F2
:1000000000200020B1430008DD420008DF42000864
:1000100000000000000000000000000000000000E0
:10002000000000000000000000000000E1420008A5
:100030000000000000000000E3420008E542000864
:10004000014400080144000801440008014400087C
:10005000014400080144000801440008ED42000882
:10006000014400080144000801440008F942000866
:100070000144000801440008000000000943000892
:100080000000000001440008000000000000000023
:100090000144000800000000014400080144000879
:1000A000014400080144000801440008014400081C
:1000B000014400080144000801440008014400080C
:1000C00010B5064C2378002B07D1054B002B02D02E
:1000D000044800E000BF0123237010BD6800002029
:1000E00000000000784C0008044B10B5002B03D032
:1000F0000349044800E000BF10BDC04600000000F6
:100100006C000020784C0008002243088B4274D316
:1001100003098B425FD3030A8B4244D3030B8B4208
:1001200028D3030C8B420DD3FF22090212BA030C11
:100130008B4202D31212090265D0030B8B4219D3F2
:1001400000E0090AC30B8B4201D3CB03C01A524112
:10015000830B8B4201D38B03C01A5241430B8B425A
:1001600001D34B03C01A5241030B8B4201D30B0343
:10017000C01A5241C30A8B4201D3CB02C01A52416A
:10018000830A8B4201D38B02C01A5241430A8B422D
:1001900001D34B02C01A5241030A8B4201D30B0216
:1001A000C01A5241CDD2C3098B4201D3CB01C01A30
:1001B000524183098B4201D38B01C01A524143093A
:1001C0008B4201D34B01C01A524103098B4201D328
:1001D0000B01C01A5241C3088B4201D3CB00C01A95
:1001E000524183088B4201D38B00C01A524143080D
:1001F0008B4201D34B00C01A5241411A00D2014632
:10020000524110467047FFE701B5002000F006F8A4
:1002100002BDC0460029F7D076E770477047C04658
:10022000002B11D1002A0FD1002900D1002802D0C3
:100230000021C943081C07B4024802A140180290DB
:1002400003BDC046D9FFFFFF03B4684601B502985D
:1002500000F006F8019B9E4602B00CBC7047C046F9
:10026000F0B54F464646D646C0B5040082B00D00F4
:10027000914698468B422FD82CD04146484600F0F4
:10028000B1F829000600200000F0ACF8331A9C46B3
:10029000203B9A4600D576E04B46524693401F00DD
:1002A0004B46624693401E00AF4228D825D05346A5
:1002B000A41BBD41002B00DA7BE00022002300924A
:1002C00001930123524693400193012362469340D8
:1002D000009318E08242D0D90022002300920193BB
:1002E0000A9B002B01D01C605D600098019902B050
:1002F0001CBC90469946A246F0BDA342D7D9002225
:100300000023009201936346002BE9D0FB07984637
:10031000414672080A437B0866460EE0AB4201D1B3
:10032000A2420CD8A41A9D41012024196D4100213C
:10033000013E24184D41002E06D0AB42EED9013EBD
:1003400024196D41002EF8D10098019953460019E7
:100350006941002B23DB2B005246D3402A00644620
:10036000E2401C0053461500002B2DDB26005746AB
:10037000BE40330026006746BE403200801A9941D5
:1003800000900191ACE7624620239B1A4A46DA406E
:100390006146130042468A4017001F4380E76246C9
:1003A00020239B1A2A0066469A402300F3401343F9
:1003B000D4E76246202300219B1A0022009101927B
:1003C0000122DA40019280E72023624626009B1A30
:1003D000DE402F00B0466646B74046463B003343FA
:1003E000C8E7C04610B5002903D100F007F8203057
:1003F00002E0081C00F002F810BDC0461C210123D9
:100400001B04984201D3000C10391B0A984201D3F7
:10041000000A08391B09984201D30009043902A2D5
:10042000105C40187047C04604030202010101013C
:1004300000000000000000000023C25C0133002A1D
:10044000FBD1581E7047000010B50400094B186816
:10045000FA218900FFF758FE00F086F8002801D045
:10046000012010BD013000222100404200F034F88C
:100470000020F6E70000002010B5084A136840216C
:100480000B4313600020FFF7DFFF041E02D001249E
:10049000200010BD03F02AFEFAE7C046002002400B
:1004A000024A1368013313607047C0469C00002065
:1004B000014B18687047C0469C00002070B50400CE
:1004C000FFF7F6FF0500631C00D00134FFF7F0FFD3
:1004D000401BA042FAD370BD70B5002811DB840820
:1004E000134DC034A400625903231840C000FC33EC
:1004F0001E008640B24389010B4083401343635181
:1005000070BDC0B20F220240083A92080632920033
:10051000084BD3185D6803242040C000FF2214005C
:100520008440A54389010A4082402A435A60E7E794
:1005300000E100E000ED00E01F2318401E3B834077
:10054000014A13607047C04600E100E0BFF34F8FDF
:10055000034B044ADA60BFF34F8FC046FDE7C04645
:1005600000ED00E00400FA0501380A4B98420FD86C
:10057000094A50600948036A1B021B0AC021090688
:100580000B4303620023936007331360002070471E
:100590000120FCE7FFFFFF0010E000E000ED00E0BD
:1005A00070B5041E3DD005681F4BE8181421FFF7F5
:1005B000ABFD800060641D4B236425230222E254BE
:1005C0002B681B4A1A40A368E1680B4321690B435F
:1005D00061690B43A1690B43E1690B43216A0B433A
:1005E00013432B608023DB01A2689A4210D0114B89
:1005F00019681C22656C15400F20A84081431960C2
:100600001968606C02406068904002000A431A60FA
:100610000023E36325220121A154013AA3540020C1
:1006200070BD0120FCE7C046F8FFFDBF000002409E
:100630000F80FFFFA800024070B5036C19680468C2
:1006400025681C23426C134004229A40114214D0A6
:100650006A0712D523689B0603D4236804229343B8
:1006600023601C22436C1A40016C042393404B60AE
:10067000036B002B00D0984770BD02229A401142B4
:100680001AD0AA0718D523689B0606D423680A2225
:10069000934323602523093AC2541C22436C1A4019
:1006A000016C022393404B6024230022C254C36A8E
:1006B000002BE1D09847DFE708229A401142DBD0B7
:1006C0002B07D9D523680E22934323600E32436C47
:1006D0001A40016C01231C0094404C60C363252226
:1006E000835423330022C254436B002BC4D0984759
:1006F000C2E70000F0B5C64600B5002338E0052685
:1007000000E00026AE4035003D430234A400554EC3
:10071000A551554C25684246D4432E0026404A68D0
:10072000D20302D5424615432E004F4D2E606D6810
:100730002E0026404A68920302D5424615432E00F9
:10074000494D6E60AD682E0026404A68D20202D53F
:10075000424615432E00444DAE60ED682C404A6879
:10076000920202D542462A4314003F4AD460013324
:100770000A681400DC4072D001249C40224090465C
:10078000F5D04D68022D01D0122D0ED1DD080835AF
:10079000AD002F5807261E40B6000F22B2409743E7
:1007A0000A69B24016003E432E504D686E1E012E5F
:1007B00003D9112D01D0122D12D185685F000326B7
:1007C000BE40B5432E00CD68BD40354385604568C9
:1007D000A5434A681609012434409C402C434460D8
:1007E00007685E0003242500B540ED432F404A68AA
:1007F0001440B4403C430460C46825408C68B44055
:100800002C43C4604A68D200B1D5184D6C6B0126E8
:1008100034436C639C08A51CAD00124EAF590326EF
:100820001E40B5000F26AE40B743A026F605B042E5
:1008300000D166E70E4EB0420BD00E4EB0420AD049
:100840000D4EB04209D00D4EB04200D157E70626FA
:1008500058E7012656E7022654E7032652E704BC70
:100860009046F0BD0000014000040140001002402D
:100870000004005000080050000C0050001C005004
:10088000002A01D1816270478161FCE743695940C8
:100890004161704710B5054B5B69184200D110BD2E
:1008A000024B586103F05CFAF9E7C04600040140CE
:1008B00003689A69920701D500229A6203689A69CF
:1008C000D20703D49A6901210A439A617047000054
:1008D000F0B5059C05686868660D8027FF00374005
:1008E000054E3E43B0438905890D120411430B4365
:1008F000234303436B60F0BDFF63FF0370B5040047
:100900000E00150003689B69DB0619D523689A69F8
:10091000920617D4731CF9D0FFF7CAFD401BB042F2
:1009200001D8002EF2D1636C20221343636441236B
:10093000E25400232232A354023AA35401201AE0C5
:10094000002018E01022DA6123682025DD612000F4
:10095000FFF7AEFF2268536807490B405360636C92
:100960000422134363644123E55400233E32A3541D
:10097000023AA354012070BD00E800FE70B50400E7
:100980000D00160023689B699B071CD432002900C8
:100990002000FFF7B3FF002817D16B1CF2D0FFF740
:1009A00087FD801BA84201D8002DEBD1636C20226B
:1009B000134363644123E25400232232A354023AD6
:1009C000A354012000E0002070BD0120FCE7F8B531
:1009D00006000C0017001D0033689B6923401B1B99
:1009E0005A425341BB4216D16B1CF5D0FFF760FD54
:1009F000069BC01AA84201D8002DEDD1736C2022AD
:100A0000134373644123F25400232232B354023A55
:100A1000B354012000E00020F8BD000070B582B0A2
:100A2000040016001D008023EAB2184800905B0401
:100A30002000FFF74DFF079A06992000FFF79EFF61
:100A400000281ED1012D0ED12368F6B29E62079BAD
:100A50000093069B002280212000FFF7B8FF0028AA
:100A600010D001200EE02368320A9A62079A069994
:100A70002000FFF783FF002806D12368F6B29E62AC
:100A8000E5E7012002B070BD0120FBE700200080F7
:100A900070B582B0040016001D00DAB2174B009347
:100AA0000023FFF715FF079A06992000FFF766FF5E
:100AB00000281ED1012D0ED12368F6B29E62079B3D
:100AC0000093069B002240212000FFF780FF0028B2
:100AD00010D001200EE02368320A9A62079A069924
:100AE0002000FFF74BFF002806D12368F6B29E6274
:100AF000E5E7012002B070BD0120FBE70020008087
:100B000070B505000C0016002B689B699B061AD473
:100B1000320021002800FFF7F1FE002815D1FFF771
:100B2000C7FC801BA04201D8002CEDD16B6C2022A9
:100B300013436B644123EA5400232232AB54023A3C
:100B4000AB54012070BD0020FCE70120FAE7000053
:100B500010B5041E59D04123C35C002B43D0412360
:100B60002422E2542268136801218B431360226817
:100B7000274B61680B4013612268936825490B403D
:100B80009360E368012B34D0226884231B02A168A0
:100B90000B439360E368022B32D0226851681E4BEE
:100BA0000B4353602268D3681A490B40D360236912
:100BB00062691343A269120221681343CB60226861
:100BC000E369216A0B4313602268136801210B4318
:100BD00013600023636441221F31A1542363013257
:100BE000A354002010BD40330022C25403F08CFAFD
:100BF000B5E7226880231B02A1680B439360C9E715
:100C00002368802212015A60C7E70120EAE7C04644
:100C1000FFFFFFF0FF7FFFFF00800002F0B587B00D
:100C200005000391049205930CAB10CB1E88412361
:100C3000C35C202B00D0B3E0002C18D0002E16D0BF
:100C40004023C35C012B00D1ADE040230122C254FC
:100C5000FFF72EFC070080210090192301220902D2
:100C60002800FFF7B4FE002806D0012099E0802379
:100C70009B006B64012094E041232122EA5401335C
:100C80001F32EA5400236B646C626E856B630197BC
:100C90000E9B0093059B049A03992800FFF7BEFE64
:100CA00000280FD16B8D9BB2FF2B10D9FF232B8512
:100CB0007F3B002200925B04FF3203992800FFF77C
:100CC00007FE21E040230022EA54012069E06A8DFA
:100CD00092B22A858023D2B2002100919B0403990D
:100CE0002800FFF7F5FD0FE06A8D92B22A85802378
:100CF000D2B2002100919B0403992800FFF7E8FD80
:100D00006B8D9BB2002B34D03A000E992800FFF770
:100D100035FE002849D12B686A6A12789A626B6A9C
:100D200001336B626B8D013B9BB26B852B8D013B5D
:100D30009BB22B856A8D92B2002AE1D0002BDFD1C5
:100D400000970E9B002280212800FFF740FE00281C
:100D50002DD16B8D9BB2FF2BC6D9FF232B857F3BFB
:100D6000002200925B04FF3203992800FFF7B0FDD8
:100D7000C6E73A000E992800FFF7C2FE002818D1F6
:100D80002B682022DA6129684B680B4C23404B60AA
:100D90004123EA5400232232AB54023AAB5400E020
:100DA000022007B0F0BD0220FBE70120F9E7012097
:100DB000F7E70120F5E7C04600E800FEF0B587B090
:100DC00004000391049205930CAB20CB1F884123B0
:100DD000C35C202B00D0B5E0002D18D0002F16D01A
:100DE0004023C35C012B00D1AFE040230122C25459
:100DF000FFF75EFB06008021009019230122090203
:100E00002000FFF7E4FD002806D001209BE08023AE
:100E10009B006364012096E041232222E2540133C7
:100E20001E32E25400236364656267856363019642
:100E30000E9B0093059B049A03992000FFF728FE60
:100E400000280FD1638D9BB2FF2B10D9FF23238580
:100E50007F3B424A00925B04FF2203992000FFF788
:100E600037FD21E040230022E25401206BE0628D37
:100E700092B222858023D2B2384900919B04039913
:100E80002000FFF725FD0FE0628D92B222858023BE
:100E9000D2B2002100919B0403992000FFF718FDB6
:100EA000638D9BB2002B36D000960E9B002204214E
:100EB0002000FFF78CFD002849D123685B6A626A35
:100EC0001370636A01336362238D013B9BB22385F8
:100ED000628D013A92B26285628D92B2002ADFD0B1
:100EE000002BDDD100960E9B002280212000FFF711
:100EF0006EFD00282DD1638D9BB2FF2BC4D9FF233B
:100F000023857F3B002200925B04FF32039920007F
:100F1000FFF7DEFCC4E732000E992000FFF7F0FD7A
:100F2000002818D123682022DA6121684B680C4D13
:100F30002B404B604123E25400232232A354023A57
:100F4000A35400E0022007B0F0BD0220FBE701201F
:100F5000F9E70120F7E70120F5E7C046002400800B
:100F600000E800FEF0B54123C35C202B20D12033E4
:100F7000C35C012B1ED040240122025541252423AD
:100F800043550668336893433360066833680A4FF5
:100F90003B403360066833681943316001680B6871
:100FA00013430B602023435500230355002000E02A
:100FB0000220F0BD0220FCE7FFEFFFFFF0B5412368
:100FC000C35C202B1ED12033C35C012B1CD04024DA
:100FD0000122025541252423435506683368934373
:100FE000336006683368094F3B400902194331609A
:100FF00001680B6813430B602023435500230355FE
:10100000002000E00220F0BD0220FCE7FFF0FFFF1F
:1010100010B5264BD9680C230B40082B42D00C2B63
:1010200011D0042B09D0214B5A68520B07231340CF
:10103000013380200002984010BD1C4B1B68DB066A
:1010400032D51B48F8E78A0C0F231340194AD05CAD
:10105000890D032211400131144BDB68DB030DD4F1
:10106000124B1B68DB0613D54201121A93019B1A1F
:10107000DB001B181802FFF747F8DDE74201121AE0
:1010800093019B1ADB001B185802FFF73DF8D3E7CA
:101090004201121A93019B1ADB001B189802FFF7FA
:1010A00033F8C9E70448C7E70448C5E70010024021
:1010B00000093D00E44C000800127A000024F4000E
:1010C000F0B583B0041E00D197E2CA4BDA680C2554
:1010D0001540DA688026760216400368DB0736D5AD
:1010E000082D2CD00C2D28D0636880225202934208
:1010F0004DD0A022D202934250D0BE4B1A68BE49B6
:101100000A401A601A68802149020A400192019A35
:101110001A68BA490A401A606368002B4AD0FFF780
:10112000C7F90700B34B1B689B0310D4FFF7C0F946
:10113000C01B6428F6D9032060E2002ED4D0AD4B4A
:101140001B689B0303D56368002B00D158E223681A
:101150009B0764D5E368042D3CD00C2D38D0002BC0
:1011600000D1AEE0A3490A680920824313430B6013
:10117000FFF79EF906009F4B1B685B0700D597E0C1
:10118000FFF796F9801B0228F5D9032036E2994A29
:10119000116880235B020B431360BDE7954B196810
:1011A0008022D2020A431A601968802252020A433E
:1011B0001A60B1E7FFF77CF907008E4B1B689B03B1
:1011C000C5D5FFF775F9C01B6428F6D9032015E2D1
:1011D000002EC4D1874A1268520702D5002B00D1D5
:1011E00010E2844E726886490A40216909020A4366
:1011F0007260326809218A4313433360FFF708FFA6
:10120000F26812090F2313407E4AD35CD8407E4B0C
:1012100018600020FFF718F9002800D0EEE12368DD
:10122000DB062CD5002D5FD1724B1B689B0503D5C7
:10123000E369002B00D1E7E16E4A536873490B4024
:10124000616A0B43536053681B021B0A216A09063B
:101250000B435360636A590B013180231B028B409F
:10126000D16809090F220A4066498A5CD340664A60
:1012700013600020FFF7E8F8002800D0BEE12368E3
:101280001B077DD56369002B67D05A4A136D012176
:101290000B431365FFF70CF90600564B1B6D9B07BC
:1012A0006ED4FFF705F9801B0228F6D90320A5E1CB
:1012B00050494B68524A13402269120213434B6053
:1012C000ADE74C4A136801218B431360FFF7F0F838
:1012D0000600484B1B685B07A1D5FFF7E9F8801BA8
:1012E0000228F6D9032089E1E369002B22D0414A84
:1012F000116880235B000B431360FFF7D9F80600E9
:101300003C4B1B689B0506D4FFF7D2F8801B0228D4
:10131000F6D9032072E1374A53683C490B40616AB1
:101320000B43536053681B021B0A216A09060B43D7
:101330005360A4E72F4A136835490B401360FFF749
:10134000B7F806002B4B1B689B0598D5FFF7B0F844
:10135000801B0228F6D9032050E1264A136D012193
:101360008B431365FFF7A4F80600224B1B6D9B0708
:1013700006D5FFF79DF8801B0228F6D903203DE132
:1013800023685B0700D48CE01A4B9B6BDB001BD4FB
:10139000184A916B80235B050B43936301261D4B19
:1013A0001B68DB0512D5A36880225200934235D01A
:1013B000002B4BD10F4B1A6D15490A401A651A6D57
:1013C00015490A401A652FE00026E8E7114A11681E
:1013D00080235B000B431360FFF76AF807000D4B97
:1013E0001B68DB05DFD4FFF763F8C01B6428F6D960
:1013F000032003E100100240FFFFFEFFFFFFFBFFA1
:10140000FFE0FFFFF04C000800000020FF1FFFFF7F
:10141000FFFEFFFF00700040FFFBFFFF7E4A116DE3
:1014200080235B000B431365A368002B28D0FFF7D4
:101430003FF80700784B1B6D9B0530D4FFF738F859
:10144000C01B764B9842F5D90320D7E0A022D200EA
:10145000934209D0704B1A6D71490A401A651A6D92
:1014600070490A401A65DFE76B4B196D013AFF3A84
:101470000A431A65196D802252000A431A65D3E7A0
:10148000FFF716F80700644B1B6D9B0507D5FFF7A8
:101490000FF8C01B614B9842F5D90320AEE0012E36
:1014A00021D023689B063CD5A369002B21D05A4B41
:1014B00099680120014399605A6B02435A635A4A62
:1014C000116A80239B010B431362FEF7F1FF0600B4
:1014D000514B9B689B0724D4FEF7EAFF801B022830
:1014E000F6D903208AE04C4A936B50490B40936332
:1014F000D7E7494A936801218B4393604A4A136AAC
:101500004B490B401362FEF7D3FF0600424B9B682A
:101510009B0706D5FEF7CCFF801B0228F6D90320D7
:101520006CE0A36A002B00D170E00C2D49D0022B97
:1015300012D0394A13683F490B401360FEF7B8FFD9
:101540000400354B1B689B0139D5FEF7B1FF001B2A
:101550000228F6D9032051E02F4A136835490B4081
:101560001360FEF7A5FF05002B4B1B689B0106D5FA
:10157000FEF79EFF401B0228F6D903203EE02649D5
:10158000CB682D4A1340E26A206B0243606B024332
:101590001343CB600A6880235B0413430B60FEF7A0
:1015A00087FF04001C4B1B689B0106D4FEF780FFDD
:1015B000001B0228F6D9032020E000201EE00020B6
:1015C0001CE0012B24D0144BDA6880235B0213400B
:1015D000E16A8B4201D0012010E0F0239B0313400D
:1015E000216B8B4201D0012008E0C0231B041A406C
:1015F000636B9A420ED0012000E0012003B0F0BDE1
:101600000120FBE70120F9E70120F7E70020F5E7DB
:101610000120F3E70020F1E70010024088130000EA
:10162000FFFEFFFFFFFBFFFF00000140FFFFFFEF9A
:10163000FFDFFFFFFFFFFFFEFFFF02FF70B50400AB
:101640000D00002800D1BAE05F4B1A680123134057
:101650008B420BD25C490B68012293432B430B60F6
:101660000B681A40AA4201D00120A9E023689B0719
:1016700006D5564AD368F0218B43A1680B43D3604B
:101680002368DB0764D56368022B09D0032B29D0BC
:10169000012B2DD04D4A1268920506D401208FE00F
:1016A0004A4A1268920300D48BE04849CA68032072
:1016B00082431343CB60FEF7FBFE06006368022BF8
:1016C0001CD0032B28D0012B34D0404BDB680C22DC
:1016D0001A423DD0FEF7ECFE801B3D4B9842F4D9F8
:1016E00003206DE0394A12689201DED4012067E0E0
:1016F000364A12685207D8D4012061E0334BDA68C9
:101700000C231340082B23D0FEF7D2FE801B304B56
:101710009842F3D9032053E02C4BDA680C23134092
:101720000C2B15D0FEF7C4FE801B294B9842F3D931
:10173000032045E0254BDA680C231340042B07D027
:10174000FEF7B6FE801B224B9842F3D9032037E008
:101750001D4B1A6801231340AB420BD91A490B6881
:10176000012293432B430B600B681A40AA4201D01D
:10177000012025E023685B0706D5144AD368154984
:101780000B40E1680B43D36023681B0707D50F4963
:10179000CB68114A13402269D2001343CB60FFF794
:1017A00037FC0A4BDA6812090F2313400B4AD35C4B
:1017B000D8400B4B18600020FEF746FE00E00120E9
:1017C00070BD0120FCE7C04600200240001002402E
:1017D00088130000FFF8FFFFFFC7FFFFF04C000871
:1017E00000000020014B18687047C0460000002030
:1017F00010B5FFF7F7FF044BDA68120A072313400E
:10180000024AD35CD84010BD00100240004D0008D1
:1018100010B5FFF7E7FF044BDA68D20A072313403D
:10182000024AD35CD84010BD00100240004D0008B1
:1018300070B5040082231B0102681A425AD0704B13
:101840009B6BDB0000D593E06D4A916B80235B05B9
:101850000B43936301256B4B1B68DB0500D489E0C8
:10186000674B1A68C0239B031A4061680B40934280
:1018700000D194E0C0239B020A001A409A4200D192
:1018800095E05F4B1B6DC022920213401FD01140A8
:10189000994202D02268920608D4C0229202A1681E
:1018A0000A409A4213D023681B0510D5544B186D7B
:1018B000554A02401E6D8021090331431965196D97
:1018C000524E314019651A65C30500D576E063684C
:1018D000C022920219001140914200D17EE0484995
:1018E0000B6DC02292026068024013430B65012D0C
:1018F00000D17DE02368DB0706D5414AD36C032184
:101900008B43E1680B43D36423689B0706D53C4AAD
:10191000D36C0C218B4321690B43D36423685B0791
:1019200006D5374AD36C3A490B4061690B43D364FF
:1019300023681B0706D5324AD36C36490B40A16990
:101940000B43D36423685B0606D52D4AD36C32491A
:101950000B40216A0B43D36423681B064ED5284AEB
:10196000D36C2E490B40E1690B43D364002070BD5A
:10197000002570E7234A116880235B000B43136046
:10198000FEF796FD06001F4B1B68DB0500D567E7D9
:10199000FEF78EFD801B6428F5D90320E7E7C023FE
:1019A0009B03A0680340934200D063E769E7144BB0
:1019B0001B689B0300D464E70120D8E7FEF778FD9D
:1019C00006000F4B1B6D9B0500D580E7FEF770FDF1
:1019D000801B134B9842F4D90320C8E708490A68D2
:1019E00010480240C0208003034013430B6076E799
:1019F0000A008B6B0C490B4093637BE70020B6E732
:101A00000010024000700040FFFFFCFFFFFFF7FFE7
:101A1000FFF3FFFFFFCFFFFFFFFFFFFBFFFFF3FF22
:101A200088130000FFFFCFFFFFFFFFEFF8B50600B0
:101A30000C0017001D0033689B6823401B1B5A4293
:101A40005341BB423BD06B1CF5D0FEF731FD069BEA
:101A5000C01AA84201D2002DEDD132685368E021AE
:101A60008B43536082235B0072689A420CD08023C0
:101A70009B01B26A9A4216D051230122F254013BD3
:101A80000022F25403201BE0B3688022120293422A
:101A900003D08022D2009342E9D1326813684021FA
:101AA0008B431360E3E73268136806490B40136009
:101AB0003268116880239B010B431360DCE7002030
:101AC000F8BDC046FFDFFFFF10B582B004008220E2
:101AD00040006368834206D05120205C052811D065
:101AE000002002B010BD00920B00002280212000D7
:101AF000FFF79CFF0028F4D0636D20221343636539
:101B00000320EEE700920B00002201212000FFF7E6
:101B10008DFF0028E5D0636D202213436365032009
:101B2000DFE730B583B00400822040006368834261
:101B300018D0822040006368834231D18023DB00CB
:101B4000A06898421DD000920B0000228021200046
:101B5000FFF76CFF00282CD0636D202213436365D0
:101B6000032026E0A36880200002834203D0802067
:101B7000C0008342DDD1206803684025AB43036089
:101B8000D7E700920B00002201212000FFF74EFF53
:101B900000280ED0636D202213436365032008E004
:101BA00000920B00002201212000FFF73FFF0028D8
:101BB00001D103B030BD636D202213436365032060
:101BC000F7E7000010B5041E3BD0002383625133B9
:101BD000C35C002B2FD051220223A35421680B6831
:101BE000402083430B606368A1680B43E1680B43AB
:101BF00021690B4361690B4380218900A069014081
:101C00000B43E1690B43216A0B432168A06A03433C
:101C10000B60618B04230B402168606A03434B60B7
:101C20002168CB6908480340CB6100236365013319
:101C3000A354002010BD50330022C25402F096FA83
:101C4000C9E70120F6E7C046FFF7FFFFF0B585B012
:101C50000400019116001F005023C35C012B00D12A
:101C6000BFE050230122C254FEF722FC050051239D
:101C7000E35C012B08D0022051230122E254013BF6
:101C80000022E25405B0F0BD0199002900D19AE08C
:101C9000002E00D199E050330322E2540023636503
:101CA0002163A686E686A363A387E3876364236430
:101CB00080231B02A2689A421DD023681A6852062C
:101CC00003D41A6840210A431A6080231B01E2688A
:101CD0009A4217D06368002B01D0012E48D1236BA4
:101CE0001B7822681373236B01332363E38E013B5C
:101CF0009BB2E3863CE0226811688023DB010B4342
:101D00001360DAE76368002B01D0012E14D1236839
:101D1000226B1288DA60236B02332363E38E013B6C
:101D20009BB2E38608E0FEF7C3FB401BB84201D339
:101D30007B1C4CD1002F4CD0E38E9BB2002B2AD0C1
:101D400023689A689207EED5226B1288DA60236BBB
:101D500002332363E38E013B9BB2E386ECE7FEF79D
:101D6000A7FB401BB84201D37B1C34D1002F34D0D9
:101D7000E38E9BB2002B0ED023689A689207EED5B3
:101D8000226B12781A73236B01332363E38E013BBA
:101D90009BB2E386ECE72A0039002000FFF794FEAF
:101DA000002801D020236365A368002B06D103938C
:101DB0002368DA6803929B680393039B636D002B8F
:101DC0000DD1002058E7012056E7012054E70320F9
:101DD00052E7032050E703204EE703204CE70120A1
:101DE0004AE702204EE7F0B585B004000E000192EC
:101DF0001D005023C35C012B00D108E150230122B8
:101E0000C254FEF755FB07005123E35CDBB2626866
:101E1000012B14D0822149008A4208D0022051238C
:101E20000122E254013B0022E25405B0F0BDA26859
:101E3000002A00D0DDE0042B01D00220EFE7002EC5
:101E400000D1D8E0019B002B00D1D6E0002D00D1BD
:101E5000D5E05123E35C042B02D051230522E25448
:101E600000236365019AA263E587A5872663E5865B
:101E7000A5862364636423681A68520603D41A682B
:101E800040210A431A6080231B01E2689A4211D064
:101E90006368002B01D0012D0AD1236B1B782268C7
:101EA0001373236B01332363E38E013B9BB2E38601
:101EB000012569E06368002B01D0012D0AD1236858
:101EC000226B1288DA60236B02332363E38E013BBB
:101ED0009BB2E38601251BE023689A68D2070ED5E2
:101EE000E28F92B2002A0AD0DB68A26B1380A36B48
:101EF0000233A363E38F013B9BB2E3870125FEF727
:101F0000D7FAC01B0A9B984202D3013300D078E075
:101F1000E38E9BB2002B03D1E38F9BB2002B51D0F9
:101F200023689A689207D7D5E28E92B2002AD3D05E
:101F3000012DD1D1226B1288DA60236B0233236327
:101F4000E38E013B9BB2E3860025C5E723689A68D0
:101F5000D2070ED5E28F92B2002A0AD0DB68A26BBC
:101F60001370A36B0133A363E38F013B9BB2E38741
:101F70000125FEF79DFAC01B0A9B984201D301334D
:101F800041D10A9B002B40D0E38E9BB2002B03D1A2
:101F9000E38F9BB2002B15D023689A689207D5D5A2
:101FA000E28E92B2002AD1D0012DCFD1226B1278CD
:101FB0001A73236B01332363E38E013B9BB2E386E9
:101FC0000025C3E73A000A992000FFF77DFD0028AD
:101FD00003D020236365012021E7A368002B00D0F4
:101FE0001DE703932368DA6803929B680393039BBE
:101FF00015E7022013E7012011E701200FE7012078
:102000000DE703200BE7032009E7032007E7022081
:102010000BE70000F0B585B004000D0016001F00AE
:1020200082235B0042689A4217D05023E35C012B65
:1020300000D19CE050230122E254FEF739FA0390CC
:102040005123E35C012B14D0022051230122E254DE
:10205000013B0022E25405B0F0BD8368002BE4D1BF
:1020600051330422C254009733000A00FFF7BBFE2D
:10207000F1E7002D6DD0002E6DD050330422E254D4
:1020800000236365A563A687E6872363A386E386AB
:102090002364636480231B02A2689A420BD02368E6
:1020A0001A68520603D41A6840210A431A60E3688A
:1020B000002B10D02CE0226813682E490B401360CF
:1020C000EDE7FEF7F5F9039BC01AB84201D37B1C7C
:1020D00043D1002F43D0E38F9BB2002B2BD023683A
:1020E0009A68D207EDD51B7BA26B1370A36B0133EB
:1020F000A363E38F013B9BB2E387ECE7FEF7D8F9DC
:10210000039BC01AB84201D37B1C2AD1002F2AD0CE
:10211000E38F9BB2002B0ED023689A68D207EDD5CF
:10212000DB68A26B1380A36B0233A363E38F013BD5
:102130009BB2E387ECE7039A39002000FFF7F1FC3C
:10214000002801D020236365636D002B0DD1002092
:102150007BE7012079E7012077E7032075E703207B
:1021600073E7032071E703206FE701206DE702208A
:1021700071E7C046FFBFFFFF03688022D20590428F
:1021800005D0124A904202D0114A904203D17022E7
:1021900093434A6813438022D205904205D00B4AEC
:1021A000904202D00A4A904203D10A4A1340CA68B8
:1021B0001343802293430A69134303608B68C3620D
:1021C0000B688362012343617047C04600080140E9
:1021D00000140140FFFCFFFF30B5036A046A0125CB
:1021E000AC4304628469EF35AC43120122430A24F4
:1021F000A34319438261016230BD000030B5036A18
:102200001024A34303628469036A054D2C40120322
:102210002243A024A343090119438261016230BD16
:10222000FF0FFFFF0B0081687022914319430723C2
:10223000194381607047000030B58468034D2C401D
:102240001B021A4311432143816030BDFF00FFFF91
:1022500070B5041E14D03923C35C002B0AD0392575
:1022600002236355211D2068FFF786FF0123635574
:10227000002070BD38330022C25401F0A5FFEEE704
:102280000120F6E70268D36801210B43D36002689E
:10229000916807230B40062B03D0136801210B43E1
:1022A00013600020704700000268D36801218B434F
:1022B000D3600368196A044A114203D11A680121E4
:1022C0008A431A60002070471111000010B5040005
:1022D0003823C35C012B66D038230122C25401335A
:1022E0000132C254026893683048034093600B681F
:1022F000402B4ED015D9602B41D021D9702B2BD03B
:1023000080229201934232D1CB684A688968206862
:10231000FFF792FF226891688023DB010B439360F3
:1023200025E0102B07D004D9202B04D0302B02D06D
:102330001DE0002B1BD119002068FFF773FF16E08A
:10234000502B14D1CA6849682068FFF745FF502117
:102350002068FFF767FF0AE0CB684A688968206851
:10236000FFF76AFF2268936877210B439360392354
:102370000122E254013B0022E254002010BDCA6851
:1023800049682068FFF73AFF60212068FFF74AFF9D
:10239000EDE7CA6849682068FFF71EFF4021206802
:1023A000FFF740FFE3E70220E8E7C0468800FFFFB1
:1023B000704770477047704710B5040003681A698A
:1023C00092070FD5DA6892070CD5032252421A61A0
:1023D0000123037603689B699B0755D0FFF7E9FF4C
:1023E0000023237623681A69520712D5DA68520748
:1023F0000FD5052252421A610223237623689A6977
:10240000C0239B001A4245D02000FFF7D2FF0023D3
:10241000237623681A69120710D5DA6812070DD5DA
:10242000092252421A61042323762368DB699B0741
:1024300037D02000FFF7BDFF0023237623681A69F9
:10244000D20612D5DA68D2060FD5112252421A618D
:10245000082323762368DA69C0239B001A4227D019
:102460002000FFF7A6FF0023237623681A69D2070E
:1024700002D5DA68D20722D423681A69520602D537
:10248000DA68520622D410BDFFF792FF2000FFF752
:1024900091FFA5E72000FFF78BFF2000FFF78AFFE1
:1024A000B5E72000FFF784FF2000FFF783FFC3E7B5
:1024B0002000FFF77DFF2000FFF77CFFD3E702221B
:1024C00052421A61200001F027FCD5E74122524216
:1024D0001A612000FFF76FFFD5E7F0B53823C35C22
:1024E000012B1BD0382601239C4683553927013305
:1024F000C3550268546893687025AC430D682C433B
:102500008025AB431D004B682B43546002689360E9
:102510006346C355002383550020F0BD0220FCE72D
:10252000D0B504000168836802691343426913430C
:10253000C26913430A68C048024013430B60226813
:102540005368BE490B40E1680B435360A1692268A0
:10255000BB4B9A4201D0236A19439368B9480340A0
:102560000B4393602268B84B9A4216D0B74B9A42FD
:1025700027D0B34B9A4239D01023B1498A4257D061
:1025800080221202E169914200D18CE0082B00D92F
:1025900049E19B00AE4AD3589F46AE4BD96C03230A
:1025A0000B40012B09D0002B05D0022B3AD0032B76
:1025B00005D01023E1E70123DFE70423DDE708234B
:1025C000DBE7A44BD96C0C230B40042B0AD005D9B4
:1025D000082B29D00C2B07D10823CEE7002B03D1E1
:1025E0000023CAE70423C8E71023C6E7994BDB6C36
:1025F000C02109010B408021C9008B420ED009D9AE
:10260000802109018B4211D0C02109018B4207D1E1
:102610000823B2E7002B03D10023AEE70423ACE785
:102620001023AAE70223A8E70223A6E70223A4E7D0
:10263000022B2DD007D9042B30D0082B00D0F5E089
:102640008020000207E0002B00D0EFE0FFF7D0F879
:10265000002800D1ECE0626853009B18834200D947
:10266000E8E01303834200D206E1070E0602500899
:102670000021801979410023FDF7D2FD764BC21865
:10268000764B9A4200D9F9E02368D860002085E0B3
:10269000704B1B68DB0604D47148DCE7FEF7B8FC1E
:1026A000D6E77048D7E7082B62D89B006E4AD3580C
:1026B0009F46FFF79DF8400063685B08C01861689B
:1026C000FDF722FD03041B0C002068491A00103A94
:1026D0008A4200D9D4E00F22190091435B08083ADE
:1026E00013400B432268D36058E0FFF791F8400095
:1026F00063685B08C0186168FDF706FD03041B0CE6
:102700000020E2E7534B1B68DB060BD563685808D3
:10271000574B9C4660446168FDF7F6FC03041B0CB4
:102720000020D2E763685808524B9C4660446168B9
:10273000FDF7EAFC03041B0C0020C6E7FEF768FC6B
:10274000400063685B08C0186168FDF7DDFC0304A6
:102750001B0C0020B9E76368580880235B029C4685
:1027600060446168FDF7D0FC03041B0C0020ACE75B
:1027700001200023A9E7FFF73BF863685B08C01856
:102780006168FDF7C1FC03041B0C002037491A00E7
:10279000103A8A4200D975E02268D360002323668C
:1027A0006366D0BDFFF734F863685B08C0186168E2
:1027B000FDF7AAFC03041B0C0020E7E7254B1B6870
:1027C000DB060BD563685808264B9C46604461685D
:1027D000FDF79AFC03041B0C0020D7E76368580838
:1027E0001F4B9C4660446168FDF78EFC03041B0C84
:1027F0000020CBE7FEF70CFC63685B08C01861683B
:10280000FDF782FC03041B0C0020BFE76368580837
:1028100080231B029C4660446168FDF775FC03043D
:102820001B0C0020B2E701200023AFE70120B5E731
:102830000020B3E70120B1E7F369FFEFFFCFFFFF0F
:1028400000480040FFF4FFFF003801400044004012
:10285000904C00080010024000FDFFFFFFFC0F003D
:102860000024F40000093D00B44C0008EFFF000014
:1028700000127A000048E80101208FE701208DE76F
:1028800001208BE7012089E7436ADB0706D5026850
:1028900053682C490B40816A0B435360436A9B0782
:1028A00006D50268536828490B40C16A0B43536040
:1028B000436A5B0706D50268536824490B40016BE5
:1028C0000B435360436A1B0706D5026853682049CF
:1028D0000B40416B0B435360436ADB0606D502682D
:1028E00093681C490B40816B0B439360436A9B06C2
:1028F00006D50268936818490B40C16B0B4393607F
:10290000436A5B060BD50268536814490B40016C9F
:102910000B43536080235B03026C9A420AD0436AE4
:102920001B0606D5026853680D490B40816C0B43AA
:1029300053607047026853680A490B40416C0B436F
:102940005360ECE7FFFFFDFFFFFFFEFFFFFFFBFF14
:10295000FF7FFFFFFFEFFFFFFFDFFFFFFFFFEFFF47
:10296000FFFFF7FFFFFF9FFFF0B5C64600B506006B
:102970000C0017009846069D3368DB6923401B1B3B
:102980005A425341BB421CD16B1CF5D0FDF790FD60
:102990004346C01AA84201D8002DEDD13268136811
:1029A0000A490B40136032689368A331FF318B43AF
:1029B000936020237367B36750330022F2540320DF
:1029C00000E0002004BC9046F0BDC0465FFEFFFF63
:1029D000F0B585B004000E0017001D00436F202BDA
:1029E0005FD1002960D0002A60D080235B0182681B
:1029F0009A4218D07023E35C012B59D07023012236
:102A0000E2540023E36721336367FDF751FD039030
:102A10005023E7520233E75280235B01A2689A42B7
:102A200008D0002716E00369002BE3D1CB07E1D5DE
:102A3000012037E02369002B21D000270AE03B88E2
:102A40002268DB05DB0D936202375222A35A013B59
:102A50009BB2A3525223E35A9BB2002B12D0009593
:102A6000039B002280212000FFF77EFF002821D158
:102A7000002EE4D0327823689A620136E5E7370009
:102A80000026E7E70095039B002240212000FFF786
:102A90006BFF002810D12023636750330022E254DB
:102AA00000E0022005B0F0BD0120FBE70120F9E7BE
:102AB0000220F7E70320F5E70320F3E730B583B002
:102AC00004000023C367FDF7F3FC050023681B68BF
:102AD0001B070CD423681B685B0715D4202363678E
:102AE000A36750330022E254002003B030BD8021A0
:102AF0000C4B00930300002289032000FFF734FFF2
:102B00000028E7D00320F0E78021064B00932B003C
:102B10000022C9032000FFF727FF0028DED0032092
:102B2000E3E7C046FFFFFF0110B5041E2ED0436F40
:102B3000002B21D0242363672268136801218B4373
:102B400013602000FFF7ECFC012814D0636A002B0F
:102B500018D1226853680E490B405360226893686D
:102B60002A218B4393602268136829390B43136031
:102B70002000FFF7A3FF10BD70330022C25401F004
:102B800045FBD7E72000FFF77FFEE2E70120F2E7F1
:102B9000FFB7FFFF10B5002309E0064A5900C81827
:102BA00084000020A0541219506010720133092BC8
:102BB000F3DD10BDE801002070B5002400E0013411
:102BC000092C14DC63001B199A00174BD35C834259
:102BD000F5D1154B9B181B7A002BF0D0FDF768FC44
:102BE00063001C19A200104B9B1858601BE00024C6
:102BF000092C18DC63001B199A000B4B9B181B7ADD
:102C0000002B01D00134F3E7074E65002A19930029
:102C10009855FDF74DFC2A1993001A00F3185860D7
:102C2000B6180123337270BDE801002030B50023CF
:102C300000E00133092B14DC5A00D2189100094A34
:102C40005218127A002AF4D0064A8A5C8242F0D1E5
:102C500004495A00D418A0000024445408184460C1
:102C6000047230BDE801002030B58BB0002400E0D4
:102C70000134092C15DC63001B199A000A4B9B18C0
:102C8000197A0029F4D008481500125C40194368ED
:102C90000091064902A801F0F1FB02A801F078F8C2
:102CA000E6E70BB030BDC046E80100202C4D00081F
:102CB000002009E00101104B5B189B18002199715D
:102CC0000132092AF6DD013009280ADC0A4B01012C
:102CD0000022CA545B185A709A70DA701A715A71CD
:102CE000EFE7064B1A78044B1A70012159709A705D
:102CF000034A12785A71704748010020A000002052
:102D00006002002030B505230370274B1B78437009
:102D100000240FE0AB180833C1540132092A08DC43
:102D20002101224B5B189B1899790029F2D1FF31C0
:102D3000F0E70134092C36DC23011C4A9B5C002B94
:102D400000D1FF332501AA1C8354184B5B195B7813
:102D5000002B00D1FF33EA1C83542201134B9B1834
:102D60009B78002B00D1FF332A1D835422010F4B87
:102D70009B18DB78002B00D1FF336A1D835422019E
:102D80000A4B9B181B79002B00D1FF33AA1D8354DB
:102D90002201064B9B185B79002B00D1FF33EA1D03
:102DA00083540022BAE730BDA00000204801002073
:102DB00070B542782A4B1A7000251BE0002220E0F3
:102DC000002125E000212BE0002131E0002137E047
:102DD00000213DE02901234B5B189B189C710132B7
:102DE000092A06DCB318C3181C7AFF2CF2D1002480
:102DF000F0E70135092D31DC2E0183199A78FF2A7D
:102E0000DCD02B0117495A548319D978FF29D7D020
:102E10002A01144B9B18597083191979FF29D1D0B5
:102E20002A01104B9B18997083195979FF29CBD02F
:102E30002A010C4B9B18D97083199979FF29C5D0A9
:102E40002A01084B9B1819718319D979FF29BFD022
:102E50002A01044B9B1859710022C1E770BDC0467E
:102E600044010020A4000020F0B5D6464F46464657
:102E7000C0B5C8B0002500E00135092D38DC2A01B5
:102E80001E4B9B185B78002BF6D01C4C1100125D7A
:102E90006418A178E0782679677903970296019003
:102EA0000091174908A801F0E9FA08A800F070FF9E
:102EB000A279E3799A46217A607AA67AE77A237B27
:102EC0009C46637B9846A37BE47B0794069343462A
:102ED000059363460493039702960190009153462D
:102EE000084908A801F0CAFA08A800F051FFC3E792
:102EF00048B01CBC90469946A246F0BD480100204F
:102F00004C4D0008944D000810B5002318E00A004D
:102F10001C010021A154121951709170D1701171CE
:102F2000517106E01C011F4A1219521800249471B5
:102F300001310929F6DD02E00022002A1BD101330C
:102F4000092B2DDC1901174A52185278012AF6D1A3
:102F50000A001449525C8242D9D000210929EBDCD5
:102F60001C01104A121952189279824201D0013183
:102F7000F4E70122E1E70B4A1C010021A1541219D8
:102F800051709170D1701171517106E01C01054AA8
:102F9000121952180024947101310929F6DDCEE787
:102FA00010BDC04648010020F8B5FDF781FA0500C4
:102FB000002400E00134092C22DC63001B199A0074
:102FC000104B9B181B7A002BF4D00E4B9B185B68A0
:102FD000EB1A0D4A9342EDD90C4800F0D9FE094F87
:102FE000660032199300D85DFFF78EFF3619B300E3
:102FF000D85DFFF71BFEFFF737FFFFF735FED9E778
:10300000F8BDC046E801002030750000D04D000832
:10301000F8B5002300E00133092B12DC1901A44AA2
:1030200052185278012AF6D10A00A149515CA14AEE
:1030300012789142EFD11B019D4AD3189E4A127813
:103040005A710023002425E00132092A1FDC1001F7
:103050009749091849780129F6D101009448095C7B
:103060008D42F1D11001924909188D700120C8706C
:103070001C019248001904790C71407948718D48FF
:1030800000788871CE71002008720124DCE7002CE2
:1030900011D00133092B2EDC1901884A52185278BD
:1030A000012AF6D10A008549565C854A1578AE4258
:1030B000EFD10022C9E70022092AEADC10017C498D
:1030C00009184978012901D10132F5E778494654B8
:1030D0000A18012151709570D170180177490918AB
:1030E0000879107149795171724909789171D671D5
:1030F00000211172CDE7002057E00022002A53D1B1
:1031000019016B4A52189278954209D0684A5218B0
:10311000D6780101694A5218D2780132964243DDCD
:103120001A01634EB618B5700101644A5218D1787D
:103130000131F17011793171527972715D4A1278F1
:10314000B271002108290EDC4E1C07015B4AD2191E
:10315000521897791901564A5218921997713100ED
:10316000F0E70122CAE701261CE00133092B18DC35
:1031700019014F4A52185278012AF6D10A004C49D7
:10318000525C9442F1D100210929B6DC06014B4A78
:10319000921952189679474A12789642E1D0013135
:1031A000F2E70026002E11D0013009284FDC020181
:1031B000424B9B185B78012BF6D113003F4A9C5C75
:1031C0003F4B1D78AC42EFD00023CFE70022092A05
:1031D0000BDC0101394B5B189B189979354B1B7837
:1031E000994201D00132F2E70126002EDCD1002302
:1031F000092BD9DC19012E4A52185278012A01D123
:103200000133F5E72A491A0154548A1801215170F3
:103210009570040129490919CC780134D4700C79CE
:1032200014714979517123490978917100210BE09A
:103230004D1C0401214A12195218947919011C4A93
:1032400052185219947129000829F1DDACE70024C5
:1032500016E00133092B0FDC1A011849515C2201D9
:103260001348125C9142F4D11901144A5218527851
:10327000002AEED0012300E00023002B11D00134FE
:10328000092C14DC22010A4B9B185B78012BF6D128
:10329000074B9B189A780A4B1B789A42EFD1002370
:1032A000D8E72301024A985CFFF72EFEE7E7F8BD56
:1032B00048010020A000002060020020A40000209F
:1032C0004401002084B030B583B006900791089285
:1032D00009931DAB1A786B46DD1D80235B421343B7
:1032E0002B7080246401002221001C98FDF7C8FA8D
:1032F0001E230122290006A8FEF7A8FC1E23012296
:103300001EA906A8FEF7A2FC012221001C98FDF7C9
:10331000B7FA03B030BC08BC04B0184784B070B52D
:1033200096B01A901B911C921D93FF26149612259D
:103330001395184C129448221EA9684601F08CF887
:103340001A981B991C9A1D9BFFF7BCFF14961395A6
:10335000129448221EA9684601F07EF81A981B991B
:103360001C9A1D9BFFF7AEFF05231493043B139398
:10337000309B129348221EA9684601F06DF81A98F6
:103380001B991C9A1D9BFFF79DFF16B070BC08BCD3
:1033900004B018470004005084B070B596B01A907D
:1033A0001B911C921D93FF26149612251395184C01
:1033B000129448221EA9684601F04EF81A981B99EB
:1033C0001C9A1D9BFFF77EFF1496139512944822BA
:1033D0001EA9684601F040F81A981B991C9A1D9B7B
:1033E000FFF770FF03231493023B1393309B129358
:1033F00048221EA9684601F02FF81A981B991C9ABA
:103400001D9BFFF75FFF16B070BC08BC04B01847E7
:103410000004005084B030B583B006900791089244
:1034200009931DAB1A786B46DD1D80235B42134365
:103430002B7080246401002221001C98FDF720FAE3
:103440001E230122290006A8FEF700FC1E98FCF7A7
:10345000F3FF82B21E231E9906A8FEF7F7FB012296
:1034600021001C98FDF70CFA03B030BC08BC04B076
:10347000184784B030B597B01A901B911C921D93D9
:10348000309C002514950D231393129448221EA9F5
:10349000684600F0E1FF1A981B991C9A1D9BFFF7E4
:1034A00011FF319B14931395129448221EA968466C
:1034B00000F0D2FF1A981B991C9A1D9BFFF7AAFFD8
:1034C0003198FCF7B9FFC0B21490222313931294E1
:1034D00048221EA9684600F0BFFF1A981B991C9A43
:1034E0001D9BFFF7EFFE129448221EA9684600F0CC
:1034F000B3FF1A981B991C9A1D9BFFF74DFFFA20EA
:103500008000FCF7DBFF012017B030BC08BC04B022
:10351000184784B030B583B006900791089209939C
:1035200080256D01002229001C98FDF7A9F91E23B2
:1035300001221DA906A8FEF789FB6B46DC1D1E2390
:103540000122210006A8FEF765FD012229001C9832
:10355000FDF796F9207803B030BC08BC04B01847DA
:1035600084B070B596B01A901B911C921D93309C3C
:103570008023149301251395129448221EA96846AE
:1035800000F06AFF1A981B991C9A1D9BFFF79AFE80
:103590000A20FCF793FF1395129448221EA968464F
:1035A00000F05AFF1A981B991C9A1D9BFFF7B1FF58
:1035B000802805D0002016B070BC08BC04B01847A5
:1035C000002514950E231393129448221EA96846D1
:1035D00000F042FF1A981B991C9A1D9BFFF772FE80
:1035E00014950F231393129448221EA9684600F0E5
:1035F00033FF1A981B991C9A1D9BFFF763FE01234A
:1036000014931393129448221EA9684600F024FFD5
:103610001A981B991C9A1D9BFFF754FE7223149352
:10362000553B1393129448221EA9684600F014FFDC
:103630001A981B991C9A1D9BFFF744FE7423149340
:10364000563B1393129448221EA9684600F004FFCB
:103650001A981B991C9A1D9BFFF734FE149526237C
:103660001393129448221EA9684600F0F5FE1A989A
:103670001B991C9A1D9BFFF725FE1495202313937D
:10368000129448221EA9684600F0E6FE1A981B997B
:103690001C9A1D9BFFF716FE0826149621231393F0
:1036A000129448221EA9684600F0D6FE1A981B996B
:1036B0001C9A1D9BFFF706FEE4231493DE3B139335
:1036C000129448221EA9684600F0C6FE1A981B995B
:1036D0001C9A1D9BFFF7F6FDC0231493B93B13936F
:1036E000129448221EA9684600F0B6FE1A981B994B
:1036F0001C9A1D9BFFF7E6FD149513961294482221
:103700001EA9684600F0A8FE1A981B991C9A1D9BDA
:10371000FFF7D8FD92231493893B13931294482208
:103720001EA9684600F098FE1A981B991C9A1D9BCA
:10373000FFF7C8FD01203EE784B070B596B01A903F
:103740001B911C921D93319E10231393234C1294B2
:1037500048221EA9684600F07FFE1A981B991C9A01
:103760001D9BFFF7D6FE14900D231393129448224D
:103770001EA9684600F070FE1A981B991C9A1D9BA2
:10378000FFF7A0FD13231393309B129348221EA929
:10379000684600F061FE1A981B991C9A1D9BFFF762
:1037A000B8FE05000024A54213DD002313930B4B44
:1037B000129348221EA9684600F04EFE1A981B99E3
:1037C0001C9A1D9BFFF7A5FE3055002801D001343F
:1037D000E9E716B070BC08BC04B0184700040050FC
:1037E000F0B5DE46574680B58DB00AAD00242C708A
:1037F00080236B70642702970226019600957F3B19
:103800000022AA210590FDF709FA0297019600957A
:1038100001230022AA210598FDF700FA13232B703B
:103820006C70029701960095123B0022AA21059820
:10383000FDF7F4F964230293633B0193272402AB61
:103840009C466444009401230622AA210598FDF7B2
:10385000B5FA2378DB06EDD5232502AB9C466544FB
:1038600000239B462B706424029401339A460193F3
:1038700000956122AA21059E3000FDF7CFF9522361
:103880002B7002945346019300953E22AA213000EA
:10389000FDF7C4F95B462B700294534601930095E3
:1038A0003F22AA213000FDF7B9F9C820FCF706FE37
:1038B000029453460193272502AB9C46654400952C
:1038C00001236022AA2105963000FDF777FA2B78B4
:1038D000DB431F2502AA944665442B7002940227FD
:1038E00001970BAE009601234A22AA210598FDF705
:1038F00065FA32782B789B1ADBB272789B1A2B70A0
:1039000002940197009601234C22AA210598FDF705
:1039100055FA32782B789B1ADBB272789B1A2B708F
:1039200002940197009601235022AA210598FDF7E1
:1039300045FA32782B789B1ADBB272789B1A2B707F
:1039400002940197009601235B22AA210598FDF7B6
:1039500035FA32782B789B1ADBB272789B1ADBB27D
:1039600009AA414908881080888802AE30830989F5
:10397000B18206AE59463170843171701933DBB2B1
:10398000383BDBB25F33DBB26433DBB20733DBB22D
:10399000303BDBB27C3B2B700294019700920123F9
:1039A0004A2226310598FDF739F90294019708ABB0
:1039B000009301234C22AA210598FDF72FF90294C8
:1039C000019707AB009301235022AA210598FDF728
:1039D00025F902940197009601235B22AA21059EF6
:1039E0003000FDF71BF92B78DB432B700294534614
:1039F000019300956022AA213000FDF70FF90AAB70
:103A000042221A705A465A70029401970093012379
:103A1000AA213000FDF702F964230293633B01936E
:103A2000272402AB9C466444009401230622AA2169
:103A30000598FDF7C3F92378DB06EDD40AAB202205
:103A40001A7000225A7064320292623A0192009314
:103A500001230022AA210598FDF7E0F80DB00CBC67
:103A600092469B46F0BDC046D84C000810B586B0C3
:103A700064230293623B019305AC0094013B1C223A
:103A8000AA21FDF79BF963781B022078184306B042
:103A900010BD0000F0B589B01422002103A800F089
:103AA000E4FC224BDA6A01252A43DA62DA6A2A4008
:103AB0000192019AD96A02221143D962DB6A1A4043
:103AC0000292029BC624E400A026F60500222100F3
:103AD0003000FCF7D5FE164F002239001548FCF7E0
:103AE000CFFE0394049500240594069403A93000A6
:103AF000FCF700FE039704950594069403A90D486E
:103B0000FCF7F8FD80235B0003930B4B04930594B3
:103B100003A93000FCF7EEFD002200210720FCF78E
:103B2000DBFC0720FCF708FD09B0F0BD00100240E7
:103B300015100000000400500000111000B583B003
:103B4000094A116B012319431163126B134001934E
:103B5000019B002200210B20FCF7BEFC0B20FCF790
:103B6000EBFC03B000BDC0460010024010B50C488D
:103B70000C4B036082235B00436000238360C360BF
:103B800003614361802292008261C93AFF3AC261B7
:103B90000362436283620733C362FEF713F810BD0A
:103BA000AC0200200038004010B50948094B036002
:103BB000E1235B02436000238360C36003610C2246
:103BC00042618361C36103624362FEF7ADFF10BDD2
:103BD000500300200038014010B50948094B03602C
:103BE000E1235B02436000238360C36003610C2216
:103BF00042618361C36103624362FEF795FF10BDBA
:103C0000480400200044004010B50D4C0D4B2360CB
:103C10000D4B63600023A3600122E26023616361B6
:103C2000A361E36123622000FCF792FF00212000E2
:103C3000FDF798F900212000FDF7C0F910BDC0463E
:103C40000403002000580040BB7C700030B587B0F2
:103C50001022002102A800F008FC0822002168467A
:103C600000F003FC104C8023DB052360FA23DB010A
:103C700063600025A5600D4BE360256180236361CF
:103C80002000FEF7E5FA80235B01029302A92000E1
:103C9000FEF71CFB40230093019569462000FEF7C8
:103CA0001CFC07B030BDC0460C0400208813000087
:103CB00030B583B008220021684600F0D6FB094CDD
:103CC000094B236000256560A560E5606561200003
:103CD000FEF7BEFA0095019569462000FEF7FDFB50
:103CE00003B030BDD00300200010004010B54301E8
:103CF0001B1A9B001818C300054CE3602000FEF758
:103D0000A7FA044B00221A602000FEF7BBFA10BD90
:103D10000C0400208400002070B504000D4B984274
:103D200000D070BD0C4B1B68002B03D10A4B012245
:103D30001A60F6E7094D10212800FCF7A7FD0421C1
:103D40002800FCF7A3FD044B01221A712000FEF7A6
:103D5000ABFAE6E70C0400208400002000040050C9
:103D600010B580235B00984200D010BDA020202118
:103D7000C005FCF78BFD01210348FCF787FD034BD1
:103D800001225A71F1E7C04600040050840000206F
:103D900070B50500FCF750FB82B2084C1E232900C9
:103DA0002000FEF715FE1E23022205492000FEF723
:103DB0000FFE6420FCF782FB70BDC046500300205C
:103DC000284D000830B59DB0382200210EA800F023
:103DD0004CFB1422002109A800F047FB24220021FB
:103DE000684600F042FB16490B68164A1A408023C9
:103DF0001B0113430B6002230E93012211920F3219
:103E000012921893002419948023DB021A938023C2
:103E1000DB031B930EA8FDF753F90F23099303252A
:103E20000A950B940C940D94012109A8FDF706FC4A
:103E30000095039404946846FDF7FAFC1DB030BD6C
:103E400000700040FFE7FFFF70B5D4B0FCF714FB33
:103E5000FFF7B8FFFFF71EFEFFF770FEFFF786FEC5
:103E6000FFF7A2FEFFF7D0FEFFF7F0FEFFF720FFFF
:103E7000FFF7B2FE8021904D012249012800FCF796
:103E8000FFFC8021A024E405012289002000FCF72A
:103E9000F7FC80210122C9002000FCF7F1FC874CCF
:103EA0001295210010314822684600F0D5FA2068AA
:103EB0006168A268E368FFF753FB00282FD0072052
:103EC000FCF73AFBFA204000FCF7F8FA7C4B1B7831
:103ED000032B30D07B48FFF75BFF794B03221A702E
:103EE0000025794B1D70FEF755FEFEF7E1FEFEF74B
:103EF000BBFF0A20FFF7FAFE704C6F4B12932100B4
:103F000010314822684600F0A7FA20686168A2686C
:103F1000E368FFF703FA6D4B5D711D712AE0A03075
:103F200001222021C005FCF7ABFC01221100280072
:103F3000FCF7A6FCC3E76648FFF752FCCAE75F4CF4
:103F4000122313935C4B12932100103148226846D0
:103F500000F082FA20686168A268E368FFF7D9FA86
:103F6000C30711D4594B5B79002B13D1574B1B79E5
:103F7000002B6AD130BF554B5B79002BDFD1534BFF
:103F80001B79002BF6D0DAE75248FFF701FFFCF768
:103F9000DDFAE7E74D4B00225A71FCF789FA05007C
:103FA000464C12231393444B1293210010314822A4
:103FB000684600F051FA20686168A268E368FFF77C
:103FC000A8FA502805D0FCF773FA401B424B9842E0
:103FD000E6D9424B5D1B404B9D4203D83B4B002230
:103FE0005A71C7E7354C14AB1393334B129321002E
:103FF00010314822684600F02FFA20686168A268F4
:10400000E368FFF799FB14AB1B78052B0FD02B4C03
:10401000294B1293210010314822684600F01CFA07
:1040200020686168A268E368FFF778F9A2E714A83E
:10403000FEF7BEFE2A4B1878FEF7BEFDFEF7E8FF3E
:10404000FEF712FFFEF710FEE1E7204B00221A7187
:10405000FEF7AAFF1A4B1B78032B27D014AD2800BC
:10406000FEF750FE154C1395134E12962500103591
:1040700048222900684600F0EFF920686168A268CC
:10408000E368FFF7F6F9129648222900684600F027
:10409000E3F920686168A268E368FFF73FF90A2046
:1040A000FFF724FE0F48FFF773FE63E70848FFF7AA
:1040B000DDFC054B1870D1E700040050AC02002075
:1040C000A0000020D84D00086002002084000020DD
:1040D00004030020DC4D0008E7030000B1040008E1
:1040E00044010020EC4D000870470000054B5A6B5E
:1040F00001210A435A63996B802252050A439A634D
:104100007047C0460010024010B586B0040014226B
:10411000002101A800F0A9F92268114B9A4201D0B0
:1041200006B010BD0F4CE26A02231A43E262E26A53
:1041300013400093009BC0231B01019312230293A1
:10414000113B0393023304930333059301A90648FB
:10415000FCF7D0FAA26B8023DB031343A363DFE7F2
:1041600000580040001002400004005010B586B016
:1041700004001422002101A800F077F922680F4BF7
:104180009A4201D006B010BD0D4B996B8022D2012E
:104190000A439A63D96A02221143D962DB6A134047
:1041A0000093009BE0231B020193029203230493DC
:1041B00001A90448FCF79EFAE4E7C0460038004035
:1041C000001002400004005010B503688022D205A0
:1041D000934203D00B4A93420ED010BD0A4A936B10
:1041E00001210B439363002200210F20FCF774F997
:1041F0000F20FCF7A1F9F0E7034A936B10210B4362
:104200009363EAE7001000400010024030B589B027
:1042100004001422002103A800F027F92368294A8A
:10422000934204D0284A934219D009B030BD274B9D
:10423000596B8022D2010A435A63D96A0222114380
:10424000D962DB6A13400193019BC023039304925C
:10425000BD3B069303A91E48FCF74CFAE5E71B4B50
:10426000996B802292020A439A63D96A0122114310
:10427000D962DB6A1A400292029B0C2303930A3B29
:1042800004930133069304250795A02003A9C005D4
:10429000FCF730FA0F48104B036045600023836041
:1042A000C3608022026143618361C3610362FCF7E2
:1042B00077F9002803D1074BE3669C62B5E7FFF767
:1042C00013FFF8E7003801400044004000100240AE
:1042D0000004005064020020580002407047FEE7CE
:1042E0007047704710B5FCF7DBF810BD10B58020A3
:1042F0004000FCF7CFFA10BD10B50248FCF79CF95E
:1043000010BDC0466402002010B50248FEF754F804
:1043100010BDC0460C04002010B503000B4A126803
:10432000002A08D0094A1068C3186A46934206D882
:10433000064A136010BD054A05491160F2E700F016
:1043400061F80C23036001204042F3E78C00002059
:10435000D0040020104B1968802252000A431A60D2
:10436000DA680E490A40DA601A680D490A401A6094
:104370009A6801218A439A601A680A490A401A60B9
:10438000DA6809490A40DA6000221A61074B802284
:1043900012059A607047C046001002400C40FF882A
:1043A000F6FFF6FEFFFFFBFFFFFF02FF00ED00E060
:1043B0000D488546002103E00C4B5B584350043107
:1043C0000B480C4B42189A42F6D30B4A02E00023EA
:1043D00013600432094B9A42F9D3FFF7BBFF00F098
:1043E00017F8FFF731FDFEE700200020444E0008DB
:1043F000000000206800002068000020CC0400209D
:10440000FEE70000014B18687047C046040000201A
:1044100070B500260C4D0D4C641BA410A64209D1AA
:10442000002600F029FC0A4D0A4C641BA410A64289
:1044300005D170BDB300EB5898470136EEE7B300E5
:10444000EB5898470136F2E73C4E00083C4E000816
:104450003C4E0008404E0008002310B59A4200D19F
:1044600010BDCC5CC4540133F8E70300121893422A
:1044700000D1704719700133F9E700000EB400B5A0
:104480000B499CB01DAB029006900791049109481E
:10449000094904CB0591006802A9019300F070F866
:1044A0000023029A13701CB008BC03B01847C04622
:1044B000FFFFFF7F040000200802FFFFF0B58E68B9
:1044C00085B007000C00039201939E423CD89023D4
:1044D0008A89DB001A4234D00325096923685B1AF4
:1044E0000293636902985D43EB0F5D19019B6D10A8
:1044F00001331B18AB4200D91D00530532D52900EA
:10450000380000F019FB061E09D10C233B60402344
:104510000120A28940421343A38105B0F0BD029A55
:104520002169FFF799FFA389144A1A408023134396
:10453000A381029B2661F61826606561019EED1A33
:10454000A560019B9E4200D9019E3200039920681C
:1045500000F095FAA36800209B1BA36023689E19B6
:104560002660DAE72A00380000F044FB061EE0D19E
:104570002169380000F096FAC7E7C0467FFBFFFFCD
:10458000F0B5A1B003901D008B890F0016001B062B
:1045900011D50B69002B0ED1402100F0CDFA386007
:1045A0003861002805D10C23039A0138136021B02B
:1045B000F0BD40237B61002308AC63612033637648
:1045C0001033A376079535002B78002B01D0252BCF
:1045D00046D1AB1B05930CD0320039000398FFF78E
:1045E0006DFF431C00D1AEE06269059B94466344B5
:1045F00063612B78002B00D1A5E0012200235242F9
:10460000626004A9543252186E1C2360E360A360F8
:104610001370A36531780522534800F025FA751C04
:1046200000281FD12268D30604D5532304A95B18A0
:1046300020211970130704D5532304A95B182B21DB
:10464000197033782A2B16D0350000210A20E36830
:104650002A786E1C303A092A4ED9002918D010E069
:104660000135B1E7404B2268C01A01238340134350
:1046700023602E00CEE7079B191D1B680791002BB6
:1046800001DB0B9304E05B42E360022313432360EE
:104690002B782E2B0AD16B782A2B35D1079B02352C
:1046A0001A1D1B680792002B2BDB09932F4E2978CC
:1046B0000322300000F0D8F9002806D04023801BE8
:1046C0008340226801351343236029780622284855
:1046D0006E1C217600F0C8F900283CD0254B002B39
:1046E00025D10722079B0733934308330793636958
:1046F000049A9B18636166E7434301219B183500C8
:10470000A6E701235B42D0E700230A201A00013507
:10471000636029786E1C3039092903D9002BC5D074
:104720000992C3E74243012352183500F1E707AB72
:1047300000933A00104B2100039800E000BF049062
:10474000049B0133D3D1BB890D985B0600D42EE7BF
:10475000012040422BE707AB00933A00064B2100B3
:10476000039800F079F8EAE7004E0008064E0008CA
:104770000A4E000800000000BD440008F7B515000F
:1047800001938A680B6900900C00934200DA1300D1
:1047900022002B6043321278002A01D001332B60B3
:1047A00023689B0602D52B6802332B6006272368FB
:1047B0001F4027D0230043331B785A1E93412268A1
:1047C000920630D42200019943320098089EB047E7
:1047D000431C25D0062320682A68E1680340002591
:1047E000042B03D18D1AEB43DB171D40A36822690C
:1047F000934201DD9B1AED180027BD4220D1002015
:1048000010E00137E3682A689B1ABB42D2DD220020
:104810000123193201990098089EB047431CF0D13A
:1048200001204042FEBD3020E118433108702100D4
:104830005A1C45310978A218433202331170C1E77E
:10484000220001231A3201990098089EB047431CA8
:10485000E6D00137D1E70000F0B589B004920A0034
:1048600043320593039002920A7E0C000E9B6E2A3F
:1048700000D186E01FD8632A33D008D8002A00D19F
:104880008CE0582A4DD0250042352A7030E0642A49
:1048900001D0692AF7D1196825680A1D280629D58B
:1048A00008681A60002803DA2D23029A4042137028
:1048B0006B4E0A274FE0732A74D008D86F2A1FD096
:1048C000702AE0D1202209680A43226003E0752A99
:1048D00016D0782AD7D12200782145321170614E46
:1048E00022E025001A684235111D196013682B70EB
:1048F000012365E008681A606906D3D500B2D1E7E4
:1049000019682568081D186008682E0605D5544EDC
:1049100008276F2A1BD00A2719E06D06F7D580B249
:10492000F5E745314E4E0A7018682268011D00688F
:104930001960150621D5D30702D520231A4322601A
:104940001027002803D1202322689A4322602300E5
:10495000002243331A706368A360002B58DB0422E3
:10496000216891432160002854D1029D002B5AD028
:104970002500337842352B7055E05506DBD580B2E3
:10498000D9E71A680D68101D4969186013682E066A
:1049900001D5196002E06D06FBD519800023029D48
:1049A00023614FE01A68111D1960156800216268C3
:1049B000280000F059F8002801D0401B60606368AF
:1049C00023610023029A13703CE023692A000499B2
:1049D0000398059DA847431C3ED023689B0715D428
:1049E000079BE068984239DA180037E0220001237B
:1049F000193204990398059EB047431C2CD0013509
:104A0000E368079A9B1AAB42F0DCE9E70025F7E779
:104A10000028ADD0029D3900FBF7FCFB735C013D23
:104A20002B700028F7D1082F09D12368DB0706D5A2
:104A300063682269934202DC3023013D2B70029BA4
:104A40005B1B2361059B07AA00932100049B03982D
:104A5000FFF794FE431CB8D10120404209B0F0BDDD
:104A6000114E0008224E0008C9B28218904201D1AE
:104A70000020704703788B42FBD00130F6E710B579
:104A8000884202D98B18984203D3002307E08B5C3D
:104A90008354013AFBD210BDCC5CC45401339A421A
:104AA000FAD1F8E770B50500002910D00C1F236873
:104AB000002B00DAE418280000F0D4F81D4A13682F
:104AC000002B05D163601460280000F0CCF870BDA5
:104AD000A34209D9216860188342F3D118685B6842
:104AE00041182160EEE713005A68002A01D0A24263
:104AF000F9D919685818A0420BD12068091858181C
:104B000019608242E0D110685268411819605A60F9
:104B1000DAE7A04202D90C232B60D5E721686018A0
:104B2000824203D1106852684118216062605C6063
:104B3000CAE7C04694000020032370B5CD1C9D43F6
:104B4000083506000C2D1ED20C25A9421DD83000B8
:104B500000F088F8254A14682100002919D1244C56
:104B60002368002B03D1300000F06AF82060290090
:104B7000300000F065F8431C2BD10C23300033606B
:104B800000F071F803E0002DDFDA0C233360002021
:104B900070BD0B685B1B19D40B2B03D90B60CC18B1
:104BA000256003E04B688C420DD11360300000F0AB
:104BB0005AF8200007220B30231D9043C31AE7D078
:104BC0005A42E250E4E763600C00EFE70C004968EA
:104BD000C3E70323C41C9C43A042E1D0211A300048
:104BE00000F02EF8431CDBD1C7E7C046940000203C
:104BF00098000020F8B507000D001600002905D127
:104C00001100FFF799FF04002000F8BD002A03D12E
:104C1000FFF748FF3400F7E700F026F82C00B04219
:104C2000F2D231003800FFF787FF041EECD02900D4
:104C30003200FFF711FC29003800FFF733FFE3E7EC
:104C4000002370B5064C050008002360FFF764FBE5
:104C5000431C03D12368002B00D02B6070BDC046DD
:104C6000C8040020704770470B1F1B68181F002BDB
:104C700001DA0B58C0187047F8B5C046F8BC08BC3C
:104C80009E467047F8B5C046F8BC08BC9E467047C3
:104C900076270008A4270008BC270008262800085B
:104CA000F4270008262800082628000826280008DF
:104CB0000C280008B2260008EA260008042700088D
:104CC000702700083C27000870270008702700089C
:104CD000702700085627000819C800005F6400000C
:104CE00007D00000030406080C1018203000000054
:104CF000000000000000000001020304060708098C
:104D00000000000001020304526573706F6E640DB1
:104D10000A00000042726F6164636173740D0A00DF
:104D20004261636B50726F700D0A000049443A2073
:104D300025642C2054696D656F75743A2025642CA8
:104D4000204163746976653A2025640049443A201D
:104D500025642C204163746976653A2025642C20F3
:104D60004E6578745F686F703A2025642C206E75EC
:104D70006D5F686F703A2025642C207369676E61DF
:104D80006C3A2025642C20626174746572793A2033
:104D9000256400002564202D3E202564202D3E2022
:104DA0002564202D3E202564202D3E202564202DC5
:104DB0003E202564202D3E202564202D3E202564A4
:104DC000202D3E202564202D3E202564000000007B
:104DD0004B696C6C656400004E65770052585F54F7
:104DE000696D656F75740D0A00000000557064618F
:104DF000746564206E65696768626F727300000095
:104E0000232D302B2000686C4C00656667454647B3
:104E10000030313233343536373839414243444536
:104E200046003031323334353637383961626364A5
:044E300065660000B3
:084E34002CB4FF7F0100000017
:044E3C00E900000881
:044E4000C1000008A5
:104E44000000200008000020000000000000000016
:104E5400000000000000000000000000000000004E
:104E6400000000000000000000000000000000003E
:104E7400000000000000000000000000000000002E
:104E8400000000000000000000000000000000001E
:104E9400000000000000000000000000000000000E
:084EA400000000000000000006
:04000005080043B1FB
:00000001FF
