:020000040800F2
:10000000002000201D4F0008B94C0008BB4C000820
:1000100000000000000000000000000000000000E0
:10002000000000000000000000000000BD4C0008BF
:100030000000000000000000BF4C0008C14C000898
:100040006D4F00086D4F00086D4F00086D4F0008A0
:100050006D4F00086D4F00086D4F0008C94C000837
:100060006D4F00086D4F0008D54C0008E54C0008A6
:100070006D4F00086D4F000800000000F54C0008AF
:10008000000000006D4F00080000000000000000AC
:100090006D4F0008000000006D4F00086D4F000814
:1000A0006D4F00086D4F00086D4F00086D4F000840
:1000B0006D4F00086D4F00086D4F00086D4F000830
:1000C00010B5064C2378002B07D1054B002B02D02E
:1000D000044800E000BF0123237010BD6800002029
:1000E0000000000010580008044B10B5002B03D08E
:1000F0000349044800E000BF10BDC04600000000F6
:100100006C00002010580008002243088B4274D372
:1001100003098B425FD3030A8B4244D3030B8B4208
:1001200028D3030C8B420DD3FF22090212BA030C11
:100130008B4202D31212090265D0030B8B4219D3F2
:1001400000E0090AC30B8B4201D3CB03C01A524112
:10015000830B8B4201D38B03C01A5241430B8B425A
:1001600001D34B03C01A5241030B8B4201D30B0343
:10017000C01A5241C30A8B4201D3CB02C01A52416A
:10018000830A8B4201D38B02C01A5241430A8B422D
:1001900001D34B02C01A5241030A8B4201D30B0216
:1001A000C01A5241CDD2C3098B4201D3CB01C01A30
:1001B000524183098B4201D38B01C01A524143093A
:1001C0008B4201D34B01C01A524103098B4201D328
:1001D0000B01C01A5241C3088B4201D3CB00C01A95
:1001E000524183088B4201D38B00C01A524143080D
:1001F0008B4201D34B00C01A5241411A00D2014632
:10020000524110467047FFE701B5002000F006F8A4
:1002100002BDC0460029F7D076E770477047C04658
:10022000002B11D1002A0FD1002900D1002802D0C3
:100230000021C943081C07B4024802A140180290DB
:1002400003BDC046D9FFFFFF03B4684601B502985D
:1002500000F006F8019B9E4602B00CBC7047C046F9
:10026000F0B54F464646D646C0B5040082B00D00F4
:10027000914698468B422FD82CD04146484600F0F4
:10028000B1F829000600200000F0ACF8331A9C46B3
:10029000203B9A4600D576E04B46524693401F00DD
:1002A0004B46624693401E00AF4228D825D05346A5
:1002B000A41BBD41002B00DA7BE00022002300924A
:1002C00001930123524693400193012362469340D8
:1002D000009318E08242D0D90022002300920193BB
:1002E0000A9B002B01D01C605D600098019902B050
:1002F0001CBC90469946A246F0BDA342D7D9002225
:100300000023009201936346002BE9D0FB07984637
:10031000414672080A437B0866460EE0AB4201D1B3
:10032000A2420CD8A41A9D41012024196D4100213C
:10033000013E24184D41002E06D0AB42EED9013EBD
:1003400024196D41002EF8D10098019953460019E7
:100350006941002B23DB2B005246D3402A00644620
:10036000E2401C0053461500002B2DDB26005746AB
:10037000BE40330026006746BE403200801A9941D5
:1003800000900191ACE7624620239B1A4A46DA406E
:100390006146130042468A4017001F4380E76246C9
:1003A00020239B1A2A0066469A402300F3401343F9
:1003B000D4E76246202300219B1A0022009101927B
:1003C0000122DA40019280E72023624626009B1A30
:1003D000DE402F00B0466646B74046463B003343FA
:1003E000C8E7C04610B5002903D100F007F8203057
:1003F00002E0081C00F002F810BDC0461C210123D9
:100400001B04984201D3000C10391B0A984201D3F7
:10041000000A08391B09984201D30009043902A2D5
:10042000105C40187047C04604030202010101013C
:1004300000000000000000000023C25C0133002A1D
:10044000FBD1581E7047000010B50400094B186816
:10045000FA218900FFF758FE00F086F8002801D045
:10046000012010BD013000222100404200F034F88C
:100470000020F6E70000002010B5084A136840216C
:100480000B4313600020FFF7DFFF041E02D001249E
:10049000200010BD04F0FCFAFAE7C046002002403C
:1004A000024A1368013313607047C0469C01002064
:1004B000014B18687047C0469C01002070B50400CD
:1004C000FFF7F6FF0500631C00D00134FFF7F0FFD3
:1004D000401BA042FAD370BD70B5002811DB840820
:1004E000134DC034A400625903231840C000FC33EC
:1004F0001E008640B24389010B4083401343635181
:1005000070BDC0B20F220240083A92080632920033
:10051000084BD3185D6803242040C000FF2214005C
:100520008440A54389010A4082402A435A60E7E794
:1005300000E100E000ED00E01F2318401E3B834077
:10054000014A13607047C04600E100E0BFF34F8FDF
:10055000034B044ADA60BFF34F8FC046FDE7C04645
:1005600000ED00E00400FA0501380A4B98420FD86C
:10057000094A50600948036A1B021B0AC021090688
:100580000B4303620023936007331360002070471E
:100590000120FCE7FFFFFF0010E000E000ED00E0BD
:1005A00070B51C25446C2540066C0124AC40746079
:1005B000046863608368102B04D003689960036843
:1005C000DA6070BD03689A600368D960F9E70000DB
:1005D00070B5041E3DD005681F4BE8181421FFF7C5
:1005E00093FD800060641D4B236425230222E254A6
:1005F0002B681B4A1A40A368E1680B4321690B432F
:1006000061690B43A1690B43E1690B43216A0B4309
:1006100013432B608023DB01A2689A4210D0114B58
:1006200019681C22656C15400F20A8408143196091
:100630001968606C02406068904002000A431A60CA
:100640000023E36325220121A154013AA354002091
:1006500070BD0120FCE7C046F8FFFDBF000002406E
:100660000F80FFFFA800024070B504002420205C2A
:10067000012832D02420012525540130205C012896
:1006800004D024230022E254022070BD243001351E
:1006900025540020E063256828680126B0432860BF
:1006A0002000FFF77DFF236B002B0BD0226813681F
:1006B0000E210B4313602268136801210B43136062
:1006C0000020E2E72268136804218B43136022684C
:1006D000136806310B431360EDE70220D5E710B530
:1006E0002523C35C022B06D00423C36320330022DE
:1006F000C254012010BD026813680E218B431360A1
:1007000001680A6801239A430A601C22416C0A406E
:10071000016C1C0094404C6025228354233300223A
:10072000C2540020E6E770B5036C196804682568B8
:100730001C23426C134004229A40114214D06A07D1
:1007400012D523689B0603D42368042293432360B5
:100750001C22436C1A40016C042393404B60036BD2
:10076000002B00D0984770BD02229A4011421AD047
:10077000AA0718D523689B0606D423680A22934348
:1007800023602523093AC2541C22436C1A40016C91
:10079000022393404B6024230022C254C36A002BDF
:1007A000E1D09847DFE708229A401142DBD02B07BF
:1007B000D9D523680E22934323600E32436C1A402E
:1007C000016C01231C0094404C60C36325228354B8
:1007D00023330022C254436B002BC4D09847C2E796
:1007E000C06B7047F0B5C64600B5002338E005265B
:1007F00000E00026AE4035003D430234A400554ED3
:10080000A551554C25684246D4432E0026404A68DF
:10081000D20302D5424615432E004F4D2E606D681F
:100820002E0026404A68920302D5424615432E0008
:10083000494D6E60AD682E0026404A68D20202D54E
:10084000424615432E00444DAE60ED682C404A6888
:10085000920202D542462A4314003F4AD460013333
:100860000A681400DC4072D001249C40224090466B
:10087000F5D04D68022D01D0122D0ED1DD080835BE
:10088000AD002F5807261E40B6000F22B2409743F6
:100890000A69B24016003E432E504D686E1E012E6E
:1008A00003D9112D01D0122D12D185685F000326C6
:1008B000BE40B5432E00CD68BD40354385604568D8
:1008C000A5434A681609012434409C402C434460E7
:1008D00007685E0003242500B540ED432F404A68B9
:1008E0001440B4403C430460C46825408C68B44064
:1008F0002C43C4604A68D200B1D5184D6C6B0126F8
:1009000034436C639C08A51CAD00124EAF590326FE
:100910001E40B5000F26AE40B743A026F605B042F4
:1009200000D166E70E4EB0420BD00E4EB0420AD058
:100930000D4EB04209D00D4EB04200D157E7062609
:1009400058E7012656E7022654E7032652E704BC7F
:100950009046F0BD0000014000040140001002403C
:100960000004005000080050000C0050001C005013
:10097000002A01D1816270478161FCE743695940D7
:100980004161704710B5054B5B69184200D110BD3D
:10099000024B586103F0FEFDF9E7C0460004014038
:1009A00003689A69920701D500229A6203689A69DE
:1009B000D20703D49A6901210A439A617047000063
:1009C000F0B5059C05686868660D8027FF00374014
:1009D000054E3E43B0438905890D120411430B4374
:1009E000234303436B60F0BDFF63FF0370B5040056
:1009F0000E00150003689B69DB0619D523689A6908
:100A0000920617D4731CF9D0FFF752FD401BB04279
:100A100001D8002EF2D1636C20221343636441237A
:100A2000E25400232232A354023AA35401201AE0D4
:100A3000002018E01022DA6123682025DD61200003
:100A4000FFF7AEFF2268536807490B405360636CA1
:100A50000422134363644123E55400233E32A3542C
:100A6000023AA354012070BD00E800FE70B50400F6
:100A70000D00160023689B699B071CD432002900D7
:100A80002000FFF7B3FF002817D16B1CF2D0FFF74F
:100A90000FFD801BA84201D8002DEBD1636C2022F2
:100AA000134363644123E25400232232A354023AE5
:100AB000A354012000E0002070BD0120FCE7F8B540
:100AC00006000C0017001D0033689B6923401B1BA8
:100AD0005A425341BB4216D16B1CF5D0FFF7E8FCDC
:100AE000069BC01AA84201D8002DEDD1736C2022BC
:100AF000134373644123F25400232232B354023A65
:100B0000B354012000E00020F8BD000070B582B0B1
:100B1000040016001D008023EAB2184800905B0410
:100B20002000FFF74DFF079A06992000FFF79EFF70
:100B300000281ED1012D0ED12368F6B29E62079BBC
:100B40000093069B002280212000FFF7B8FF0028B9
:100B500010D001200EE02368320A9A62079A0699A3
:100B60002000FFF783FF002806D12368F6B29E62BB
:100B7000E5E7012002B070BD0120FBE70020008006
:100B800070B582B0040016001D00DAB2174B009356
:100B90000023FFF715FF079A06992000FFF766FF6D
:100BA00000281ED1012D0ED12368F6B29E62079B4C
:100BB0000093069B002240212000FFF780FF0028C1
:100BC00010D001200EE02368320A9A62079A069933
:100BD0002000FFF74BFF002806D12368F6B29E6283
:100BE000E5E7012002B070BD0120FBE70020008096
:100BF00070B505000C0016002B689B699B061AD483
:100C0000320021002800FFF7F1FE002815D1FFF780
:100C10004FFC801BA04201D8002CEDD16B6C202230
:100C200013436B644123EA5400232232AB54023A4B
:100C3000AB54012070BD0020FCE70120FAE7000062
:100C400010B5041E59D04123C35C002B43D041236F
:100C50002422E2542268136801218B431360226826
:100C6000274B61680B4013612268936825490B404C
:100C70009360E368012B34D0226884231B02A168AF
:100C80000B439360E368022B32D0226851681E4BFD
:100C90000B4353602268D3681A490B40D360236921
:100CA00062691343A269120221681343CB60226870
:100CB000E369216A0B4313602268136801210B4327
:100CC00013600023636441221F31A1542363013266
:100CD000A354002010BD40330022C25403F0E6FEAE
:100CE000B5E7226880231B02A1680B439360C9E724
:100CF0002368802212015A60C7E70120EAE7C04654
:100D0000FFFFFFF0FF7FFFFF00800002F0B587B01C
:100D100005000391049205930CAB10CB1E88412370
:100D2000C35C202B00D0B3E0002C18D0002E16D0CE
:100D30004023C35C012B00D1ADE040230122C2540B
:100D4000FFF7B6FB0700802100901923012209025A
:100D50002800FFF7B4FE002806D0012099E0802388
:100D60009B006B64012094E041232122EA5401336B
:100D70001F32EA5400236B646C626E856B630197CB
:100D80000E9B0093059B049A03992800FFF7BEFE73
:100D900000280FD16B8D9BB2FF2B10D9FF232B8521
:100DA0007F3B002200925B04FF3203992800FFF78B
:100DB00007FE21E040230022EA54012069E06A8D09
:100DC00092B22A858023D2B2002100919B0403991C
:100DD0002800FFF7F5FD0FE06A8D92B22A85802387
:100DE000D2B2002100919B0403992800FFF7E8FD8F
:100DF0006B8D9BB2002B34D03A000E992800FFF780
:100E000035FE002849D12B686A6A12789A626B6AAB
:100E100001336B626B8D013B9BB26B852B8D013B6C
:100E20009BB22B856A8D92B2002AE1D0002BDFD1D4
:100E300000970E9B002280212800FFF740FE00282B
:100E40002DD16B8D9BB2FF2BC6D9FF232B857F3B0A
:100E5000002200925B04FF3203992800FFF7B0FDE7
:100E6000C6E73A000E992800FFF7C2FE002818D105
:100E70002B682022DA6129684B680B4C23404B60B9
:100E80004123EA5400232232AB54023AAB5400E02F
:100E9000022007B0F0BD0220FBE70120F9E70120A6
:100EA000F7E70120F5E7C04600E800FEF0B587B09F
:100EB00004000391049205930CAB20CB1F884123BF
:100EC000C35C202B00D0B5E0002D18D0002F16D029
:100ED0004023C35C012B00D1AFE040230122C25468
:100EE000FFF7E6FA0600802100901923012209028B
:100EF0002000FFF7E4FD002806D001209BE08023BE
:100F00009B006364012096E041232222E2540133D6
:100F10001E32E25400236364656267856363019651
:100F20000E9B0093059B049A03992000FFF728FE6F
:100F300000280FD1638D9BB2FF2B10D9FF2323858F
:100F40007F3B424A00925B04FF2203992000FFF797
:100F500037FD21E040230022E25401206BE0628D46
:100F600092B222858023D2B2384900919B04039922
:100F70002000FFF725FD0FE0628D92B222858023CD
:100F8000D2B2002100919B0403992000FFF718FDC5
:100F9000638D9BB2002B36D000960E9B002204215D
:100FA0002000FFF78CFD002849D123685B6A626A44
:100FB0001370636A01336362238D013B9BB2238507
:100FC000628D013A92B26285628D92B2002ADFD0C0
:100FD000002BDDD100960E9B002280212000FFF720
:100FE0006EFD00282DD1638D9BB2FF2BC4D9FF234A
:100FF00023857F3B002200925B04FF32039920008F
:10100000FFF7DEFCC4E732000E992000FFF7F0FD89
:10101000002818D123682022DA6121684B680C4D22
:101020002B404B604123E25400232232A354023A66
:10103000A35400E0022007B0F0BD0220FBE701202E
:10104000F9E70120F7E70120F5E7C046002400801A
:1010500000E800FEF0B54123C35C202B20D12033F3
:10106000C35C012B1ED040240122025541252423BC
:1010700043550668336893433360066833680A4F04
:101080003B403360066833681943316001680B6880
:1010900013430B602023435500230355002000E039
:1010A0000220F0BD0220FCE7FFEFFFFFF0B5412377
:1010B000C35C202B1ED12033C35C012B1CD04024E9
:1010C0000122025541252423435506683368934382
:1010D000336006683368094F3B40090219433160A9
:1010E00001680B6813430B6020234355002303550D
:1010F000002000E00220F0BD0220FCE7FFF0FFFF2F
:1011000010B5264BD9680C230B40082B42D00C2B72
:1011100011D0042B09D0214B5A68520B07231340DE
:10112000013380200002984010BD1C4B1B68DB0679
:1011300032D51B48F8E78A0C0F231340194AD05CBC
:10114000890D032211400131144BDB68DB030DD400
:10115000124B1B68DB0613D54201121A93019B1A2E
:10116000DB001B181802FEF7CFFFDDE74201121A61
:1011700093019B1ADB001B185802FEF7C5FFD3E74B
:101180004201121A93019B1ADB001B189802FEF70A
:10119000BBFFC9E70448C7E70448C5E700100240A1
:1011A00000093D009858000800127A000024F4005D
:1011B000F0B583B0041E00D197E2CA4BDA680C2563
:1011C0001540DA688026760216400368DB0736D5BC
:1011D000082D2CD00C2D28D0636880225202934217
:1011E0004DD0A022D202934250D0BE4B1A68BE49C5
:1011F0000A401A601A68802149020A400192019A45
:101200001A68BA490A401A606368002B4AD0FFF78F
:101210004FF90700B34B1B689B0310D4FFF748F945
:10122000C01B6428F6D9032060E2002ED4D0AD4B59
:101230001B689B0303D56368002B00D158E2236829
:101240009B0764D5E368042D3CD00C2D38D0002BCF
:1012500000D1AEE0A3490A680920824313430B6022
:10126000FFF726F906009F4B1B685B0700D597E048
:10127000FFF71EF9801B0228F5D9032036E2994AB0
:10128000116880235B020B431360BDE7954B19681F
:101290008022D2020A431A601968802252020A434D
:1012A0001A60B1E7FFF704F907008E4B1B689B0338
:1012B000C5D5FFF7FDF8C01B6428F6D9032015E259
:1012C000002EC4D1874A1268520702D5002B00D1E4
:1012D00010E2844E726886490A40216909020A4375
:1012E0007260326809218A4313433360FFF708FFB5
:1012F000F26812090F2313407E4AD35CD8407E4B1C
:1013000018600020FFF7A0F8002800D0EEE1236865
:10131000DB062CD5002D5FD1724B1B689B0503D5D6
:10132000E369002B00D1E7E16E4A536873490B4033
:10133000616A0B43536053681B021B0A216A09064A
:101340000B435360636A590B013180231B028B40AE
:10135000D16809090F220A4066498A5CD340664A6F
:1013600013600020FFF770F8002800D0BEE123686A
:101370001B077DD56369002B67D05A4A136D012185
:101380000B431365FFF794F80600564B1B6D9B0744
:101390006ED4FFF78DF8801B0228F6D90320A5E153
:1013A00050494B68524A13402269120213434B6062
:1013B000ADE74C4A136801218B431360FFF778F8BF
:1013C0000600484B1B685B07A1D5FFF771F8801B2F
:1013D0000228F6D9032089E1E369002B22D0414A93
:1013E000116880235B000B431360FFF761F8060070
:1013F0003C4B1B689B0506D4FFF75AF8801B02285C
:10140000F6D9032072E1374A53683C490B40616AC0
:101410000B43536053681B021B0A216A09060B43E6
:101420005360A4E72F4A136835490B401360FFF758
:101430003FF806002B4B1B689B0598D5FFF738F843
:10144000801B0228F6D9032050E1264A136D0121A2
:101450008B431365FFF72CF80600224B1B6D9B078F
:1014600006D5FFF725F8801B0228F6D903203DE1B9
:1014700023685B0700D48CE01A4B9B6BDB001BD40A
:10148000184A916B80235B050B43936301261D4B28
:101490001B68DB0512D5A36880225200934235D029
:1014A000002B4BD10F4B1A6D15490A401A651A6D66
:1014B00015490A401A652FE00026E8E7114A11682D
:1014C00080235B000B431360FEF7F2FF07000D4B18
:1014D0001B68DB05DFD4FEF7EBFFC01B6428F6D9E1
:1014E000032003E100100240FFFFFEFFFFFFFBFFB0
:1014F000FFE0FFFFA458000800000020FF1FFFFFCF
:10150000FFFEFFFF00700040FFFBFFFF7E4A116DF2
:1015100080235B000B431365A368002B28D0FEF7E4
:10152000C7FF0700784B1B6D9B0530D4FEF7C0FF4B
:10153000C01B764B9842F5D90320D7E0A022D200F9
:10154000934209D0704B1A6D71490A401A651A6DA1
:1015500070490A401A65DFE76B4B196D013AFF3A93
:101560000A431A65196D802252000A431A65D3E7AF
:10157000FEF79EFF0700644B1B6D9B0507D5FEF72A
:1015800097FFC01B614B9842F5D90320AEE0012EB6
:1015900021D023689B063CD5A369002B21D05A4B50
:1015A00099680120014399605A6B02435A635A4A71
:1015B000116A80239B010B431362FEF779FF06003B
:1015C000514B9B689B0724D4FEF772FF801B0228B7
:1015D000F6D903208AE04C4A936B50490B40936341
:1015E000D7E7494A936801218B4393604A4A136ABB
:1015F0004B490B401362FEF75BFF0600424B9B68B2
:101600009B0706D5FEF754FF801B0228F6D903205E
:101610006CE0A36A002B00D170E00C2D49D0022BA6
:1016200012D0394A13683F490B401360FEF740FF60
:101630000400354B1B689B0139D5FEF739FF001BB1
:101640000228F6D9032051E02F4A136835490B4090
:101650001360FEF72DFF05002B4B1B689B0106D581
:10166000FEF726FF401B0228F6D903203EE026495C
:10167000CB682D4A1340E26A206B0243606B024341
:101680001343CB600A6880235B0413430B60FEF7AF
:101690000FFF04001C4B1B689B0106D4FEF708FFDC
:1016A000001B0228F6D9032020E000201EE00020C5
:1016B0001CE0012B24D0144BDA6880235B0213401A
:1016C000E16A8B4201D0012010E0F0239B0313401C
:1016D000216B8B4201D0012008E0C0231B041A407B
:1016E000636B9A420ED0012000E0012003B0F0BDF0
:1016F0000120FBE70120F9E70120F7E70020F5E7EB
:101700000120F3E70020F1E70010024088130000F9
:10171000FFFEFFFFFFFBFFFF00000140FFFFFFEFA9
:10172000FFDFFFFFFFFFFFFEFFFF02FF70B50400BA
:101730000D00002800D1BAE05F4B1A680123134066
:101740008B420BD25C490B68012293432B430B6005
:101750000B681A40AA4201D00120A9E023689B0728
:1017600006D5564AD368F0218B43A1680B43D3605A
:101770002368DB0764D56368022B09D0032B29D0CB
:10178000012B2DD04D4A1268920506D401208FE01E
:101790004A4A1268920300D48BE04849CA68032081
:1017A00082431343CB60FEF783FE06006368022B7F
:1017B0001CD0032B28D0012B34D0404BDB680C22EB
:1017C0001A423DD0FEF774FE801B3D4B9842F4D97F
:1017D00003206DE0394A12689201DED4012067E0EF
:1017E000364A12685207D8D4012061E0334BDA68D8
:1017F0000C231340082B23D0FEF75AFE801B304BDE
:101800009842F3D9032053E02C4BDA680C231340A1
:101810000C2B15D0FEF74CFE801B294B9842F3D9B8
:10182000032045E0254BDA680C231340042B07D036
:10183000FEF73EFE801B224B9842F3D9032037E08F
:101840001D4B1A6801231340AB420BD91A490B6890
:10185000012293432B430B600B681A40AA4201D02C
:10186000012025E023685B0706D5144AD368154993
:101870000B40E1680B43D36023681B0707D50F4972
:10188000CB68114A13402269D2001343CB60FFF7A3
:1018900037FC0A4BDA6812090F2313400B4AD35C5A
:1018A000D8400B4B18600020FEF7CEFD00E0012071
:1018B00070BD0120FCE7C04600200240001002403D
:1018C00088130000FFF8FFFFFFC7FFFFA4580008C0
:1018D00000000020014B18687047C046000000203F
:1018E00010B5FFF7F7FF044BDA68120A072313401D
:1018F000024AD35CD84010BD00100240B458000822
:1019000010B5FFF7E7FF044BDA68D20A072313404C
:10191000024AD35CD84010BD00100240B458000801
:1019200070B5040082231B0102681A425AD0704B22
:101930009B6BDB0000D593E06D4A916B80235B05C8
:101940000B43936301256B4B1B68DB0500D489E0D7
:10195000674B1A68C0239B031A4061680B4093428F
:1019600000D194E0C0239B020A001A409A4200D1A1
:1019700095E05F4B1B6DC022920213401FD01140B7
:10198000994202D02268920608D4C0229202A1682D
:101990000A409A4213D023681B0510D5544B186D8A
:1019A000554A02401E6D8021090331431965196DA6
:1019B000524E314019651A65C30500D576E063685B
:1019C000C022920219001140914200D17EE04849A4
:1019D0000B6DC02292026068024013430B65012D1B
:1019E00000D17DE02368DB0706D5414AD36C032193
:1019F0008B43E1680B43D36423689B0706D53C4ABD
:101A0000D36C0C218B4321690B43D36423685B07A0
:101A100006D5374AD36C3A490B4061690B43D3640E
:101A200023681B0706D5324AD36C36490B40A1699F
:101A30000B43D36423685B0606D52D4AD36C324929
:101A40000B40216A0B43D36423681B064ED5284AFA
:101A5000D36C2E490B40E1690B43D364002070BD69
:101A6000002570E7234A116880235B000B43136055
:101A7000FEF71EFD06001F4B1B68DB0500D567E760
:101A8000FEF716FD801B6428F5D90320E7E7C02385
:101A90009B03A0680340934200D063E769E7144BBF
:101AA0001B689B0300D464E70120D8E7FEF700FD24
:101AB00006000F4B1B6D9B0500D580E7FEF7F8FC79
:101AC000801B134B9842F4D90320C8E708490A68E1
:101AD00010480240C0208003034013430B6076E7A8
:101AE0000A008B6B0C490B4093637BE70020B6E741
:101AF0000010024000700040FFFFFCFFFFFFF7FFF7
:101B0000FFF3FFFFFFCFFFFFFFFFFFFBFFFFF3FF31
:101B100088130000FFFFCFFFFFFFFFEFF8B50600BF
:101B20000C0017001D0033689B6823401B1B5A42A2
:101B30005341BB423BD06B1CF5D0FEF7B9FC069B72
:101B4000C01AA84201D2002DEDD132685368E021BD
:101B50008B43536082235B0072689A420CD08023CF
:101B60009B01B26A9A4216D051230122F254013BE2
:101B70000022F25403201BE0B36880221202934239
:101B800003D08022D2009342E9D132681368402109
:101B90008B431360E3E73268136806490B40136018
:101BA0003268116880239B010B431360DCE700203F
:101BB000F8BDC046FFDFFFFF10B582B004008220F1
:101BC00040006368834206D05120205C052811D074
:101BD000002002B010BD00920B00002280212000E6
:101BE000FFF79CFF0028F4D0636D20221343636548
:101BF0000320EEE700920B00002201212000FFF7F6
:101C00008DFF0028E5D0636D202213436365032018
:101C1000DFE730B583B00400822040006368834270
:101C200018D0822040006368834231D18023DB00DA
:101C3000A06898421DD000920B0000228021200055
:101C4000FFF76CFF00282CD0636D202213436365DF
:101C5000032026E0A36880200002834203D0802076
:101C6000C0008342DDD1206803684025AB43036098
:101C7000D7E700920B00002201212000FFF74EFF62
:101C800000280ED0636D202213436365032008E013
:101C900000920B00002201212000FFF73FFF0028E7
:101CA00001D103B030BD636D20221343636503206F
:101CB000F7E7000010B5041E3BD0002383625133C8
:101CC000C35C002B2FD051220223A35421680B6840
:101CD000402083430B606368A1680B43E1680B43BA
:101CE00021690B4361690B4380218900A069014090
:101CF0000B43E1690B43216A0B432168A06A03434C
:101D00000B60618B04230B402168606A03434B60C6
:101D10002168CB6908480340CB6100236365013328
:101D2000A354002010BD50330022C25402F0F0FE34
:101D3000C9E70120F6E7C046FFF7FFFFF0B585B021
:101D40000400019116001F005023C35C012B00D139
:101D5000BFE050230122C254FEF7AAFB0500512325
:101D6000E35C012B08D0022051230122E254013B05
:101D70000022E25405B0F0BD0199002900D19AE09B
:101D8000002E00D199E050330322E2540023636512
:101D90002163A686E686A363A387E387636423643F
:101DA00080231B02A2689A421DD023681A6852063B
:101DB00003D41A6840210A431A6080231B01E26899
:101DC0009A4217D06368002B01D0012E48D1236BB3
:101DD0001B7822681373236B01332363E38E013B6B
:101DE0009BB2E3863CE0226811688023DB010B4351
:101DF0001360DAE76368002B01D0012E14D1236849
:101E0000226B1288DA60236B02332363E38E013B7B
:101E10009BB2E38608E0FEF74BFB401BB84201D3C0
:101E20007B1C4CD1002F4CD0E38E9BB2002B2AD0D0
:101E300023689A689207EED5226B1288DA60236BCA
:101E400002332363E38E013B9BB2E386ECE7FEF7AC
:101E50002FFB401BB84201D37B1C34D1002F34D060
:101E6000E38E9BB2002B0ED023689A689207EED5C2
:101E7000226B12781A73236B01332363E38E013BC9
:101E80009BB2E386ECE72A0039002000FFF794FEBE
:101E9000002801D020236365A368002B06D103939B
:101EA0002368DA6803929B680393039B636D002B9E
:101EB0000DD1002058E7012056E7012054E7032008
:101EC00052E7032050E703204EE703204CE70120B0
:101ED0004AE702204EE7F0B585B004000E000192FB
:101EE0001D005023C35C012B00D108E150230122C7
:101EF000C254FEF7DDFA07005123E35CDBB26268EF
:101F0000012B14D0822149008A4208D0022051239B
:101F10000122E254013B0022E25405B0F0BDA26868
:101F2000002A00D0DDE0042B01D00220EFE7002ED4
:101F300000D1D8E0019B002B00D1D6E0002D00D1CC
:101F4000D5E05123E35C042B02D051230522E25457
:101F500000236365019AA263E587A5872663E5866A
:101F6000A5862364636423681A68520603D41A683A
:101F700040210A431A6080231B01E2689A4211D073
:101F80006368002B01D0012D0AD1236B1B782268D6
:101F90001373236B01332363E38E013B9BB2E38610
:101FA000012569E06368002B01D0012D0AD1236867
:101FB000226B1288DA60236B02332363E38E013BCA
:101FC0009BB2E38601251BE023689A68D2070ED5F1
:101FD000E28F92B2002A0AD0DB68A26B1380A36B57
:101FE0000233A363E38F013B9BB2E3870125FEF736
:101FF0005FFAC01B0A9B984202D3013300D078E0FD
:10200000E38E9BB2002B03D1E38F9BB2002B51D008
:1020100023689A689207D7D5E28E92B2002AD3D06D
:10202000012DD1D1226B1288DA60236B0233236336
:10203000E38E013B9BB2E3860025C5E723689A68DF
:10204000D2070ED5E28F92B2002A0AD0DB68A26BCB
:102050001370A36B0133A363E38F013B9BB2E38750
:102060000125FEF725FAC01B0A9B984201D30133D4
:1020700041D10A9B002B40D0E38E9BB2002B03D1B1
:10208000E38F9BB2002B15D023689A689207D5D5B1
:10209000E28E92B2002AD1D0012DCFD1226B1278DC
:1020A0001A73236B01332363E38E013B9BB2E386F8
:1020B0000025C3E73A000A992000FFF77DFD0028BC
:1020C00003D020236365012021E7A368002B00D003
:1020D0001DE703932368DA6803929B680393039BCD
:1020E00015E7022013E7012011E701200FE7012087
:1020F0000DE703200BE7032009E7032007E7022091
:102100000BE70000F0B585B004000D0016001F00BD
:1021100082235B0042689A4217D05023E35C012B74
:1021200000D19CE050230122E254FEF7C1F9039054
:102130005123E35C012B14D0022051230122E254ED
:10214000013B0022E25405B0F0BD8368002BE4D1CE
:1021500051330422C254009733000A00FFF7BBFE3C
:10216000F1E7002D6DD0002E6DD050330422E254E3
:1021700000236365A563A687E6872363A386E386BA
:102180002364636480231B02A2689A420BD02368F5
:102190001A68520603D41A6840210A431A60E36899
:1021A000002B10D02CE0226813682E490B401360DE
:1021B000EDE7FEF77DF9039BC01AB84201D37B1C03
:1021C00043D1002F43D0E38F9BB2002B2BD0236849
:1021D0009A68D207EDD51B7BA26B1370A36B0133FA
:1021E000A363E38F013B9BB2E387ECE7FEF760F963
:1021F000039BC01AB84201D37B1C2AD1002F2AD0DE
:10220000E38F9BB2002B0ED023689A68D207EDD5DE
:10221000DB68A26B1380A36B0233A363E38F013BE4
:102220009BB2E387ECE7039A39002000FFF7F1FC4B
:10223000002801D020236365636D002B0DD10020A1
:102240007BE7012079E7012077E7032075E703208A
:1022500073E7032071E703206FE701206DE7022099
:1022600071E7C046FFBFFFFF03688022D20590429E
:1022700005D0124A904202D0114A904203D17022F6
:1022800093434A6813438022D205904205D00B4AFB
:10229000904202D00A4A904203D10A4A1340CA68C7
:1022A0001343802293430A69134303608B68C3621C
:1022B0000B688362012343617047C04600080140F8
:1022C00000140140FFFCFFFF30B5036A046A0125DA
:1022D000AC4304628469EF35AC43120122430A2403
:1022E000A34319438261016230BD000030B5036A27
:1022F0001024A34303628469036A054D2C40120332
:102300002243A024A343090119438261016230BD25
:10231000FF0FFFFF0B0081687022914319430723D1
:10232000194381607047000030B58468034D2C402C
:102330001B021A4311432143816030BDFF00FFFFA0
:1023400070B5041E14D03923C35C002B0AD0392584
:1023500002236355211D2068FFF786FF0123635583
:10236000002070BD38330022C25402F0FFFBEEE7BC
:102370000120F6E70268D36801210B43D3600268AD
:10238000916807230B40062B03D0136801210B43F0
:1023900013600020704700000268D36801218B435E
:1023A000D3600368196A044A114203D11A680121F3
:1023B0008A431A60002070471111000010B5040014
:1023C0003823C35C012B66D038230122C254013369
:1023D0000132C254026893683048034093600B682E
:1023E000402B4ED015D9602B41D021D9702B2BD04A
:1023F00080229201934232D1CB684A688968206872
:10240000FFF792FF226891688023DB010B43936002
:1024100025E0102B07D004D9202B04D0302B02D07C
:102420001DE0002B1BD119002068FFF773FF16E099
:10243000502B14D1CA6849682068FFF745FF502126
:102440002068FFF767FF0AE0CB684A688968206860
:10245000FFF76AFF2268936877210B439360392363
:102460000122E254013B0022E254002010BDCA6860
:1024700049682068FFF73AFF60212068FFF74AFFAC
:10248000EDE7CA6849682068FFF71EFF4021206811
:10249000FFF740FFE3E70220E8E7C0468800FFFFC0
:1024A000704770477047704710B5040003681A6999
:1024B00092070FD5DA6892070CD5032252421A61AF
:1024C0000123037603689B699B0755D0FFF7E9FF5B
:1024D0000023237623681A69520712D5DA68520757
:1024E0000FD5052252421A610223237623689A6986
:1024F000C0239B001A4245D02000FFF7D2FF0023E3
:10250000237623681A69120710D5DA6812070DD5E9
:10251000092252421A61042323762368DB699B0750
:1025200037D02000FFF7BDFF0023237623681A6908
:10253000D20612D5DA68D2060FD5112252421A619C
:10254000082323762368DA69C0239B001A4227D028
:102550002000FFF7A6FF0023237623681A69D2071D
:1025600002D5DA68D20722D423681A69520602D546
:10257000DA68520622D410BDFFF792FF2000FFF761
:1025800091FFA5E72000FFF78BFF2000FFF78AFFF0
:10259000B5E72000FFF784FF2000FFF783FFC3E7C4
:1025A0002000FFF77DFF2000FFF77CFFD3E702222A
:1025B00052421A61200001F0C9FFD5E74122524280
:1025C0001A612000FFF76FFFD5E7F0B53823C35C31
:1025D000012B1BD0382601239C4683553927013314
:1025E000C3550268546893687025AC430D682C434A
:1025F0008025AB431D004B682B43546002689360F9
:102600006346C355002383550020F0BD0220FCE73C
:1026100002681368C0218B4313602023436770470F
:102620000268136806490B401360026893682331FF
:10263000FF318B4393602023836700230366704739
:10264000DFFEFFFF10B50400806F202851D1002964
:1026500051D0002A51D080235B01A068984238D025
:102660007023E35C012B4AD070230120E0546165A4
:10267000183BE2520023E3672233A367E36E002B8B
:1026800013D02049D962E36E1F491963E36E1F49D5
:102690005963E36E00219963216824311300626D50
:1026A000E06EFDF7E1FF00281AD170230022E2540A
:1026B0002268116890330B431360226893680121EC
:1026C0000B439360226893683F310B439360002073
:1026D00010E02369002BC3D1CB07C1D5012009E04D
:1026E0001023E36760330022E254503B636701200C
:1026F00000E0022010BD0120FCE70120FAE70220E3
:10270000F8E7C0469D270008E3270008EF270008E8
:1027100070B50400416F856F03689A68120601D591
:10272000212907D023689A68520634D5222D19D062
:10273000002031E09A685F318A439A60806E0028F9
:1027400003D0FDF7CCFF002803D12000FFF760FF86
:10275000E8E7A06EFEF744F82028F6D11023E367DF
:102760001D3819E09A6840218A439A60E06E00287B
:1027700003D0FDF7B4FF002804D12000FFF750FF7D
:10278000002009E0E06EFEF72BF82028F5D1102399
:10279000E3671D3800E0002070BD704710B5836A04
:1027A00002681268920614D45A22002199521968BC
:1027B0000A680A4802400A6019688A680330FF30D4
:1027C00082438A6019688A683F3082438A60202287
:1027D0009A671800FFF7E1FF10BDC046FFFEFFFF3C
:1027E000704710B5806AFFF7FBFF10BD704770B5EA
:1027F000846A626FA56F23689B681B0601D5212A36
:102800000DD023689B685B0601D5222D0ED0E36FA7
:1028100010221343E3672000FFF7E8FF70BD522347
:102820000022E2522000FFF7F3FEEAE75A230022DB
:10283000E2522000FFF7F4FEE9E70000D0B5040003
:10284000016883680269134342691343C2691343F1
:102850000A68C048024013430B6022685368BE49AF
:102860000B40E1680B435360A1692268BB4B9A425D
:1028700001D0236A19439368B94803400B4393601E
:102880002268B84B9A4216D0B74B9A4227D0B34B26
:102890009A4239D01023B1498A4257D0802212027D
:1028A000E169914200D18CE0082B00D949E19B00FD
:1028B000AE4AD3589F46AE4BD96C03230B40012B35
:1028C00009D0002B05D0022B3AD0032B05D01023C2
:1028D000E1E70123DFE70423DDE70823DBE7A44B7F
:1028E000D96C0C230B40042B0AD005D9082B29D016
:1028F0000C2B07D10823CEE7002B03D10023CAE716
:102900000423C8E71023C6E7994BDB6CC0210901FB
:102910000B408021C9008B420ED009D980210901CA
:102920008B4211D0C02109018B4207D10823B2E7A5
:10293000002B03D10023AEE70423ACE71023AAE762
:102940000223A8E70223A6E70223A4E7022B2DD047
:1029500007D9042B30D0082B00D0F5E080200002EE
:1029600007E0002B00D0EFE0FEF7BAFF002800D10F
:10297000ECE0626853009B18834200D9E8E013033F
:10298000834200D206E1070E06025008002180199A
:1029900079410023FDF744FC764BC218764B9A42EE
:1029A00000D9F9E02368D860002085E0704B1B68EF
:1029B000DB0604D47148DCE7FEF7A2FBD6E77048DB
:1029C000D7E7082B62D89B006E4AD3589F46FEF784
:1029D00087FF400063685B08C0186168FDF794FBDF
:1029E00003041B0C002068491A00103A8A4200D9DF
:1029F000D4E00F22190091435B08083A13400B43BF
:102A00002268D36058E0FEF77BFF400063685B08F4
:102A1000C0186168FDF778FB03041B0C0020E2E797
:102A2000534B1B68DB060BD563685808574B9C4615
:102A300060446168FDF768FB03041B0C0020D2E7CB
:102A400063685808524B9C4660446168FDF75CFB24
:102A500003041B0C0020C6E7FEF752FB400063682E
:102A60005B08C0186168FDF74FFB03041B0C0020D6
:102A7000B9E76368580880235B029C46604461683C
:102A8000FDF742FB03041B0C0020ACE701200023F0
:102A9000A9E7FEF725FF63685B08C0186168FDF7CA
:102AA00033FB03041B0C002037491A00103A8A42FA
:102AB00000D975E02268D360002323666366D0BD29
:102AC000FEF71EFF63685B08C0186168FDF71CFB1A
:102AD00003041B0C0020E7E7254B1B68DB060BD526
:102AE00063685808264B9C4660446168FDF70CFB00
:102AF00003041B0C0020D7E7636858081F4B9C4653
:102B000060446168FDF700FB03041B0C0020CBE769
:102B1000FEF7F6FA63685B08C0186168FDF7F4FA1F
:102B200003041B0C0020BFE76368580880231B02C6
:102B30009C4660446168FDF7E7FA03041B0C002023
:102B4000B2E701200023AFE70120B5E70020B3E79B
:102B50000120B1E7F369FFEFFFCFFFFF004800401E
:102B6000FFF4FFFF003801400044004028580008EF
:102B70000010024000FDFFFFFFFC0F000024F400E6
:102B800000093D004C580008EFFF000000127A00D9
:102B90000048E80101208FE701208DE701208BE745
:102BA000012089E7436ADB0706D5026853682C4990
:102BB0000B40816A0B435360436A9B0706D502684A
:102BC000536828490B40C16A0B435360436A5B0753
:102BD00006D50268536824490B40016B0B435360D0
:102BE000436A1B0706D50268536820490B40416BB6
:102BF0000B435360436ADB0606D5026893681C49A1
:102C00000B40816B0B439360436A9B0606D50268B9
:102C1000936818490B40C16B0B439360436A5B0692
:102C20000BD50268536814490B40016C0B43536089
:102C300080235B03026C9A420AD0436A1B0606D5C6
:102C4000026853680D490B40816C0B435360704719
:102C5000026853680A490B40416C0B435360ECE730
:102C6000FFFFFDFFFFFFFEFFFFFFFBFFFF7FFFFFFB
:102C7000FFEFFFFFFFDFFFFFFFFFEFFFFFFFF7FFAC
:102C8000FFFF9FFFF0B5C64600B506000C00170019
:102C90009846069D3368DB6923401B1B5A4253410B
:102CA000BB421CD16B1CF5D0FDF702FC4346C01A99
:102CB000A84201D8002DEDD1326813680A490B40B3
:102CC000136032689368A331FF318B4393602023F4
:102CD0007367B36750330022F254032000E00020F2
:102CE00004BC9046F0BDC0465FFEFFFFF0B585B066
:102CF00004000E0017001D00436F202B5FD1002938
:102D000060D0002A60D080235B0182689A4218D08C
:102D10007023E35C012B59D070230122E25400237D
:102D2000E36721336367FDF7C3FB03905023E7524A
:102D30000233E75280235B01A2689A4208D0002741
:102D400016E00369002BE3D1CB07E1D5012037E082
:102D50002369002B21D000270AE03B882268DB058D
:102D6000DB0D936202375222A35A013B9BB2A3525E
:102D70005223E35A9BB2002B12D00095039B0022F2
:102D800080212000FFF77EFF002821D1002EE4D013
:102D9000327823689A620136E5E737000026E7E7D4
:102DA0000095039B002240212000FFF76BFF0028C5
:102DB00010D12023636750330022E25400E0022048
:102DC00005B0F0BD0120FBE70120F9E70220F7E79D
:102DD0000320F5E70320F3E730B583B004000023B8
:102DE000C367FDF765FB050023681B681B070CD450
:102DF00023681B685B0715D420236367A3675033E0
:102E00000022E254002003B030BD80210C4B00931F
:102E10000300002289032000FFF734FF0028E7D0D9
:102E20000320F0E78021064B00932B000022C9030A
:102E30002000FFF727FF0028DED00320E3E7C0468D
:102E4000FFFFFF0110B5041E2ED0436F002B21D0D1
:102E5000242363672268136801218B4313602000D9
:102E6000FFF7ECFC012814D0636A002B18D122680C
:102E700053680E490B405360226893682A218B43A4
:102E800093602268136829390B4313602000FFF711
:102E9000A3FF10BD70330022C25401F089FED7E7B2
:102EA0002000FFF77FFEE2E70120F2E7FFB7FFFF18
:102EB00010B50400FDF7C0FA002300E00133421E04
:102EC0009A4208DDE25C4F2AF8D1E21852784B2A88
:102ED000F4D1012000E0002010BD000070B594B0D6
:102EE00004000DAB374A03CA03C3180011220021A6
:102EF00002F071F800260BE0C820FDF7DFFA200091
:102F0000FFF706FC6846FFF7D3FF002832D10136F1
:102F1000042E54DC002300932E22002101A802F08D
:102F20005AF8322269462000FFF78CFB002842D174
:102F30000DA8FDF781FA82B21E230DA92000FFF72C
:102F4000D5FE002839D1FDF7B3FA05006B461B7892
:102F5000002BD1D1FDF7ACFA401B1B4B9842F5D9A1
:102F6000CAE701336A46D25C3A2AFAD1981C033385
:102F70001A0002E00023F5E701326946895C2C293A
:102F8000FAD1511E814204D0023A824205D000207B
:102F900016E06B46185C303812E06A46125C303A34
:102FA0006946C95C303993009B1858004018632863
:102FB00006D1002004E0002002E0002000E0002014
:102FC00014B070BD70580008E7030000F0B597B06A
:102FD00004000F001500019300260F961522002112
:102FE00010A801F0F8FF39000FA802F02BF80FA885
:102FF000FDF722FA0FAB9C46604402221D4901F006
:10300000E1FF02962E22002103A801F0E4FF322204
:1030100002A92000FFF716FB002802D0002017B0FD
:10302000F0BD0FA8FDF708FA82B21E230FA92000F9
:10303000FFF75CFE002801D00020F0E7FDF738FA2A
:10304000070002AB1B78002B05D1FDF731FAC01B3E
:10305000094B9842F5D90198FDF730FA2000FFF7A7
:1030600057FB012D01D00120D9E702A8FFF720FF6F
:10307000D5E7C046BC580008E7030000F0B583B0B0
:1030800007000E00150001930024042C09DC019BAD
:103090002A0031003800FFF799FF012802D00134DF
:1030A000F3E7002003B0F0BD10B50400C8230122EF
:1030B0001C49FFF7E3FF012801D0002010BDC82301
:1030C000012219492000FFF7D9FF012801D0002073
:1030D000F4E7C823012215492000FFF7CFFF01289C
:1030E00001D00020EAE7C823012211492000FFF7A0
:1030F000C5FF012801D00020E0E7C82301220D49C7
:103100002000FFF7BBFF012801D00020D6E7C8232D
:10311000012209492000FFF7B1FF0128CED000208D
:10312000CCE7C046C0580008C4580008CC58000876
:10313000D8580008E8580008F4580008F0B5A7B0BF
:1031400004000F00150000260D96602200210EA835
:1031500001F041FF39000DA801F074FF0DA8FDF743
:103160006BF90DAB9C46604403221D4901F02AFF18
:1031700000962E22002101A801F02DFF322269467F
:103180002000FFF75FFA002802D0002027B0F0BD32
:103190000DA8FDF751F982B21E230DA92000FFF7FB
:1031A000A5FD002801D00020F0E7FDF781F9060019
:1031B0006B461B78002B05D1FDF77AF9801B094B74
:1031C0009842F5D9C820FDF779F92000FFF7A0FA59
:1031D000012D01D00120D9E76846FFF769FED5E748
:1031E00000590008571B0000F0B589B005000F001A
:1031F000160001AC1522002102A801F0ECFE154BCF
:10320000220003CB03C21B8813803900200001F089
:103210000BFF2000FDF710F9201802220E4901F0E3
:10322000D1FE0024022C10DCC823002201A92800B2
:10323000FFF724FF01280BD1012231002800FFF7FE
:103240007DFF012802D00134ECE7002009B0F0BD79
:103250000020FBE7045900080C59000870B5040071
:103260000D001600C82301220749FFF707FF0128B8
:1032700001D0002070BD320029002000FFF7B4FF0C
:103280000128F7D00020F5E71059000810B50023F9
:1032900009E0064A5900C81884000020A0541219F9
:1032A000506010720133092BF3DD10BDFC020020C9
:1032B00070B5002400E00134092C14DC63001B19F4
:1032C0009A00174BD35C8342F5D1154B9B181B7AA0
:1032D000002BF0D0FDF7ECF863001C19A200104B96
:1032E0009B1858601BE00024092C18DC63001B1994
:1032F0009A000B4B9B181B7A002B01D00134F3E78B
:10330000074E65002A1993009855FDF7D1F82A1940
:1033100093001A00F3185860B6180123337270BD79
:10332000FC02002030B5002300E00133092B14DC3F
:103330005A00D2189100094A5218127A002AF4D081
:10334000064A8A5C8242F0D104495A00D418A0008F
:103350000024445408184460047230BDFC0200206C
:1033600030B58BB0002400E00134092C15DC63007B
:103370001B199A000A4B9B18197A0029F4D00848A7
:103380001500125C401943680091064902A801F03B
:103390002BFE02A801F016F9E6E70BB030BDC046DF
:1033A000FC0200204059000800200AE00101091831
:1033B000114B5B189B180021D9710132092AF5DDE8
:1033C000013009280CDC0C4B010109180022CA54F9
:1033D0005B185A709A70DA701A715A719A71EDE727
:1033E000064B1A78044B1A70012159709A70044ADE
:1033F00012785A717047C04650020020A001002088
:103400007403002030B505230370304B1B784370E4
:10341000002410E0AB180933C1540132092A09DC39
:10342000210109192A4B5B189B18D9790029F1D180
:10343000FF31EFE70134092C47DC23011B19244A33
:103440009B5C002B00D1FF3325012D19AA1C83544E
:103450001F4B5B195B78002B00D1FF33EA1C8354B0
:10346000220112191A4B9B189B78002B00D1FF33B5
:103470002A1D835422011219154B9B18DB78002B4F
:1034800000D1FF336A1D835422011219104B9B187F
:103490001B79002B00D1FF33AA1D8354220112197E
:1034A0000B4B9B185B79002B00D1FF33EA1D835433
:1034B00022011219064B9B189B79002B00D1FF3378
:1034C0002A00083283540022A8E730BDA001002062
:1034D0005002002070B54278334B1A7000241EE071
:1034E000002224E000212AE0002131E0002138E020
:1034F00000213FE0002146E000214DE021010919B3
:103500002A4B5B189B18DD710132092A06DCB318BF
:10351000C3185D7AFF2DF1D10025EFE70134092CA6
:1035200041DC2601361983199A78FF2AD8D0230165
:103530001B191E495A548319D978FF29D2D0220168
:1035400012191A4B9B18597083191979FF29CBD07E
:1035500022011219154B9B18997083195979FF296B
:10356000C4D022011219114B9B18D9708319997973
:10357000FF29BDD0220112190C4B9B181971831918
:10358000D979FF29B6D022011219084B9B1859711D
:103590008319197AFF29AFD022011219034B9B1806
:1035A00099710022B1E770BD4E020020A4010020F5
:1035B000F0B5D6464F464646C0B5C8B0002500E037
:1035C0000135092D3DDC2A015219214B9B185B78EE
:1035D000002BF5D01E491400525C90460C19A178BE
:1035E000E07826796779A279049203970296019090
:1035F00000914246174908A801F0F6FC08A800F01F
:10360000E1FFE279237A9A46617AA07AE67A277B0B
:10361000637B9C46A37B9846E37B247C07940693BC
:1036200043460593634604930397029601900091E5
:103630005346094908A801F0D7FC08A800F0C2FFCA
:10364000BEE748B01CBC90469946A246F0BDC046B5
:103650005002002060590008B4590008002300E01F
:103660000133092B1ADC1901C9180D4A5218527876
:10367000012AF5D10A000A49515C0A4A127891429E
:10368000EED11A01D218064B9B18074A12781A710C
:10369000064A12785A71064A12789A717047C046E3
:1036A00050020020A0010020A1010020740300208E
:1036B0007503002010B500231BE00A001C01E4186C
:1036C0000021A154121951709170D1701171517172
:1036D000917107E01C01E418214A121952180024C4
:1036E000D47101310929F5DD02E00022002A1DD143
:1036F0000133092B32DC1901C918194A52185278C2
:10370000012AF5D10A001649525C8242D5D0002127
:103710000929EADC1C01E418114A12195218D2795D
:10372000824201D00131F3E70122DFE70C4A1C019C
:10373000E4180021A154121951709170D1701171C7
:103740005171917107E01C01E418054A12195218D1
:103750000024D47101310929F5DDC9E710BDC04647
:1037600050020020F8B5FCF7A3FE0500002400E09D
:103770000134092C22DC63001B199A00104B9B18A2
:103780001B7A002BF4D00E4B9B185B68EB1A0D4A8A
:103790009342EDD90C4800F015FF094F660032192D
:1037A0009300D85DFFF786FF3619B300D85DFFF7A9
:1037B000B9FDFFF7FDFEFFF7D3FDD9E7F8BDC04621
:1037C000FC02002030750000F0590008F8B5002315
:1037D00000E00133092B1ADC1901C918BB4A521841
:1037E0005278012AF5D10A00B849515CB84A1278DA
:1037F0009142EED11A01D218B44B9B18B54A1278F7
:103800001A71B54A12785A71B44A12789A71002323
:10381000002429E00132092A23DC10018018AB4979
:10382000091849780129F5D10100A848095C8D42A1
:10383000F0D11101891841188D700120C8701C0148
:10384000E418A748001904790C7144794C71807907
:1038500088719F480078C8710E7200204872012458
:10386000D8E7002C12D00133092B35DC1901C91817
:103870009B4A52185278012AF5D10A009849565CA1
:10388000984A1578AE42EED10022C4E70022092AF8
:10389000E9DC100180188D4909184978012901D106
:1038A0000132F4E7894811018A181654821801215F
:1038B00051709570D1701801C0188949091808799C
:1038C0001071487950718979917181490978D17164
:1038D000167200215172C6E7002263E00021002920
:1038E0005FD11801C0187949091889788D420CD028
:1038F0001801C01875490918CE7810018018784948
:103900000918C97801318E424BDD1901C9186F4879
:1039100041188D701601B61871488019C6780136A5
:10392000CE7006790E7146794E718079887168483B
:103930000078C8710020082810DC461C1701BF1849
:103940006749C9190918CF791801C0185F490918C2
:103950008919CF713000EEE70121C0E701261EE092
:103960000133092B1ADC1801C01858490918497885
:103970000129F5D101005548095C8C42F0D10020A5
:103980000928ABDC1601B618554989190918CE79F2
:103990004F4909788E42DFD00130F1E70026002E32
:1039A00012D00132092A58DC110189184C4B5B18DE
:1039B0005B78012BF5D10B0049495C5C494B1D78C4
:1039C000AC42EED00023CCE7002109290CDC100129
:1039D0008018434B1B185B18D8793D4B1B789842D5
:1039E00001D00131F1E70126002EDAD10023092BA5
:1039F000D7DC1801C018354909184978012901D1C7
:103A00000133F4E731481901C9180C544118012059
:103A100048708D701401A41831480019C47801341D
:103A2000CC7004790C7144794C7180798871284884
:103A30000078C87100200DE0451C1401A418284925
:103A400009190918CC791801C01820490918491911
:103A5000CC7128000828EFDDA3E7002419E001332A
:103A6000092B12DC1A01D2181D49515C22011219CE
:103A70001648125C9142F2D11901C918184A52181D
:103A80005278002AEBD0012300E00023002B14D051
:103A90000134092C18DC220112190C4B9B185B789D
:103AA000012BF5D122011219084B9B189A780D4B66
:103AB0001B789A42ECD10023D2E723011B19034A59
:103AC000985CFFF7F7FDE3E7F8BDC0465002002021
:103AD000A0010020A1010020740300207503002034
:103AE000A40100204E02002084B030B583B00690BF
:103AF0000791089209931DAB1A786B46DD1D802350
:103B00005B4213432B7080246401002221001C9827
:103B1000FCF72EFF1E230122290006A8FEF70EF94E
:103B20001E2301221EA906A8FEF708F90122210082
:103B30001C98FCF71DFF03B030BC08BC04B018474C
:103B400084B070B596B01A901B911C921D93FF26FD
:103B5000149612251395184C129448221EA96846F3
:103B600001F030FA1A981B991C9A1D9BFFF7BCFFB5
:103B700014961395129448221EA9684601F022FA61
:103B80001A981B991C9A1D9BFFF7AEFF05231493EF
:103B9000043B1393309B129348221EA9684601F000
:103BA00011FA1A981B991C9A1D9BFFF79DFF16B0DE
:103BB00070BC08BC04B018470004005084B070B555
:103BC00096B01A901B911C921D93FF2614961225F5
:103BD0001395184C129448221EA9684601F0F2F978
:103BE0001A981B991C9A1D9BFFF77EFF149613953C
:103BF000129448221EA9684601F0E4F91A981B990C
:103C00001C9A1D9BFFF770FF03231493023B139331
:103C1000309B129348221EA9684601F0D3F91A98E6
:103C20001B991C9A1D9BFFF75FFF16B070BC08BC68
:103C300004B018470004005084B030B583B006903B
:103C40000791089209931DAB1A786B46DD1D8023FE
:103C50005B4213432B7080246401002221001C98D6
:103C6000FCF786FE1E230122290006A8FEF766F84F
:103C70001E98FCF7E1FB82B21E231E9906A8FEF7F0
:103C80005DF8012221001C98FCF772FE03B030BCE5
:103C900008BC04B0184784B030B597B01A901B9197
:103CA0001C921D93309C002514950D2313931294A0
:103CB00048221EA9684601F085F91A981B991C9A9A
:103CC0001D9BFFF711FF319B14931395129448220B
:103CD0001EA9684601F076F91A981B991C9A1D9B3B
:103CE000FFF7AAFF3198FCF7A7FBC0B2149022237C
:103CF0001393129448221EA9684601F063F91A989A
:103D00001B991C9A1D9BFFF7EFFE129448221EA9D7
:103D1000684601F057F91A981B991C9A1D9BFFF7EA
:103D20004DFFFA208000FCF7C9FB012017B030BC22
:103D300008BC04B0184784B030B583B00690079132
:103D40000892099380256D01002229001C98FCF738
:103D50000FFE1E2301221DA906A8FDF7EFFF6B46EB
:103D6000DC1D1E230122210006A8FEF7CBF901224B
:103D700029001C98FCF7FCFD207803B030BC08BC7F
:103D800004B0184784B070B596B01A901B911C927D
:103D90001D93309C8023149301251395129448227F
:103DA0001EA9684601F00EF91A981B991C9A1D9BD2
:103DB000FFF79AFE0A20FCF781FB13951294482224
:103DC0001EA9684601F0FEF81A981B991C9A1D9BC3
:103DD000FFF7B1FF802805D0002016B070BC08BCEA
:103DE00004B01847002514950E231393129448220B
:103DF0001EA9684601F0E6F81A981B991C9A1D9BAB
:103E0000FFF772FE14950F231393129448221EA9F4
:103E1000684601F0D7F81A981B991C9A1D9BFFF76A
:103E200063FE012314931393129448221EA968463B
:103E300001F0C8F81A981B991C9A1D9BFFF754FEB5
:103E400072231493553B1393129448221EA968467B
:103E500001F0B8F81A981B991C9A1D9BFFF744FEB5
:103E600074231493563B1393129448221EA9684658
:103E700001F0A8F81A981B991C9A1D9BFFF734FEB5
:103E8000149526231393129448221EA9684601F024
:103E900099F81A981B991C9A1D9BFFF725FE1495FB
:103EA00020231393129448221EA9684601F08AF831
:103EB0001A981B991C9A1D9BFFF716FE082614964C
:103EC00021231393129448221EA9684601F07AF820
:103ED0001A981B991C9A1D9BFFF706FEE423149366
:103EE000DE3B1393129448221EA9684601F06AF83B
:103EF0001A981B991C9A1D9BFFF7F6FDC02314937B
:103F0000B93B1393129448221EA9684601F05AF84F
:103F10001A981B991C9A1D9BFFF7E6FD14951396A2
:103F2000129448221EA9684601F04CF81A981B9971
:103F30001C9A1D9BFFF7D8FD92231493893B139382
:103F4000129448221EA9684601F03CF81A981B9961
:103F50001C9A1D9BFFF7C8FD01203EE784B070B599
:103F600096B01A901B911C921D93319E10231393AF
:103F7000234C129448221EA9684601F023F81A988F
:103F80001B991C9A1D9BFFF7D6FE14900D231393CB
:103F9000129448221EA9684601F014F81A981B9939
:103FA0001C9A1D9BFFF7A0FD13231393309B1293C4
:103FB00048221EA9684601F005F81A981B991C9A18
:103FC0001D9BFFF7B8FE05000024A54213DD00236A
:103FD00013930B4B129348221EA9684600F0F2FF80
:103FE0001A981B991C9A1D9BFFF7A5FE30550028B7
:103FF00001D00134E9E716B070BC08BC04B0184722
:1040000000040050F0B5DE46574680B58DB00AADCD
:1040100000242C7080236B7064270297022601967F
:1040200000957F3B0022AA210590FCF76FFE0297C6
:104030000196009501230022AA210598FCF766FE4F
:1040400013232B706C70029701960095123B00228F
:10405000AA210598FCF75AFE64230293633B01935F
:10406000272402AB9C466444009401230622AA2123
:104070000598FCF71BFF2378DB06EDD5232502AB63
:104080009C46654400239B462B70642402940133B4
:104090009A46019300956122AA21059E3000FCF703
:1040A00035FE52232B7002945346019300953E2215
:1040B000AA213000FCF72AFE5B462B70029453467F
:1040C000019300953F22AA213000FCF71FFEC82073
:1040D000FCF7F4F9029453460193272502AB9C4662
:1040E0006544009501236022AA2105963000FCF763
:1040F000DDFE2B78DB431F2502AA944665442B7016
:104100000294022701970BAE009601234A22AA21AE
:104110000598FCF7CBFE32782B789B1ADBB27278CD
:104120009B1A2B7002940197009601234C22AA211E
:104130000598FCF7BBFE32782B789B1ADBB27278BD
:104140009B1A2B7002940197009601235022AA21FA
:104150000598FCF7ABFE32782B789B1ADBB27278AD
:104160009B1A2B7002940197009601235B22AA21CF
:104170000598FCF79BFE32782B789B1ADBB272789D
:104180009B1ADBB209AA414908881080888802AED0
:1041900030830989B18206AE59463170843171701D
:1041A0001933DBB2383BDBB25F33DBB26433DBB2F3
:1041B0000733DBB2303BDBB27C3B2B7002940197C0
:1041C000009201234A2226310598FCF79FFD0294B4
:1041D000019708AB009301234C22AA210598FCF714
:1041E00095FD0294019707AB009301235022AA2169
:1041F0000598FCF78BFD02940197009601235B2242
:10420000AA21059E3000FCF781FD2B78DB432B7043
:1042100002945346019300956022AA213000FCF7D6
:1042200075FD0AAB42221A705A465A7002940197E1
:1042300000930123AA213000FCF768FD6423029358
:10424000633B0193272402AB9C4664440094012302
:104250000622AA210598FCF729FE2378DB06EDD477
:104260000AAB20221A7000225A7064320292623A1B
:104270000192009301230022AA210598FCF746FD34
:104280000DB00CBC92469B46F0BDC0468C58000851
:1042900010B586B064230293623B019305AC009491
:1042A000013B1C22AA21FCF701FE63781B02207847
:1042B000184306B010BD0000F0B589B014220021EB
:1042C00003A800F088FE224BDA6A01252A43DA624D
:1042D000DA6A2A400192019AD96A02221143D9620C
:1042E000DB6A1A400292029BC624E400A026F6056F
:1042F000002221003000FCF73BFB164F0022390062
:104300001548FCF735FB03940495002405940694A6
:1043100003A93000FCF766FA039704950594069408
:1043200003A90D48FCF75EFA80235B0003930B4B57
:104330000493059403A93000FCF754FA00220021ED
:104340000720FCF7C9F80720FCF7F6F809B0F0BD24
:104350000010024015100000000400500000111071
:1043600000B583B00D4A116B012319431163126B21
:1043700013400193019B002200210A20FCF7ACF8B6
:104380000A20FCF7D9F8002200210B20FCF7A4F842
:104390000B20FCF7D1F803B000BDC046001002406E
:1043A00010B50C480C4B036082235B004360002374
:1043B0008360C36003614361802292008261C93AD5
:1043C000FF3AC2610362436283620733C362FDF74F
:1043D00071FC10BDC00300200038004010B5094832
:1043E000094B0360E1235B02436000238360C360E9
:1043F00003610C2242618361C36103624362FEF781
:1044000021FD10BDAC0400200038014010B5094862
:10441000094B0360E1235B02436000238360C360B8
:1044200003610C2242618361C36103624362FEF750
:1044300009FD10BDA40500200044004010B50D4C3E
:104440000D4B23600D4B63600023A3600122E260EB
:1044500023616361A361E36123622000FCF7F0FB49
:1044600000212000FCF7F6FD00212000FCF71EFED5
:1044700010BDC0461804002000580040BB7C7000EE
:1044800030B587B01022002102A800F0A4FD082258
:104490000021684600F09FFD104C8023DB0523605F
:1044A000FA23DB0163600025A5600D4BE360256105
:1044B000802363612000FDF743FF80235B010293AB
:1044C00002A92000FDF77AFF402300930195694679
:1044D0002000FEF77AF807B030BDC046680500201E
:1044E0008813000030B583B008220021684600F030
:1044F00072FD094C094B236000256560A560E560ED
:1045000065612000FDF71CFF0095019569462000BC
:10451000FEF75BF803B030BD2C0500200010004012
:1045200010B543011B1A9B001818C300054CE3602B
:104530002000FDF705FF044B00221A602000FDF764
:1045400019FF10BD680500208400002070B504002C
:104550000D4B984200D070BD0C4B1B68002B03D153
:104560000A4B01221A60F6E7094D10212800FCF7DA
:1045700005FA04212800FCF701FA044B01221A7104
:104580002000FDF709FFE6E7680500208400002011
:104590000004005010B580235B00984200D010BD8D
:1045A000A0202021C005FCF7E9F901210348FCF710
:1045B000E5F9034B01225A71F1E7C04600040050AF
:1045C0008400002070B50500FBF736FF82B2084C6E
:1045D0001E2329002000FEF789FB1E230222054925
:1045E0002000FEF783FB6420FBF768FF70BDC04628
:1045F000AC0400203C59000870B584B0244B1B78F3
:10460000002B17D1234C2000FEF782F8204D802686
:10461000760032000021280000F0DDFC1E4B002255
:104620009A71320029002000FEF70CF800282BD1E7
:1046300004B070BD164C2000FBF7FEFE0138225C72
:10464000154CA2711549684600F0CEFC6846FFF78C
:10465000B9FFA379462B0DD0662B0BD04E2B0FD074
:104660006E2B0DD0452B01D0652BCBD10C4B0222EC
:104670001A70C7E701230A4A1370074AD371C1E7CA
:10468000074B00221A70BDE70648FFF79BFFCFE7F4
:104690008C000020AC04002084000020F8590008A1
:1046A000750300200C5A000830B59DB03822002157
:1046B0000EA800F090FC1422002109A800F08BFC49
:1046C00024220021684600F086FC16490B68164A31
:1046D0001A4080231B0113430B6002230E93012217
:1046E00011920F3212921893002419948023DB0246
:1046F0001A938023DB031B930EA8FCF759FD0F23AD
:10470000099303250A950B940C940D94012109A893
:10471000FDF70CF80095039404946846FDF700F942
:104720001DB030BD00700040FFE7FFFFF0B5D5B011
:10473000FBF7A2FEFFF7B8FFFFF7BEFDFFF710FE85
:10474000FFF72EFEFFF74AFEFFF778FEFFF798FE11
:10475000FFF7C8FEFFF75AFE8021B54D012249013F
:104760002800FCF705F98021A024E4050122890036
:104770002000FCF7FDF880210122C9002000FCF791
:10478000F7F8AC4C1295210010314822684600F031
:1047900019FC20686168A268E368FFF7F3FA002853
:1047A0003DD00720FBF7C8FEA348FFF70BFFA34B44
:1047B00002221A700025A24B1D70A24B1D70FA2018
:1047C0004000FBF77BFEA048FFF71CFCFEF75EFDF8
:1047D000FEF7EAFDFEF7ECFE9C48FEF765FCC6B26C
:1047E0000A20FFF79DFE934C914B1293210010314C
:1047F0004822684600F0E6FB20686168A268E3682A
:10480000FFF79EF9924B5D711D7180225200914914
:104810009148FDF717FF00280DD103252AE0A030AD
:1048200001222021C005FCF7A3F801221100280075
:10483000FCF79EF8B5E78948FFF7C4FEEDE77D4C2D
:10484000122313937A4B12932100103148226846A9
:1048500000F0B8FB20686168A268E368FFF76BFAB4
:10486000C30711D47A4B5B79002B13D1784B1B799A
:10487000002B7CD130BF764B5B79002BDFD1744BA2
:104880001B79002BF6D0DAE77548FFF79BFEFBF7A4
:104890005DFEE7E77348FFF795FE6D4B00225A7106
:1048A000FBF706FE0700634C12231393604B129331
:1048B000210010314822684600F084FB20686168BE
:1048C000A268E368FFF737FA502805D0FBF7F0FD40
:1048D000C01B654B9842E6D9644BDF1B624B9F427D
:1048E00024D9544C14AB1393514B12932100103123
:1048F0004822684600F066FB20686168A268E368A9
:10490000FFF72CFB14AB1B78052B22D0494C484BEE
:104910001293210010314822684600F053FB2068B2
:104920006168A268E368FFF70BF9A3E7484B002230
:104930005A71404C3E4B1293210010314832684668
:1049400000F040FB20686168A268E368FFF7F8F8B0
:1049500090E714A8FEF7BEFD454B1878FEF7A8FCBB
:10496000FEF734FFFEF724FEFEF7FAFCCEE7384BE5
:1049700000221A71FEF7F6FE3348FFF789FC304B30
:104980001870012E3AD0FFF737FEFEF767FE14AF1E
:104990003800FEF737FD274C1397254F1297482212
:1049A0003449684600F00EFB20686168A268E3683D
:1049B000FFF771F9129748222E49684600F002FB72
:1049C00020686168A268E368FFF7BAF80A20FFF779
:1049D000A7FD2948FFF7F6FDFEF7EAFD013DEDB220
:1049E000002D04D01A4BDB79002B00D142E7012EB9
:1049F0000AD0174B0022DA7103253BE71348FEF774
:104A00006DFA1E4B1870BEE71C4B1B78022BF0D9B9
:104A10001B490E4800F0C2F9C0B2012803D0194862
:104A2000FFF7D0FDE5E71848FFF7CCFDE1E7C0460A
:104A300000040050C0030020185A0008A001002004
:104A4000740300207503002018040020A405002032
:104A5000840000208C000020AC0400200C5A0008C8
:104A60001C5A00082C5A0008E7030000B104000893
:104A70004E020020D0030020445A0008A10100206B
:104A8000585A0008785A0008685A00087047000011
:104A9000054B5A6B01210A435A63996B80225205D8
:104AA0000A439A637047C0460010024010B586B0B2
:104AB00004001422002101A800F08DFA2268114B95
:104AC0009A4201D006B010BD0F4CE26A02231A438D
:104AD000E262E26A13400093009BC0231B01019332
:104AE00012230293113B0393023304930333059380
:104AF00001A90648FBF776FEA26B8023DB03134374
:104B0000A363DFE70058004000100240000400509B
:104B100010B586B004001422002101A800F05BFA51
:104B200022680F4B9A4201D006B010BD0D4B996B15
:104B30008022D2010A439A63D96A02221143D962C0
:104B4000DB6A13400093009BE0231B020193029257
:104B50000323049301A90448FBF744FEE4E7C0469D
:104B600000380040001002400004005010B50368F7
:104B70008022D205934203D00B4A93420ED010BD3F
:104B80000A4A936B01210B439363002200210F20FB
:104B9000FBF7A2FC0F20FBF7CFFCF0E7034A936B77
:104BA00010210B439363EAE700100040001002401D
:104BB00030B589B004001422002103A800F00BFADC
:104BC0002368354A934204D0344A934230D009B026
:104BD00030BD334B596B8022D2010A435A63D96AE4
:104BE00002221143D962DB6A13400193019BC02367
:104BF000039304920325069503A92A48FBF7F2FDC7
:104C000029482A4B0360456000238360C3608022EB
:104C1000026143618361C3610362FBF7D9FC002831
:104C200003D1214BE3669C62D1E7FFF72FFFF8E742
:104C30001B4B996B802292020A439A63D96A012224
:104C40001143D962DB6A1A400292029B0C23039340
:104C50000A3B04930133069304250795A02003A97A
:104C6000C005FBF7BFFD1248124B036045600023EF
:104C70008360C3608022026143618361C361036218
:104C8000FBF7A6FC002803D1094BE3669C629EE774
:104C9000FFF7FCFEF8E7C046003801400044004042
:104CA0000010024000040050640400203000024064
:104CB00078030020580002407047FEE770477047B5
:104CC00010B5FBF7EDFB10BD10B580204000FBF7E1
:104CD00059FE10BD10B50248FBF725FD10BDC046BA
:104CE0006404002010B50248FBF71DFD10BDC0464E
:104CF0007803002010B50248FDF7D6FB10BDC04672
:104D00006805002010B503000B4A1268002A08D07D
:104D1000094A1068C3186A46934206D8064A1360C7
:104D200010BD054A05491160F2E700F021F90C2396
:104D3000036001204042F3E78C0100202806002098
:104D4000104B1968802252000A431A60DA680E4933
:104D50000A40DA601A680D490A401A609A6801210F
:104D60008A439A601A680A490A401A60DA6809494F
:104D70000A40DA6000221A61074B802212059A600D
:104D80007047C046001002400C40FF88F6FFF6FE58
:104D9000FFFFFBFFFFFF02FF00ED00E0F0B5C6469E
:104DA00000B59CB000900191002303936022002184
:104DB00004A800F010F90024002732E00A2128009E
:104DC000FBF7A2F9C6B20A212800FBF723FAC9B201
:104DD0007D1C3000303003AAD055BB1C30315155FA
:104DE0003BE0D91C03AA26371754181D0337575424
:104DF000591D093717549F1D452353547B1C03AA83
:104E00002C21D155BD1C0C39D15422011219424B11
:104E10009B185E79092E50D80337303603AB5E55A8
:104E20000134092C69DC220112193B4B9B185B7879
:104E3000012BF5D1002F06D07B1C03AA2E21D155C2
:104E40000E39D154023723011B19334A9D5C092DB9
:104E5000B4D87B1C303503A9CD555A1C03A92C208E
:104E6000C854981C20278F54210109192A4A521826
:104E70009279012AB5D0002A10D1DF1C03AA432160
:104E80001154191D6C20D055581D65275754991D74
:104E9000043F1754DF1D72235354AFE7DF1C03A9EF
:104EA00045220A54181D2D32CA555F1D0A54981DFB
:104EB0006F25CD55DF1D0A54A0E7632E13D80A21B4
:104EC0003000FBF721F9C3B298460A213000FBF706
:104ED000A1F9C9B2FA1C4046303003AB585504372B
:104EE000303199549CE7F81C03AB31225A55391DD7
:104EF000013A1A5405375A5492E703AA0023D355AE
:104F000001990098FEF7AAF9012800D000201CB0F2
:104F100004BC9046F0BDC046500200200D488546B6
:104F2000002103E00C4B5B58435004310B480C4B01
:104F300042189A42F6D30B4A02E00023136004326F
:104F4000094B9A42F9D3FFF7FBFE00F017F8FFF781
:104F5000EDFBFEE700200020D45A000800000020EE
:104F6000680000206800002028060020FEE70000FE
:104F7000014B18687047C0460400002070B5002639
:104F80000C4D0D4C641BA410A64209D1002600F064
:104F90003FFC0A4D0A4C641BA410A64205D170BD0B
:104FA000B300EB5898470136EEE7B300EB5898474B
:104FB0000136F2E7CC5A0008CC5A0008CC5A000857
:104FC000D05A0008002310B59A4200D110BDCC5C25
:104FD000C4540133F8E703001218934200D170471C
:104FE00019700133F9E700000EB400B50B499CB00D
:104FF0001DAB02900690079104910948094904CB22
:105000000591006802A9019300F086F80023029A36
:1050100013701CB008BC03B01847C046FFFFFF7FE9
:10502000040000200802FFFF020010B51378541C92
:10503000002B05D1CC5CD4540133002CFAD110BD27
:105040002200F3E703000A7801311A700133002AC5
:10505000F9D17047F0B58E6885B007000C00039257
:1050600001939E423CD890238A89DB001A4234D0B7
:105070000325096923685B1A0293636902985D43FB
:10508000EB0F5D19019B6D1001331B18AB4200D96A
:105090001D00530532D52900380000F019FB061E0B
:1050A00009D10C233B6040230120A28940421343D5
:1050B000A38105B0F0BD029A2169FFF783FFA389A0
:1050C000144A1A4080231343A381029B2661F618D9
:1050D00026606561019EED1AA560019B9E4200D984
:1050E000019E32000399206800F095FAA368002021
:1050F0009B1BA36023689E192660DAE72A0038000C
:1051000000F044FB061EE0D12169380000F096FA59
:10511000C7E7C0467FFBFFFFF0B5A1B003901D00BD
:105120008B890F0016001B0611D50B69002B0ED1C1
:10513000402100F0CDFA38603861002805D10C23F9
:10514000039A0138136021B0F0BD40237B61002336
:1051500008AC6361203363761033A376079535007E
:105160002B78002B01D0252B46D1AB1B05930CD0FF
:10517000320039000398FFF76DFF431C00D1AEE009
:105180006269059B9446634463612B78002B00D1D0
:10519000A5E0012200235242626004A95432521851
:1051A0006E1C2360E360A3601370A3653178052251
:1051B000534800F025FA751C00281FD12268D30639
:1051C00004D5532304A95B1820211970130704D5B3
:1051D000532304A95B182B21197033782A2B16D07E
:1051E000350000210A20E3682A786E1C303A092A2B
:1051F0004ED9002918D010E00135B1E7404B2268A4
:10520000C01A01238340134323602E00CEE7079B7F
:10521000191D1B680791002B01DB0B9304E05B4217
:10522000E3600223134323602B782E2B0AD16B7883
:105230002A2B35D1079B02351A1D1B680792002BBC
:105240002BDB09932F4E29780322300000F0D8F988
:10525000002806D04023801B834022680135134379
:1052600023602978062228486E1C217600F0C8F9B0
:1052700000283CD0254B002B25D10722079B073364
:105280009343083307936369049A9B18636166E745
:10529000434301219B183500A6E701235B42D0E779
:1052A00000230A201A000135636029786E1C30390A
:1052B000092903D9002BC5D00992C3E74243012332
:1052C00052183500F1E707AB00933A00104B21006C
:1052D000039800E000BF0490049B0133D3D1BB8945
:1052E0000D985B0600D42EE7012040422BE707AB68
:1052F00000933A00064B2100039800F079F8EAE7A2
:10530000905A0008965A00089A5A000800000000B7
:1053100055500008F7B5150001938A680B69009095
:105320000C00934200DA130022002B604332127803
:10533000002A01D001332B6023689B0602D52B681D
:1053400002332B60062723681F4027D023004333F6
:105350001B785A1E93412268920630D4220001998C
:1053600043320098089EB047431C25D0062320688E
:105370002A68E16803400025042B03D18D1AEB4312
:10538000DB171D40A3682269934201DD9B1AED18CB
:105390000027BD4220D1002010E00137E3682A68D1
:1053A0009B1ABB42D2DD22000123193201990098D9
:1053B000089EB047431CF0D101204042FEBD302082
:1053C000E1184331087021005A1C45310978A218B0
:1053D000433202331170C1E7220001231A320199CE
:1053E0000098089EB047431CE6D00137D1E7000083
:1053F000F0B589B004920A004332059303900292FB
:105400000A7E0C000E9B6E2A00D186E01FD8632A0C
:1054100033D008D8002A00D18CE0582A4DD025007E
:1054200042352A7030E0642A01D0692AF7D1196820
:1054300025680A1D280629D508681A60002803DA9D
:105440002D23029A404213706B4E0A274FE0732AB5
:1054500074D008D86F2A1FD0702AE0D120220968A2
:105460000A43226003E0752A16D0782AD7D1220099
:10547000782145321170614E22E025001A684235CC
:10548000111D196013682B70012365E008681A600C
:105490006906D3D500B2D1E719682568081D1860E0
:1054A00008682E0605D5544E08276F2A1BD00A27F8
:1054B00019E06D06F7D580B2F5E745314E4E0A701A
:1054C00018682268011D00681960150621D5D307E8
:1054D00002D520231A4322601027002803D120235D
:1054E00022689A4322602300002243331A706368C3
:1054F000A360002B58DB042221689143216000281F
:1055000054D1029D002B5AD02500337842352B70A0
:1055100055E05506DBD580B2D9E71A680D68101D35
:105520004969186013682E0601D5196002E06D06FE
:10553000FBD519800023029D23614FE01A68111DDD
:105540001960156800216268280000F059F80028E9
:1055500001D0401B6060636823610023029A1370CE
:105560003CE023692A0004990398059DA847431C41
:105570003ED023689B0715D4079BE068984239DA30
:10558000180037E022000123193204990398059E80
:10559000B047431C2CD00135E368079A9B1AAB42F5
:1055A000F0DCE9E70025F7E70028ADD0029D3900DF
:1055B000FAF730FE735C013D2B700028F7D1082FFD
:1055C00009D12368DB0706D563682269934202DCB0
:1055D0003023013D2B70029B5B1B2361059B07AAB7
:1055E00000932100049B0398FFF794FE431CB8D15D
:1055F0000120404209B0F0BDA15A0008B25A00088B
:10560000C9B28218904201D10020704703788B42C2
:10561000FBD00130F6E710B5884202D98B189842CA
:1056200003D3002307E08B5C8354013AFBD210BD07
:10563000CC5CC45401339A42FAD1F8E770B5050046
:10564000002910D00C1F2368002B00DAE418280072
:1056500000F0D4F81D4A1368002B05D16360146074
:10566000280000F0CCF870BDA34209D92168601869
:105670008342F3D118685B6841182160EEE713009C
:105680005A68002A01D0A242F9D919685818A042D4
:105690000BD120680918581819608242E0D11068AF
:1056A0005268411819605A60DAE7A04202D90C2307
:1056B0002B60D5E721686018824203D110685268D8
:1056C0004118216062605C60CAE7C0469401002016
:1056D000032370B5CD1C9D43083506000C2D1ED24A
:1056E0000C25A9421DD8300000F088F8254A14681E
:1056F0002100002919D1244C2368002B03D130004C
:1057000000F06AF820602900300000F065F8431CC2
:105710002BD10C233000336000F071F803E0002D32
:10572000DFDA0C233360002070BD0B685B1B19D4DB
:105730000B2B03D90B60CC18256003E04B688C421F
:105740000DD11360300000F05AF8200007220B3012
:10575000231D9043C31AE7D05A42E250E4E7636046
:105760000C00EFE70C004968C3E70323C41C9C430B
:10577000A042E1D0211A300000F02EF8431CDBD10A
:10578000C7E7C0469401002098010020F8B5070043
:105790000D001600002905D11100FFF799FF040044
:1057A0002000F8BD002A03D1FFF748FF3400F7E7D7
:1057B00000F026F82C00B042F2D231003800FFF79A
:1057C00087FF041EECD029003200FFF7FBFB290005
:1057D0003800FFF733FFE3E7002370B5064C050000
:1057E00008002360FFF78EFA431C03D12368002BC7
:1057F00000D02B6070BDC046240600207047704763
:105800000B1F1B68181F002B01DA0B58C0187047BC
:10581000F8B5C046F8BC08BC9E467047F8B5C0460F
:08582000F8BC08BC9E4670476D
:10582800922A0008C02A0008D82A0008422B00083B
:10583800102B0008422B0008422B0008422B0008BE
:10584800282B0008CE290008062A0008202A00086C
:105858008C2A0008582A00088C2A00088C2A00087C
:105868008C2A0008722A000841542B4353510D001A
:105878000000000000000000000000000000000020
:105888000000000019C800005F64000007D0000095
:10589800030406080C101820300000000000000067
:1058A80000000000010203040607080900000000C8
:1058B800010203040D00000041540000415445302A
:1058C8000000000041542B434D45453D3200000087
:1058D80041542B434C434B3D225343222C3200006E
:1058E80041542B435245473D3200000041542B435D
:1058F8005245473D300000001A0D000041542B432B
:105908004D47533D2200000041542B434D47463D2F
:1059180031000000526573706F6E640D0A0000005C
:1059280042726F6164636173740D0A004261636B54
:1059380050726F700D0A000049443A2025642C20EB
:1059480054696D656F75743A2025642C2041637421
:105958006976653A2025640049443A2025642C205C
:105968004163746976653A2025642C204E65787405
:105978005F686F703A2025642C206E756D5F686FC4
:10598800703A2025642C207369676E616C3A202573
:10599800642C20626174746572793A2025642C2025
:1059A800666972653A202564000000002564202D90
:1059B8003E202564202D3E202564202D3E20256490
:1059C800202D3E202564202D3E202564202D3E20BC
:1059D8002564202D3E202564202D3E202564202D81
:1059E8003E202564000000004B696C6C6564000073
:1059F8004D65737361676520526561643A2025635C
:105A080000000000444D41206661696C6564000037
:105A18004E65770052585F54696D656F75740D0A4D
:105A2800000000004C6F726120496E7465727275D7
:105A380070742044657465637465640055706461AE
:105A4800746564204E65696768626F727300000050
:105A58002B313736353730313739323200000000D4
:105A680055706461746564205365727665720000D0
:105A78004661696C20746F205570646174652053A9
:105A88006572766572000000232D302B2000686C4B
:105A98004C00656667454647003031323334353649
:105AA8003738394142434445460030313233343582
:0C5AB800363738396162636465660000AF
:085AC4009CA7FF7F0100000018
:045ACC00E9000008E5
:045AD000C100000809
